:020000040000FA
:06000000020CB00204191D
:03002B00020A5F67
:030053000203485D
:03007B000201EE91
:100083000203AA0101FFFFFFFFFFFF640401060053
:1000930000000000000000010101010101E188EA04
:1000A30088E487CF864882B284FE866C888E85FE7C
:1000B30087EF865688BF86C682A782E5829611F0AF
:1000C300010000023D8A02318A00F0FF07000800A8
:1000D30000FFFF0000050400000003000147726FEA
:1000E300757000FF0400100020FD00020206FFFFF0
:1000F300FFFF1E9E1700000000000000000000002C
:100103000000000000000000000000A41700000031
:1001130000000000000000000000000000000000DC
:1001230000000000000000000000000000000000CC
:1001330000000000000000000000000000AA1700FB
:1001430000000000000000000000000000000000AC
:10015300000000000000000000000000000000009C
:10016300000000000000000000000000000000008C
:1001730000000001010A040150000003848900000B
:1001830000010400001F110000002C010000FFFF0C
:10019300941101881300002C01000064006400B86E
:1001A30001A0BB0D00A0BB0D000202020704010564
:1001B3001E02051E020A0A0108080103B80B028089
:1001C3003E0102FEFFE8030A050001FFFF020A01E8
:1001D3001401E005030101FF0FEB2A00000000BF3B
:1001E3002900000000FF000000FF00C0E074F112CE
:1001F3000698A2AFE433FED2AF539AEF538DBFA25A
:100203009640787A587B1B122656120337A2C150A8
:10021300030202B0A29650F212032B90036EC3E0C6
:1002230094D0A3E094074053900368E4F0900369EB
:10023300801CECF4FA88828983E05AF0900369E029
:1002430004F0E064087008E4F0900368E004F0123E
:1002530003377A907B01122656A2965036A2C150DC
:10026300F8C2C1900368E06012900369E0700C7AF1
:10027300207B009010D7E0F91213D2439A10438DDC
:1002830040758A00C2EB751A00EEA2E092AF7F02BE
:100293000206F712265090036CEAF0A3EBF07A9073
:1002A3007B01122656A2964008A2C150F8C2C18013
:1002B300CA12032B90036CE0F8A3E0F990036EE0FD
:1002C30028F8A3E039F990036AE8F0A3E9F0900372
:1002D3006AE02488F8A3E034FFF9C3E894E7E994DB
:1002E300005098750801750900900369E0780812B9
:1002F3000BEAE508FC900368E0F8740428F8E4349A
:1003030003F990036EC08290036CE0FAA3E0FB75DF
:100313008303D082C3E09AA3E09B400302023588A3
:10032300828983E04C02023E12265090036EEAF06B
:10033300A3EBF022E5C9540F44A0F5C9E5C9540F56
:100343004450F5C922C0E074F1120698A2AFE43319
:10035300F509D2AF85A708AFA1EF5508FE74105E6B
:1003630060061210CC75A1EF74085E60081210D2FB
:1003730075A1F78024EFA2E092F0E508A2E082F0F5
:100383005017906198E0F8900438E0C398A2D265C2
:10039300D0335002E8F075A1FE751A00E509A2E01A
:1003A30092AF7F020206F7C0E074F2120698A2AF82
:1003B300E433FED2AF9061A4E0F8759B00E5915859
:1003C300540860087591F71211208023E591585461
:1003D3001060087591EF1211268014E591A2E09246
:1003E300F0E8A2E082F05007E0C2E0F012127C9045
:1003F30061A3E0F8E5E9585404600E12125275E95E
:10040300FB906193E0A2E640F2751A00EEA2E0923F
:10041300AF7F010206F7C0E074F2120698A2AFE4C0
:1004230033FED2AF9061A5E0F8E5BF5854046006EF
:1004330075BFFB12129480D1C3E498F8E499F912C2
:10044300047C8026C3E49AFAE49BFBE920E7E912E3
:10045300047CE498F8E499F922C3E498F8E499F960
:1004630012047CE498F8E499F9C3E49AFAE49BFB58
:1004730022EB20E7CFE920E7E0B90010BB0008E852
:100483008AF084F8AAF022E4FBC8FA22EB70227BFC
:1004930010C833C8C933C9335007C39AC3DBF280CA
:1004A300069A50012ADBEAC833F4C8C933F4C9FAFF
:1004B3002275F008E4C833C8C933C933C99AC99B44
:1004C3005004C92AC93BD5F0ECFBC833F4C8E4C9CE
:1004D300FA22080808EAC0E0EBC0E086F0E7A4FAD5
:1004E300180986F0E7A42AFA180986F0E7A42AFA7D
:1004F300180986F0E7A42AFA1986F0E7A4FBE5F0C9
:100503002AFA190886F0E7A42BFBE5F03AFA190852
:1005130086F0E7A42BFBE5F03AFA18180986F0E712
:10052300A4C5F02BFBE43AFA1908E7C5F0C6A426E4
:10053300F6E5F03BFBE43AFA1886F0E7A4F6E5F0BB
:100543000826F6E43B08F6E43A08F6D0E0FBD0E0F0
:10055300FA22E4CFC0E0E4CEC0E0E4CDC0E0E4CCD6
:10056300C0E075F020E626F608E633F608E633F633
:1005730008E633F6181818EC33FCED33FDEE33FEC2
:10058300EF33FFC3EC9709ED9709EE9709EF97193E
:100593001919400FFFEC97FC09ED97FD09EE97FE43
:1005A300191906D5F0BFECF709EDF709EEF709EFD6
:1005B300F7191919D0E0FCD0E0FDD0E0FED0E0FF40
:1005C300222518C582C0E0E51934FFC583C0E0E5E4
:1005D30018C3958224F810AF088583198582188083
:1005E30008858319858218D2AFCEF0A3E520F0A346
:1005F3007808E608F0A3DEFAEFF0A3E58124FAF821
:10060300E608F0A3E608F0A3E608F0A30808E60866
:10061300F0A3E608F0A315811581D0E0FED0E0F841
:10062300158115811581E8C0E0EEC0E022120D2A84
:10063300B90003020682E49003017837791280023D
:10064300F0A3D8FCD9FA781A9000867A01BA00028E
:100653008007E493A3F608DAF97A377B14900087CE
:10066300786879028015E493A3AD82AE838A828B86
:1006730083F0A3AA82AB838D828E83D8E9D9E775F1
:1006830082147583DE7405120A4175820A75832705
:100693007400120A41C0D02518C582C0E0E51934A0
:1006A300FFC583C0E0E518C3958224F310AF088526
:1006B30083198582188008858319858218D2AFC86B
:1006C300F0A3E9F0A3EAF0A3EBF0A37908E709F0BC
:1006D300A3D8FAECF0A3EDF0A3EEF0A3EFF0A3D0D0
:1006E300E0F0A3D0E0F0A3D0E0F0A3E520F0A3E591
:1006F300F0F0A322851983851882E0C0E0A3E0F916
:10070300A3E0FAA3E0FBA37808E0F608A3DFFAE08E
:10071300FCA3E0FDA3E0FEA3E0FFA3E0C0E0A3E0B1
:10072300C0E0A3E0F5D0A3E0F520A3E0A3F5F0102B
:10073300AF088583198582188008858319858218F7
:10074300D2AFD082D083D0E0F8D0E0321E75F01063
:100753008E218F228582268583258518828519839C
:10076300E0CEA3E0CF852682852583EBC9EAC8EDD9
:10077300CBECCAC3E833C8E933C9EA33CAEB33CB9A
:10078300C3EA9EF524EB9FF523B35004AB23AA24BD
:10079300EC33CCED33CDD5F0DAAE21AF2222D083CA
:1007A300D082ECC0E0EDC0E0E493A3FCE493A3FDAE
:1007B300ED4C600D120879EC24FFFCED34FFFD8055
:1007C300EFE493A3FCE493A3FDED4C600D12094CFD
:1007D300EC24FFFCED34FFFD80EFD0E0FDD0E0FC26
:1007E300E493A3C0E0E493C0E022D083D082E9C0C5
:1007F300E0E493A3C386F0C5F095F0F908E493A36E
:1008030086F0C5F095F0700BE493A3C3994005E916
:10081300048002A3E475F002A42582F582E5F03595
:1008230083F583D0E0F9E493A3C0E0E493C0E0222E
:10083300851983851882E0A3FEE0A3F5207808E0FC
:10084300A3F608DFFAE0A3FFE0A3C0E0E0A3C0E063
:10085300E0A3C0E0E0A3C0E0E0A3C0E010AF0885E0
:1008630082188583198008858218858319D2AFD0B1
:1008730083D082020A47C0E0C3E4939608740193CD
:100883009618400FE4936670080874019366187015
:10089300007019A3A3C3E49396087401939618A355
:1008A300A3400DD0E0D0E0D0E00207DDA3A3A3A3D3
:1008B300A3A3D0E022D083D082C5F0E493A3C5F0F4
:1008C300C395F0F5F0E493A3C395F04005E5F00478
:1008D3008001E475F002A42582F582E5F03583F505
:1008E30083E493A3C0E0E493C0E02274048004741F
:1008F300028000CCC0E0EDC0E0E518C39CCCAD198C
:1009030050011D10AF068C188D1980068C188D1997
:10091300D2AF1209C3D0E0FDD0E0FC227402800004
:10092300CCC0E0EDC0E0E518C39CCCAD1950011D6F
:1009330010AF068C188D1980068C188D19D2AF1242
:1009430009A1D0E0FDD0E0FC22C0E0C0F088F0E4D3
:10095300936670080874019366187000A8F0A3A347
:10096300700BD0F0D0E0D0E0D0E00207DDA3A3D03D
:10097300F0D0E022D083D082CCC0E0E493A3600621
:10098300120A031470FAE493A36006120B46147060
:10099300FAD0E0FCE493A3C0E0E493C0E022CAC031
:1009A300E0E493A3C582CCC582C583CDC583F0A300
:1009B300C582CCC582C583CDC583DAE5D0E0CA2222
:1009C300CAC0E0E0A3C582CCC582C583CDC583F090
:1009D300A3C582CCC582C583CDC583DAE6D0E0CA80
:1009E30022C008C3E096F50808A3E096420808A3CE
:1009F300E096420808A3E09645087001D3D0082288
:100A0300C0E0E493A3D39C5010E493A3C39C400A97
:100A1300D0E0D0E0D0E0020994A3A3A3D0E02270F9
:100A230009080808226016181818C6C333C608C672
:100A330033C608C633C608C633C6D5E0EA22C09F0C
:100A4300F59FE473D09F22D083D082C09FE493C0EC
:100A5300E0740193C0E0740293F59F22C0E0C0D01C
:100A6300E8C0E0A8A8D2AFC2C7751A00E8A2E7920F
:100A7300AFD0E0F8D0D0D0E0322518F58210AF081F
:100A8300F518400C15198008F51840021519D2AF56
:100A9300851983227404800A740380067402800219
:100AA3007401C0E0F404120A7CD0E0120CED2200C1
:100AB300C0D0251810AF08F518500C05198008F59B
:100AC3001850020519D2AFD0D022BB0102E722C0D1
:100AD30082C08389828A83BB0003E08002E493D0CF
:100AE30083D082226016080808C6C313C618C6132B
:100AF300C618C613C618C613C6D5E0EA222518F8C9
:100B0300E43519F9222518FAE43519FB222518FCD6
:100B1300E43519FD22C3E0C696F608A3E0C696F6AF
:100B230008A3E0C696F608A3E0C696F62225181099
:100B3300AF08F518400C15198008F518400215196F
:100B4300D2AF22C0E0E493A36C7009D0E0D0E0D030
:100B5300E0020994A3A3D0E022E066701008A3E0AA
:100B630066700A08A3E066700408A3E06622E766DD
:100B730070100809E766700A0809E7667004080937
:100B8300E76622C3E09608A3E09608A3E09608A3CD
:100B9300E096A2D265D03322C3E096F008A3E09694
:100BA300F008A3E096F008A3E096F022C3E697F6D8
:100BB3000809E697F60809E697F60809E697F62284
:100BC300C3E4939608740193960874029396087489
:100BD30003939622E647F60809E647F60809E6472F
:100BE300F60809E647F622700422600D18C6C333DF
:100BF300C608C633C6D5E0F41822E026F008A3E001
:100C030036F008A3E036F008A3E036F022E026F63B
:100C130008A3E036F608A3E036F608A3E036F6228A
:100C2300E657F60809E657F60809E657F60809E60F
:100C330057F622E627F60809E637F60809E637F6F7
:100C43000809E637F622E056F008A3E056F008A3B9
:100C5300E056F008A3E056F022E056F608A3E0566B
:100C6300F608A3E056F608A3E056F622E4C396F688
:100C730008E496F608E496F608E496F622C6F4C667
:100C830008C6F4C608C6F4C608C6F4C622C3E79667
:100C93000809E7960809E7960809E79622C3E0964C
:100CA30008A3E09608A3E09608A3E0962275D00077
:100CB30075813F75180175190300020630E6F008C7
:100CC300A3E6F008A3E6F008A3E6F022600C08C64A
:100CD300C313C618C613C6D5E0F422E0F608A3E092
:100CE300F608A3E0F608A3E0F622CAC0E0E6F0A304
:100CF30008DAFAD0E0FA22E8F0A3E9F0A3EAF0A3D5
:100D0300EBF022E0F8A3E0F9A3E0FAA3E0FB22EA88
:100D1300F0A3EBF0A3ECF0A3EDF022E0FAA3E0FBE9
:100D2300A3E0FCA3E0FD22E5C754F84401F5C7792D
:100D330001222518F582E43519F58322C2AF75D651
:100D43009F02000022120A4A6AC205120A4AE6C238
:100D530005120A4ABAC405120A4AFCC505120A4A10
:100D630053C605120A4A58E602120A4A84E60212D8
:100D73000A4AC8E602120A4A49E702120A4A3EE947
:100D830002120A4A62E902120A4A6DE902120A4A87
:100D930080E902120A4AC2E902120A4A16EA021258
:100DA3000A4A71EA02120A4A97EA02120A4AEBED68
:100DB30002120A4AF7ED02120A4AFCED02120A4A2B
:100DC300B2EE02120A4A15EF02120A4A3EF002126A
:100DD3000A4A9BF002120A4AF0F002120A4A55F13B
:100DE30002120A4A1CF202120A4A5DF202120A4A6B
:100DF300CAF202120A4A2FF302120A4A3FF50212FA
:100E03000A4A40F802120A4AE6F802120A4A25F987
:100E130002120A4A3BF902120A4A11FA02120A4A58
:100E230053FA02120A4AFFFB02120A4A6CFC02122C
:100E33000A4A76FC02120A4A09EF04120A4A81EFAF
:100E430004120A4A36F004120A4ADBF204120A4A6E
:100E5300AAF304120A4A94F404120A4A32F5041259
:100E63000A4A46F504120A4AB0F504120A4ABAF5C8
:100E730004120A4A57F604120A4A15F704120A4AD8
:100E8300A3F804120A4ABDF804120A4AF5F8041238
:100E93000A4A008004120A4A2B8004120A4A40803C
:100EA30004120A4A738004120A4A928004120A4AFC
:100EB300D38004120A4A668104120A4A2582041264
:100EC3000A4A9C8404120A4A428504120A4A6F851C
:100ED30004120A4AC08504120A4A6C8604120A4A9A
:100EE300CF8604120A4A138704120A4AC0870412DF
:100EF3000A4A2D8804120A4A608804120A4A6E8933
:100F030004120A4A928904120A4AF68904120A4A06
:100F1300CE8A04120A4AD38C04120A4A758D04122B
:100F23000A4AFF8F04120A4A839004120A4A129350
:100F330004120A4A6D9304120A4A779304120A4A66
:100F4300BD9304120A4ACEBD04120A4A4ABE0412D1
:100F53000A4A7DBE04120A4AABBE04120A4AEEC014
:100F630004120A4A0DC104120A4A52C104120A4A5F
:100F7300E8C104120A4A34C204120A4AC6C204125D
:100F83000A4A9EC304120A4AEFC304120A4A54C40B
:100F930004120A4AD1C404120A4A07C504120A4AAF
:100FA30052C504120A4A78C504120A4A08C6041232
:100FB3000A4A9FC604120A4AEBC604120A4A1CC70D
:100FC30004120A4A53C704120A4ADBC804120A4A23
:100FD300A5C904120A4A7FCA04120A4AC0FF0212B0
:100FE3000A4AD1FF02120A4AE9FF02120A4AF1FF32
:100FF30004120A4ADEFF04120A4AF4E505120A4AF9
:1010030004E605120A4A13E605120A4AA4E6051283
:101013000A4AFFE305120A4A82E405120A4AE8E48F
:1010230005120A4AFCFF01120A4AF8FF02120A4A91
:10103300FBFF02120A4AF87F00120A4A13DC051268
:101043000A4A4BDC05120A4A8DDD05120A4A11DEF3
:1010530005120A4AFAFF01120A4ADAE905120A4A94
:10106300A4AF05120A4AD0AF05120A4A41B20512CB
:101073000A4A81B205120A4AC1B205120A4AD5B216
:1010830005120A4AEEB205120A4ADFB305120A4AEA
:1010930084B405120A4A98B405120A4A0EE00512EE
:1010A3000A4A32E005120A4A4BE005120A4A7DE079
:1010B30005120A4AADE005120A4ADAE005120A4AA5
:1010C300E4E005120A4A46E105120A4A55E105120F
:1010D3000A4A5FE105120A4A6CE105120A4A70D214
:1010E30005120A4A90D205120A4ACFD205120A4AB9
:1010F300EAD205120A4A09D305120A4A6FD3051226
:101103000A4A78D305120A4AD5D305120A4AE4D308
:1011130005120A4A08D405120A4AC9D405120A4A12
:10112300D6D405120A4AE7D405120A4A72EA05120E
:101133000A4A8AEA05120A4AB6EA05120A4AEEB4CC
:1011430005120A4A48B605120A4A56B605120A4A51
:1011530069B605120A4A7EB605120A4A93B6051203
:101163000A4AA6B605120A4A1AB705120A4A7FB7EF
:1011730005120A4A07B805120A4A83B805120A4A31
:1011830047B905120A4A57B905120A4A66B9051240
:101193000A4A04E805120A4A28E805120A4A50E8EE
:1011A30005120A4A78E805120A4A8CD705120A4A38
:1011B300B3D705120A4AD1D705120A4A44D80512F1
:1011C3000A4A9DCF05120A4AB6CF05120A4AC2CF70
:1011D30005120A4AD6CF05120A4AF4CF05120A4A63
:1011E300FECF05120A4A08D005120A4A1BD005127F
:1011F3000A4AA1D005120A4A16D105120A4A45D154
:1012030005120A4A93D105120A4AE2D105120A4A83
:10121300FDD105120A4A07D205120A4A18D205124D
:101223000A4A5BD205120A4A24E905120A4A6FE9FF
:1012330005120A4A008005120A4A2A8005120A4A40
:10124300478005120A4A5A8005120A4A708005121D
:101253000A4ACE8005120A4A068105120A4AFA840E
:1012630005120A4A3F8605120A4A728605120A4A7D
:10127300D58605120A4A358805120A4A5D88051281
:101283000A4A728805120A4A828805120A4AC688DF
:1012930005120A4A218905120A4A318905120A4AA6
:1012A300CFE205120A4AE9E205120A4A11E30512DE
:1012B3000A4A2AE305120A4A4EE305120A4A6CE374
:1012C30005120A4A83E305120A4AB1E305120A4AE0
:1012D300CCE305120A4AAAE605120A4AEEE605120B
:1012E3000A4A56C605120A4A66C605120A4A6BC757
:1012F30005120A4A9DC705120A4ACDC705120A4AB2
:10130300F0C705120A4A07C805120A4A41C805125E
:101313000A4AA6C805120A4AE8C805120A4A27C992
:1013230005120A4A58C905120A4A83C905120A4A0C
:1013330076E105120A4A8BE105120A4A9FE2051279
:101343000A4AA2E205120A4AD3FE04120A4A09FF14
:1013530004120A4A1FFF04120A4A61FF04120A4ACE
:1013630078FF04120A4ABCFF04120A4AC6FF041299
:101373000A4A9EA105120A4AD8A105120A4A41A2A5
:1013830005120A4A5EA205120A4A00A305120A4A76
:1013930009A305120A4A4EA305120A4A77A30512A6
:1013A3000A4A84A305120A4AF5A305120A4A80A42D
:1013B30005120A4ACEA405120A4A0CA505120A4AC6
:1013C30071A505120A4A94A505120A4A0BA605122D
:1013D3000A4A62A605120A4A9DA605120A4AD2A61D
:1013E30005120A4AE4A605120A4AF6A605120A4A93
:1013F30015A705120A4A2EA705120A4AEEA70512D7
:101403000A4A3AA805120A4A78A805120A4A7BE949
:1014130005120A4A5DFD01120A4A9DFE01120A4A9B
:10142300BDFE01120A4ADDD905120A4A13DA051272
:101433000A4A5BDA05120A4AB4DB05120A4A006C4F
:1014430000120A4A246D00120A4A5E6D00120A4A0B
:10145300086F00120A4A326F00120A4AA77100127B
:101463000A4AE77100120A4A7D7300120A4A1A7483
:1014730000120A4A6C7400120A4A0F7500120A4AD3
:10148300477500120A4A897500120A4AF876001253
:101493000A4A467800120A4A777A00120A4AA57A5B
:1014A30000120A4ACC7A00120A4AD57A00120A4A72
:1014B3002C7B00120A4ABE7B00120A4AEB7E001202
:1014C3000A4A6E7F00120A4A5CE705120A4A74E769
:1014D30005120A4A7EE705120A4AD2E705120A4AAA
:1014E3009FB905120A4AB5B905120A4A56BA051236
:1014F3000A4A95BA05120A4AB2BA05120A4AE3BA67
:1015030005120A4A30BB05120A4A63BB05120A4A8E
:101513009EBB05120A4A99BD05120A4A01BE05126D
:101523000A4AFFFE03120A4A5EFF03120A4A9CFF9D
:1015330003120A4ADDFF03120A4A0D9A05120A4AE8
:10154300239A05120A4AB89A05120A4AE89B051219
:101553000A4AAE9C05120A4A4B9D05120A4AB09DDF
:1015630005120A4AC09D05120A4AE79D05120A4A56
:101573003A9E05120A4AAB9F05120A4AB09F05120A
:101583000A4AD09F05120A4A008002120A4A0C80B6
:1015930002120A4A758002120A4A7F8002120A4A1C
:1015A3000C8102120A4A488102120A4A2B82021251
:1015B3000A4A898202120A4AD68202120A4A5383CB
:1015C30002120A4AA98302120A4A268402120A4A0A
:1015D300058602120A4AD08702120A4AC1880212F9
:1015E3000A4A168B02120A4A708C02120A4A078DA3
:1015F30002120A4A468E02120A4A448F02120A4A09
:10160300A89002120A4A7B9502120A4A63960212B2
:101613000A4AF69602120A4A1B9702120A4A40978E
:1016230002120A4ADA9702120A4AF09702120A4A87
:10163300129802120A4A839802120A4AA2980212C4
:101643000A4ACB9802120A4ACB9902120A4ACF9A43
:1016530002120A4A639C02120A4A849C02120A4A30
:101663002A9D02120A4A729D02120A4AD69D02124A
:101673000A4A639E02120A4AC79E02120A4A319F0D
:1016830002120A4ACF9F02120A4A3BA002120A4AD6
:101693006EA002120A4AD6A002120A4A2FA202120E
:1016A3000A4AC1A302120A4A68A402120A4AC7A636
:1016B30002120A4A14A702120A4A24A702120A4A69
:1016C30073A702120A4AE5A702120A4A15A80212D0
:1016D3000A4A83A802120A4A2EA902120A4A20AB16
:1016E30002120A4AAEAD02120A4AB4AE02120A4A02
:1016F300BAB202120A4A7FB302120A4AA1B4021210
:101703000A4A3EB602120A4AD2E501120A4A60E6C2
:1017130001120A4A0BE701120A4A89EA01120A4A2C
:101723004CEB01120A4AFCEB01120A4A77EC011254
:101733000A4AFCEC01120A4A0AEE01120A4AECEECA
:1017430001120A4A67EF01120A4A00F101120A4A1A
:1017530057F201120A4A30F301120A4A43F4011202
:101763000A4A73F501120A4A89F601120A4A10F766
:1017730001120A4A3DF801120A4A27FA01120A4ADB
:10178300CEFA01120A4ADBFB01120A4ABCCC05124B
:101793000A4A76CD05120A4AC2CD05120A4A32CF49
:1017A30005120A4A3BCF05120A4A90CF05120A4A8C
:1017B300BB7F00120A4A45C703120A4AD4C7031261
:1017C3000A4A4AC803120A4A29C903120A4A24CAFE
:1017D30003120A4AA1CA03120A4ADFCB03120A4AB6
:1017E3007ACC03120A4A51CE03120A4A40CF03129B
:1017F3000A4A8CCF03120A4A6ED003120A4AB1D1A5
:1018030003120A4A53D203120A4A85D503120A4A1B
:1018130081D703120A4A0BD803120A4A63D8031268
:101823000A4AB1D803120A4A2CD903120A4AB0D978
:1018330003120A4AECD903120A4A6AE003120A4A5B
:10184300BBE203120A4A92E303120A4A9295041274
:101853000A4AC19504120A4A399604120A4A3C9765
:1018630004120A4A989704120A4A199904120A4A56
:10187300359904120A4A879904120A4AC499041230
:101883000A4AD79904120A4A299A04120A4AD09A90
:1018930004120A4A3D9B04120A4A679B04120A4A2D
:1018A3009F9B04120A4A7F9D04120A4A589E0412FF
:1018B3000A4AA19F04120A4ACD9F04120A4AA0A011
:1018C30004120A4A28A104120A4A69A104120A4A04
:1018D30083A104120A4ACAA104120A4AEAA1041201
:1018E3000A4A84A204120A4A13A304120A4A6DA3E1
:1018F30004120A4ABEA304120A4A3AA604120A4A66
:1019030061A704120A4A9DA704120A4A8FA8041267
:101913000A4AB7A804120A4ABAA804120A4AC4A86F
:1019230004120A4AD7A804120A4A60A904120A4AEE
:1019330096A904120A4AA9A904120A4AD5A90412AB
:101943000A4AFCA904120A4A20AA04120A4ABDAA96
:1019530004120A4ACBAA04120A4AFEAA04120A4A29
:101963009DE805120A4AA9E805120A4A8DFE0412E7
:101973000A4AF4FF04120A4AA4A805120A4AF3A861
:1019830005120A4A93AA05120A4A4EAC05120A4ADC
:1019930090AC05120A4A79AD05120A4A83AE0512C4
:1019A3000A4AA5AE05120A4AEFAE05120A4A70AFFB
:1019B30005120A4A2AA703120A4A4DA703120A4A22
:1019C300ACA803120A4AF5A803120A4A4FA9031244
:1019D3000A4A3FEA05120A4A4DAB03120A4A99AB77
:1019E30003120A4A13AC03120A4A99AC03120A4AB5
:1019F3009CAC03120A4A28AD03120A4A6BAD0312C8
:101A03000A4A9EB103120A4A3BB303120A4A88B335
:101A130003120A4AE0B603120A4A64B703120A4AD7
:101A230032B803120A4A60B903120A4AEFBA031220
:101A33000A4A7ABB03120A4A74BC03120A4AC9BD92
:101A430003120A4AC0BE03120A4A12BF03120A4A09
:101A5300A1BF03120A4AE6BF03120A4A04C10312D2
:101A63000A4A66C203120A4A44C303120A4AC5C495
:101A730003120A4A28C603120A4A9DC603120A4AD7
:101A830014AB04120A4AC5AB04120A4A33AC04125B
:101A93000A4A4CAC04120A4AD1AC04120A4A26ADD3
:101AA30004120A4A6AAD04120A4AC9AD04120A4A68
:101AB30034AF04120A4A6BB004120A4AE4B00412A7
:101AC3000A4AE9B204120A4A91B304120A4A3BB41D
:101AD30004120A4AC7B404120A4A3EB604120A4A56
:101AE30032B804120A4AA1B904120A4AC0BA04124B
:101AF3000A4A60BB04120A4A8FBC04120A4A87E4EA
:101B030003120A4AFBE403120A4A43E503120A4A90
:101B130081E503120A4ACAE503120A4A14E60312CC
:101B23000A4A4CE603120A4ACAE603120A4A24E79F
:101B330003120A4A80E803120A4A11E903120A4A05
:101B43006FE903120A4A89E903120A4AAAE903124E
:101B53000A4A02EA03120A4A73EC03120A4A92EC93
:101B630003120A4A71ED03120A4A89EE03120A4A62
:101B730006EF03120A4A73EF03120A4ADCEF031259
:101B83000A4A96F003120A4A54F203120A4A55F318
:101B930003120A4ADAF403120A4AC5F603120A4A7E
:101BA30028F903120A4ACEFA03120A4A9CFB0312CB
:101BB3000A4A02FC03120A4A19FC03120A4A09FDE3
:101BC30003120A4AF5FD03120A4A62FE03120A4A85
:101BD300DBC905120A4A27CB05120A4AE4CB0512D0
:101BE3000A4A48CC05120A4AA6FC02120A4AC1FC58
:101BF30002120A4A05FD02120A4A2BFD02120A4A80
:101C030051FD02120A4A69FD02120A4ACCFD021270
:101C13000A4AE1FD02120A4AF5FE02120A4A10FFBD
:101C230002120A4A19FF02120A4A22FF02120A4A40
:101C33002BFF02120A4A3AFF02120A4A0EBE05128B
:101C43000A4AFCC105120A4A01C205120A4A03C222
:101C530005120A4A9BDE05120A4AB9EA05120A4A24
:101C6300008003120A4A338003120A4A9A8003123D
:101C73000A4A268103120A4ACB8103120A4A1382B3
:101C830003120A4A388203120A4A518203120A4A89
:101C9300778203120A4A998203120A4AD7820312ED
:101CA3000A4A268303120A4A4F8303120A4AAE835F
:101CB30003120A4A878403120A4A3D8503120A4A19
:101CC3009B8503120A4A628603120A4AB9860312E3
:101CD3000A4A248703120A4A628703120A4AB88708
:101CE30003120A4A308803120A4A878803120A4AEF
:101CF3008A8803120A4A0B8903120A4AAA89031221
:101D03000A4A128A03120A4A018B03120A4A238BD4
:101D130003120A4A868C03120A4A938C03120A4A54
:101D2300978D03120A4AA48D03120A4AAD8D03123A
:101D33000A4AA88F03120A4AC29003120A4A36912A
:101D430003120A4AA39103120A4ACF9103120A4AC1
:101D5300619203120A4A9D9203120A4A8094031263
:101D63000A4A579803120A4A6B9803120A4A7B9845
:101D730003120A4A859803120A4A8E9803120A4AE2
:101D8300979803120A4AA19803120A4AD098031299
:101D93000A4AF89803120A4A4D9903120A4A5899B3
:101DA30003120A4A7C9903120A4AA09903120A4AA7
:101DB300FD9903120A4A439A03120A4A5F9A0312CD
:101DC3000A4AD29A03120A4A099B03120A4A489BF7
:101DD30003120A4A959B03120A4A1B9C03120A4ADE
:101DE300F79D03120A4A939E03120A4A789F03122D
:101DF3000A4AEDA103120A4A40A203120A4A68A240
:101E030003120A4A92A303120A4AC8A303120A4AF4
:101E13001AA403120A4ACFA403120A4A7FA5031283
:101E23000A4AB4A503120A4A4AA603120A4ACEA6CC
:101E330003120A4AAE8A01120A4AE08A01120A4AC6
:101E4300108B01120A4AE48C01120A4AC58D011251
:101E53000A4A1D8E01120A4A608F01120A4AAC8F88
:101E630001120A4AE09201120A4AF69501120A4A3D
:101E7300409701120A4AD69701120A4AE2970112C1
:101E83000A4A229801120A4AAC9901120A4AA09AF4
:101E930001120A4ACA9A01120A4A319B01120A4ADA
:101EA3008A9B01120A4A019C01120A4A489E0112A6
:101EB3000A4ADF9F01120A4AB3A001120A4AF2A199
:101EC30001120A4A37A401120A4A08A701120A4A50
:101ED30017A701120A4A9BA701120A4A42A8011234
:101EE3000A4A85A801120A4ACEA801120A4A22A95F
:101EF30001120A4A87A901120A4AEAA901120A4AE7
:101F030006AA01120A4A38AA01120A4A77AA01123A
:101F13000A4A5CAB01120A4A0BAC01120A4A8FAEA1
:101F230001120A4AD1AF01120A4AB0B001120A4A99
:101F330030B101120A4A52B501120A4A90B5011290
:101F43000A4AEBB501120A4A1EB601120A4A9AB6A8
:101F530001120A4AB6B601120A4A51B701120A4AD5
:101F63009FB701120A4A72B801120A4A37B901121D
:101F73000A4AD5B901120A4ADEBC01120A4AF2BD65
:101F830001120A4A8FC101120A4A97C201120A4A70
:101F93009AC201120A4AC9C201120A4AC8C40112EA
:101FA3000A4AA1C501120A4AE8C501120A4A35C7FD
:101FB30001120A4A6FC701120A4A1CC801120A4ACF
:101FC30050C801120A4A02C901120A4A11CB01126E
:101FD3000A4A7CCB01120A4AC4CB01120A4A61CCD9
:101FE30001120A4A90CD01120A4A57CE01120A4A37
:101FF3004DD001120A4A61D001120A4A75D001126A
:102003000A4AABD001120A4ADBD001120A4A69D24A
:1020130001120A4A4AD301120A4ABAD301120A4ADE
:102023006AD401120A4A9AD401120A4A64D50112E7
:102033000A4A21D601120A4A2AD801120A4A69D841
:1020430001120A4AD6D801120A4A1BDA01120A4AB5
:10205300CEDA01120A4A02DB01120A4A1ADB011222
:102063000A4ABDDB01120A4AABDE01120A4A76E0D4
:1020730001120A4A9AE001120A4AB8E001120A4A16
:102083008CE101120A4AB4E501120A4A402D0012FA
:102093000A4A722D00120A4A713100120A4ABD31EE
:1020A30000120A4A033200120A4AAB3200120A4AE9
:1020B300153300120A4A5D3300120A4ABB34001278
:1020C3000A4AC03500120A4AB23900120A4A433A90
:1020D30000120A4A6B3B00120A4AC83B00120A4A22
:1020E300973D00120A4A0E3E00120A4A183E001299
:1020F3000A4A253E00120A4A503E00120A4A373F56
:1021030000120A4AF03F00120A4A734000120A4AB8
:10211300914000120A4ABA4000120A4AE7400012EC
:102123000A4A414300120A4A054400120A4A4A4431
:1021330000120A4AC14400120A4A6F4500120A4AB1
:10214300A14500120A4AE74500120A4A2346001233
:102153000A4A744600120A4AC84600120A4A5347FA
:1021630000120A4A9E4700120A4A034800120A4A0A
:102173007C4800120A4A3B4A00120A4A4A4B0012A0
:102183000A4A694C00120A4AC54F00120A4AF4521D
:1021930000120A4AAD5300120A4AF55300120A4AC2
:1021A300945500120A4AA85500120A4AB255001261
:1021B3000A4ABC5500120A4AC85500120A4AE75592
:1021C30000120A4A9D5600120A4AF65600120A4A9B
:1021D300005700120A4A0A5700120A4A7A57001295
:1021E3000A4AC15700120A4AC65800120A4A155928
:1021F30000120A4AB85900120A4A915A00120A4AAE
:10220300B15B00120A4AF35C00120A4AED5D001248
:102213000A4A055E00120A4A395E00120A4A435E00
:1022230000120A4A615E00120A4AC05E00120A4A9C
:10223300E75E00120A4A825F00120A4A41600012F6
:102243000A4AB16000120A4A296100120A4A33623B
:1022530000120A4A006300120A4A586300120A4A2B
:102263005C6400120A4AA16400120A4AFC64001268
:102273000A4A636500120A4A916500120A4AB56563
:1022830000120A4AEA6500120A4A176600120A4A4D
:102293005D6600120A4A816600120A4AEA66001263
:1022A3000A4AD26700120A4A1D6800120A4A46689F
:1022B30000120A4ADE6800120A4A566900120A4AE4
:1022C3007A6900120A4AD76900120A4AF7690012AA
:1022D3000A4AFA6900120A4A266A00120A4A1B6B62
:1022E30000120A4A86D804120A4ABED804120A4ABD
:1022F300DFD804120A4A23D904120A4A87D90412DE
:102303000A4A91D904120A4AA1D904120A4AD8D90D
:1023130004120A4AD0DD04120A4ADEDF04120A4A12
:10232300CBE104120A4A62E204120A4A04E30412E9
:102333000A4A6FB902120A4ADFB902120A4A3FBABD
:1023430002120A4A8ABA02120A4AA5BA02120A4AAF
:10235300CCBA02120A4AE9BA02120A4AF5BA0212BE
:102363000A4AA0BC02120A4AB9BC02120A4A42BD76
:1023730002120A4A55BD02120A4A74BD02120A4ADF
:102383000FBE02120A4A7FBF02120A4A26C1021274
:102393000A4AB5C102120A4AB8C102120A4A28C23D
:1023A30002120A4A46C202120A4AEBC202120A4A3D
:1023B30027C302120A4A2AC302120A4AF0C30212AC
:1023C3000A4A53C402120A4A8CC402120A4A01C5B9
:1023D30002120A4A1FC502120A4A6DC502120A4AAC
:1023E30042C602120A4A90C602120A4AD8C602120A
:1023F3000A4A65C702120A4A9AC702120A4ACFC793
:1024030002120A4ADDC702120A4A3CC802120A4AE9
:10241300B4C802120A4AF5C802120A4A45C902128E
:102423000A4A70C902120A4A8AC902120A4AA4C98C
:1024330002120A4A7FCA02120A4A89CA02120A4AC5
:10244300C4CA02120A4AD4CA02120A4ADDCA0212D2
:102453000A4A35CB02120A4A49CB02120A4A7FCCF6
:1024630002120A4A92CC02120A4AA9CC02120A4A5E
:10247300BECC02120A4A4CCD02120A4AB4CD021251
:102483000A4A67CE02120A4A72CE02120A4ABFCF22
:1024930002120A4ADBCF02120A4A27D002120A4A60
:1024A30096D002120A4ACFD002120A4AE9D0021287
:1024B3000A4A2BD102120A4AEDD302120A4AA3D4C2
:1024C30002120A4A33D502120A4A7BD702120A4A77
:1024D30093D702120A4A96D702120A4AA2D70212C5
:1024E3000A4AB6D702120A4ABED702120A4AF1D7DB
:1024F30002120A4AE4D802120A4A6FD902120A4A9D
:1025030002DA02120A4A7BDA02120A4A3FDB021299
:102513000A4A61DB02120A4AFADB02120A4A57DC50
:1025230002120A4A5ADC02120A4A87DC02120A4AD7
:102533009CDC02120A4A16DD02120A4A62DE021209
:102543000A4A6DDF02120A4AF8DF02120A4AFDE064
:1025530002120A4ABDE102120A4AEEE102120A4AD3
:1025630014E202120A4A1DE202120A4A4BE2021262
:102573000A4AE3E202120A4A98E302120A4A09E407
:1025830002120A4AB0E402120A4A37E502120A4A60
:1025930076E502120A4AB9E502120A4AF3E5021283
:1025A3000A4A5EFE04120A4ACFFB04120A4A70FA70
:1025B30004120A4A8EF904120A4A47F904120A4A13
:1025C300F98F05120A4A108C05120A4AC68A0512A7
:1025D3000A4A1E8A05120A4A998905120A4A8B89F0
:1025E30005120A4A618905120A4AFC9805120A4A29
:1025F300CD9805120A4A3F9705120A4AB395051268
:102603000A4A959405120A4A189405120A4A5A93DB
:1026130005120A4AAF9205120A4A319205120A4A72
:10262300DE9105120A4ABB9105120A4AA1D6041289
:102633000A4A28EA05120A4A28D705120A4AECD69A
:1026430005120A4A79D605120A4A15D505120A4A0D
:10265300FCEA05120A4AE5EA05120A4A7FD5041282
:102663000A4A8CD304120A4ADED104120A4A32E51A
:1026730005120A4A14D104120A4A04D004120A4A5F
:10268300D8CF04120A4A6CCF04120A4A1EE5051277
:102693000A4AE5CB04120A4AA9A903120A4A58CBEB
:1026A30004120A4ABEEE04120A4A65EE04120A4AEA
:1026B30027EE04120A4AFAED04120A4AC6ED04127E
:1026C3000A4A65ED04120A4A4DED04120A4A29ED3D
:1026D30004120A4AB0E904120A4A83E704120A4AB6
:1026E3008AE504120A4A10E504120A4ABFE40412F6
:1026F3000A4A79E404120A4A01E505120A4ADDE3AB
:1027030004120A4AE7E80500000080FBE4738F0027
:1027130001008215870001008015350004004A1569
:10272300250002004E152600020050152700020066
:102733005215280001005C15290001005D15840075
:1027430004001F128600010089142A0001005E158F
:102753002B0001005F152C00010063152D000800FC
:102763002B122E00010064152F00010065153000A7
:1027730001006615310001006715320001003312B4
:1027830033000100341234000100681536000100E3
:102793003512380001006915390001006215830004
:1027A30002007E1563000100411264000100601500
:1027B3006500010061156D000100421271000800FF
:1027C3002312660001007D15430001006E154400CD
:1027D30002006F15450001007115460002007215D5
:1027E3004700080039124800010074154B0001002E
:1027F3007515040001008115A1000100851537003E
:10280300010084158800010083153C000100361285
:102813003D0001006A1549000200761567000100BA
:1028230043124D00020078154E0001007A154F0047
:1028330002007B153E0001006D15510001003712A7
:10284300520001006B15530001006C155400010088
:1028530038120000000000000001363601010001BB
:102863000201000103010001040106060502000044
:10287300070100340801000F090401010D0100FFE5
:102883000E08000017020000190100FF1A010001E1
:102893001B0100FE1C0100081D0200001F010001B6
:1028A30020010001210200002301000F2402000087
:1028B3002601000127010008280200FF2A01000762
:1028C3002B0102402C0100002D0100012E0100010B
:1028D3002F0100FF30010B1D310800003A010008F1
:1028E3003B01000F3C0100013D0100FF3E040000DD
:1028F30042040000460400004A0400004E040000A5
:1029030052040000560400005A04000000000000B6
:102913002001AB8A000001002001AD8A0000020003
:102923002001A98A0000030042018B8800000400F3
:10293300420195880000050042019F8700000600C0
:102943004201C688000007003001AA8A0000004047
:10295300420149870000FDFF21419F8A03000000D7
:102963002103D8100300FDFF21419F8A01010000CC
:102973003005DA10010101003001DB100101020012
:1029830010012615010132001001DC100101330092
:1029930010012715010141001901DD100101420059
:1029A3001901DF10010143001901E1100101440085
:1029B3001901E3100101FDFF21419F8A0103710306
:1029C30001030103010301030103220302030103C2
:1029D30010030003000300030003000300030003CC
:1029E300420300032403060300030003040312034A
:1029F3002503230325032303040304030003000324
:102A030000034403000300032303000365032100C1
:102A130035038103000305030003000300030003E0
:102A230025032303030271023001600211027002C5
:102A33000102020202028002100261023A00410016
:102A4300630273027202620243020002130238003D
:102A5300000200020402120200020002000200024D
:102A630004020402370037003C024402000239002A
:102A73000002000265020002350281020002050223
:102A830082028302000201017101010101011101AE
:102A930001013101010101018001100161013B00CC
:102AA3001400630173017201620143010001130108
:102AB30006013D013500040112010001000100017E
:102AC300000104010401330133013C0144013201DB
:102AD300360000010001650100013500810100019C
:102AE30005018201830100010300710030016000D0
:102AF30011007000310220035004800010006100B7
:102B030000001400630073007200620043000000C1
:102B13001300060000000000040012000000000083
:102B23000000000004000400370037003C024400AA
:102B33000000000000000000650000003500810077
:102B430000000500000083000000360001000600BD
:102B530000000F0000000000000000000000000063
:102B630003FFFF00000403FFFF0000FFFF0FF4015A
:102B73000005C4040320000100000B000000000056
:102B830000000003010F000000000000000000002F
:102B93000000000000000000000000000000000032
:102BA30000000000000000009016D8169616A61527
:102BB3009C16DE169C16EA16A216A6159C16DE16A1
:102BC300A816A61500000000AE16A615000000000A
:102BD30000000000B416A615BA16F016C016A61506
:102BE300000000000000000000000000C6160217ED
:102BF300CC16A615C6160217CC16A615BA16F016CD
:102C0300D216A6150000AA1A0100AA1A0200D819A2
:102C1300028098260300DE190400E4190480EA19EF
:102C23000500F0190600FC193000141A30807A26CA
:102C330031000E1A3300201A3400261AFFFF000059
:102C430007ECFDFDFDECDCDCCCBCACAC9C9C8C7CD3
:102C53007C6C6C5C5C5C4C4C3C3C2C2C1C1C03EA7C
:102C6300F5E5D5D5C5B5A595958585757565655581
:102C7300554545353525251515050A042102CE2070
:102C830005DA2007D4200CB6200DC220FF00000077
:102C9300160F00000B150B020002220F3300000E6B
:102CA3000FD0D1D2D3D4D5D6D7D8D9DADBDCDDDE79
:102CB300DF5A6967426565416C6C69616E636530B3
:102CC300390000000403000004030001043030173E
:102CD300181921301B1D1F3000034D4C4651181A83
:102CE30025050200011916181616182303003030A3
:102CF30016181920231A1C1E30003C40423A3F3F4D
:102D0300392F47300C0E020B040B0A0708000F0281
:102D1300040201010101090200BE040AE8030000E4
:102D230001000300E8030E0004030916030A1E034F
:102D33000A0C0404080F020C05081504FF74F712AB
:102D430005C4E9901318F09012CDE4F012133090FB
:102D53001330E4F0A3F0901319F0A3F012226012E1
:102D63001336901251E4F0A3F0121C1E0247237491
:102D7300F01205C474D3120B30851882851983129F
:102D830063C354806068901318E0F91213A88A088B
:102D93008B09AE08AF09EE4F604C7C0080010CEC50
:102DA30075F003A4F8A9F0747D28F582742C39F525
:102DB30083E493F46029E493F88E828F83E0687050
:102DC300DDEC75F003A4F8747E28F582742C39F5D4
:102DD30083E493C0E0740193F583D08212270FEE4E
:102DE300FAEFFB1213961269C364800231578518F8
:102DF30082851983A3E05420602112216A8A088BFB
:102E030009AE08AF09EE4F600A1220C2EEFAEFFBDB
:102E13001213961269C364200231578518828519EB
:102E230083E0A2E050259012D2E0640F7011790084
:102E3300122098E9600990154A120D1E1220B085E0
:102E43001882851983E0640102313654207003022D
:102E5300313B7A207B00901318E0F912150AEA4BF4
:102E63004C4D701A90132C120D06E8494A4B700E04
:102E7300750801750900750A00750B00806A750CE9
:102E830000750D00750E00750F0012151C8A088B56
:102E9300098C0A8D0B90132C120D06E8494A4B60DE
:102EA3003190132C78081209E4400E750CFF750D50
:102EB300FF750EFF750F7F801985080C85090D8C32
:102EC3000E8D0F90132C780C120B187401780C12C2
:102ED3000AE7850C08850D09850E0A850F0BE508A1
:102EE30012335670030230767C0079047A007B003B
:102EF3001221408A0C8B0DAE0CAF0D022FB774025A
:102F0300120D3574FFF07403120D3574FFF0740461
:102F1300120D3574FF1266E37407120B10125DD4A1
:102F2300125EB6122188E96401706B124F4D448022
:102F3300F8A3E0F97428120D35E8F0A3E91266123C
:102F4300E0C0E0742A120D35D0E012485F540860E7
:102F5300167428120D35A3E0440112316AC0E074DF
:102F63002C120D35D0E0F012620F601212470212DC
:102F730062C7E0F87416120D35E8F0A3E4F0908A06
:102F8300011208EE7406120B10740B120B08121DBB
:102F93005C7404120AB28E828F83A3A3A3A3A3A398
:102FA300A3A3A3740612316AF91221227405120D28
:102FB300351262DBEE4F70030230767C007904EE4B
:102FC300FAEFFB1221407405120D35EAF0A3EB1260
:102FD300557BE0F50CA3E0F50DE4F50EF50F78084D
:102FE300790C120C904023EE2404F8E43FF9850891
:102FF3000C85090D88828983C3E0950CF0A3E095C5
:103003000D126AF8E84970A4800C8E828F83A3A303
:10301300A3A3E4F0A3F08E828F83A3A3A3A3A3A30C
:10302300A3A3A3A3E064018E828F83A3A3A3A3A37B
:10303300A37023E054046003022F018E828F83A3C5
:10304300A3A3A3A3A3A3A3A37406F07AB7123299ED
:103053001220AA022FAFA3A3A3A3E06003022F01B0
:103063008E828F83A3A3A3A3A3A3A3A3A37401F01B
:10307300022FAF1221107C0079017A007B0012210C
:10308300408B0DEA450D600C7A207B00901318E00D
:10309300F91213D27C0079047A007B00122140EAF2
:1030A3004B7013804D8A828B83A3A3A3A312641155
:1030B300EE98EF99400B8A828B83A3A3A3A312629A
:1030C300DB7C0079041221408B0BA90BEA4970D5F4
:1030D300C3E5089EE5099F500DC3EE9508FEEF95E5
:1030E30009FFEE4F70167A207B00901318E0F91257
:1030F30013D290132C123163A3F0802EEE2EFEEF29
:1031030033FF8E088F09E4F50AF50B7808120A9746
:103113007A207B00901318E0F91214F87404120A51
:10312300B212151C90132C120D1285188285198367
:10313300E06420FAA3E0801CA3E054046019125A4F
:1031430074120D9679019012CB125EB6121D6E1297
:1031530069C36404FB80047A007B00742D0261E47C
:10316300E4F0A3F0A3F022124864A3A3E022C082F8
:10317300C08374EA120B307C167D007900AA18AB69
:103183001912137E7408120D357402F09012C112D5
:103193005CD41231B17409120D35125CED74131243
:1031A3000D35E41259B2121C0C7416024B28E8F0C8
:1031B300A3E9F09012CB12622D2274F71205C474A6
:1031C300DA120B30EAFEEBFFEE4F602DAC18AD19AF
:1031D3001221887406120D35E0601E7417120D3526
:1031E300E0FD7401120D35E0FCEEFAEFFB790012FD
:1031F300206EE9600479A4800279007426024720D6
:1032030074F71205C4EAFEEBFF8E828F83A3A3A398
:10321300A3A3A3E0544060171261F1125EB6122219
:1032230024E960067AFF7BFF80151261F180039029
:1032330012C1125EB674FE6A700374FF6B604712AC
:1032430061F11263C3122224E98E828F83600E120E
:103253006A87124B3538F583E4F0A38003126AAC16
:10326300F07C9E7D208E828F83125EB6121C12E943
:10327300F5087015EE4F60097901EEFAEFFB1221A4
:103283001CA9080247237508CDAA081232991220F7
:10329300AAE960E080EB8E828F83126A8B240CF59F
:1032A30082E438F583E0F92274F61205C4E9FEEAF4
:1032B300FF7A0F7B00121390EA4B601F8A828B8385
:1032C300740CF0EEA3A3F0EF8A828B831244B890C0
:1032D3001318E0F912139C79008034EEF912214699
:1032E3008A088B09A808A909E8496021888289838B
:1032F300A3A3A3A3A3A3A3A3A37406126424A3A3B6
:10330300A3A3A3E0F9121E04EEF9122122791002FD
:10331300577574F41205C48A088B098C0A8D0B90B7
:1033230012D2E0640F702812335560239012CDE05F
:1033330064086005E0640470167808120A977A013D
:103343007B00901318E0F91214F87404120AB20205
:1033530035BBEA4509450A450B2274F41205C474CA
:10336300FC120B30EAFEEBFF8E828F83A3A3E0F9FE
:103373001221468A088B09EA4509700302349C8EA0
:10338300828F83A3A882A983E0C0E0EA125964D0A4
:10339300E012432364F160288E828F83A3E064CD1F
:1033A300601E8E828F83A3E0641A60148E828F83E3
:1033B300A3E064E9600A8E828F83A3E064E1703046
:1033C300790012211CE96028E5082404F50AE43594
:1033D30009F50B8508828509831234AD124309125E
:1033E3005EB6121342850A82850B831263C380780B
:1033F3008E828F83A3E0C0E07402120D35D0E012F9
:103403004B3B126AE6EE240B124A27C0E074031208
:103413000D35D0E0F0E5081266D5123A27E0AA1878
:10342300AB197005121D5680031222067402120D89
:1034330035E064E97032850882850983123BC075E3
:103443000A01780A120AA3750AE9780A120AA31272
:1034530042ED124730A3A3A3A3A3124728125EB6DB
:103463001221BE7402120AB2850882850983A3A3BE
:10347300A3A3A3A3A3A3A3E0640270128508828578
:103483000983A3A3A3A3A3A3A3A3A37406F08E8278
:103493008F83A3A3E0F91221221221109015501259
:1034A300398B1220B074040235B8A3A3A3A3A3A33A
:1034B300125DC18E828F832274F41205C4EAFEEB7F
:1034C300FF7508008E828F83A3A3A3A3A3E0603BB1
:1034D300750808125EA979FF121EDC8B0BEA450BF7
:1034E300601075082C8E828F83A3A3A3A3A3E0D2BD
:1034F300E0F08E828F83A3A3A3A3A3E0540364010C
:1035030060030235B24308110235B2EE2418124AA1
:10351300276036EE241A124A276003F470121263EE
:10352300C97003A3E06960030235B2750822807F86
:10353300EE241B125DB7EE241A124A27FAEE241961
:10354300124A27F9121DF28066125EA9122224E99B
:10355300640270037508011263C97003A3E0697004
:1035630006E508D2E1F508E50860158E828F83A38E
:10357300A3E07006E508D2E58004E508D2E6F50885
:10358300125EA9122224E964017006E508D2E0F56F
:10359300088E828F83A3A3E06015EE241D12526769
:1035A300F912220CE964016006E508C2E0F508A9F6
:1035B3000880057409120AB27F0402083374F012FA
:1035C30005C474D7120B30EAFEEBFF8E828F83A300
:1035D300A3A3A3E0601190154E1262186009901521
:1035E3004E12398B1220B07403120B108E828F830C
:1035F300A3A3A3125B86125EB4122188E9700302AF
:10360300375678017405120D35E0C39402400278F1
:10361300007407120D35E0C3940240027800740C65
:10362300120D35E064F87003A3E0F470030237561B
:10363300740C120D35E064F97003A3E0F470030217
:103643003756740C120D35E064FA7003A3E0F4707E
:1036530003023756740C120D35E064FB7003A3E0CC
:10366300F470030237567406120D35E0F99012BB5D
:10367300E0696003023756E8A2E04003023756745C
:1036830027120D35E06003023756EE24131262232E
:103693007422120D35125B90241C126223741012D3
:1036A3000D35125CED7409120D35E0601D741A12AC
:1036B3000D35E0FD7404120D35E0FC8E828F83120C
:1036C3005EB4790112206EE9703D7403120B081287
:1036D30020BCE9F50C7409120D35E0702E9012B57B
:1036E300E060287422550C642260207442550C64F7
:1036F3004270147420120D35123997600E74201223
:103703000D3512398460047ACF804AE9A2E6504D20
:103713007420120D3512526D24FD600F14600C24B9
:10372300FD600824FD600424FE70287420120D350A
:1037330012397D700E7420120D351258C1A3E06446
:103743000D601A7403120B0812223CE96401700D18
:103753000239787AD37B00121972023978EE242D5C
:10376300F582E43FF583123BB77003A3E06970224F
:103773007508007808120AA37808120AA3EE242F0A
:10378300124A27F912399D125EB61221BE74021233
:103793000AB27409120D35E0700302383A12399DEA
:1037A300125EB61222908A0E8B0FEA450F70030247
:1037B30038D17404120D35E0F88E828F83A3A3E011
:1037C30028F8A3E03400F9E8124B3539F583E0F823
:1037D3008A828B83A3A3A3E068600EE88A828B832B
:1037E300A3A3A31244B11231647904E9120D351273
:1037F3004F6EA3E02AF8A3E034008882F583A3AADE
:1038030082AB831213848A088B098C0A8D0B850E75
:1038130082850F83A3A3A3A378081209E4400302BC
:1038230039789089C17808120C10850E82850F8330
:10383300126AE2A3124C619012CDE064046008E0C6
:1038430064096003023978E50CA2E5400302390BF1
:10385300EE242F124F3EF0EE2430124A27C0E074BC
:1038630001120D35D0E0F0EE2431124A27C0E07486
:1038730002120D35D0E0F07414120D35E0640170BE
:103883002C740E120D3512431A2413124A27687032
:1038930003A3E0697017740C120D35125EB6122281
:1038A30024E9640270077414120D35E4F0EE242544
:1038B300F582E43FF5831208EE7404120B107407CB
:1038C300120B08121D5C7404120AB20239789013A9
:1038D30012E06401600302383A7420120D35123984
:1038E300977009E50CA2E6500302383A7410120DE2
:1038F30035E0F47003A3E0F4607BEEFCEFFD7403AA
:10390300120B081220C8806DA2E650697420120DB4
:1039130035125DCE7016741A120D35E064027055BF
:103923007403120B08790012220080497420120DCF
:10393300351239847014741A120D35E0640470352D
:103943007403120B081221F4802B7420120D35120C
:10395300397D700C79007403120B0812224880150C
:103963007420120D351258C1E0640C7008740312F0
:103973000B0812225474290261E41261FBE0640310
:10398300221261FBE0640722E0F508A3E0AA08FB2A
:10399300E4FCFD22125271640622EE242BF582E42C
:1039A3003F1239AB124A2022F583125DC1EE227415
:1039B300F41205C4EAFEEBFF8C088D09901233E084
:1039C300600F1263C97003A3E0697005121DE080E4
:1039D300497900125EA9121E108A828B83E5824503
:1039E30083602FA3A3A3A3A3A3E054186024E50833
:1039F300241C123A241208F2123A201208F2EE247E
:103A030018124A27F9123A2C121E227404120AB20F
:103A130080087900123A2C121DE60235BBE5082412
:103A230013F582E43509F583228E828F83A3A3A342
:103A3300A3A3A3A3A3A31239AD125CCB125EBA2234
:103A430074F71205C474F7120B30EAFEEBFF901201
:103A5300CDE06403600DE064016008E06409600385
:103A6300023B5E8E828F83A3E06003023B217C00D6
:103A73007D007A027B0012133C123B638A828B83A4
:103A83001262299012BE125CED7953121BFA901246
:103A9300CDE0640960099012CB125EB612228A85CA
:103AA300188285198374011259B27942121BFA9054
:103AB30012CD7404F07401120B08794A121BF474CA
:103AC30001120B107AC37B12121534901122E06499
:103AD3000B70057406F0800B79009012CB125EB662
:103AE300121D6E9012BE125DBD7A037B0012133C51
:103AF3009012C1125DBD7A047B0012133C9012B880
:103B0300E0A2E35004D2F08002C2F01259A8795225
:103B1300121BFA90154A120D1E1220B0803AFC7D3A
:103B2300007A037B1012133C901122E0640B7003A4
:103B3300740AF0901237E4F0FA7B40901318E0F91E
:103B43001215048E828F83A3E0F99012CB125EB616
:103B5300121D6E9012CDE4F01220F2740902472078
:103B6300EE2402FAE43FFB22C082C083901251127A
:103B7300621870179012CDE024FB60051460078073
:103B83000A9012578020901259801BE849600890D0
:103B93001252123D8F700C8A828B83A3E0F9121D9F
:103BA30062800E90134712621860061258C21227E1
:103BB3000F0253EE12622D9012CBE0682212622D97
:103BC300E8FAE9FB2274F51205C474D8120B308AA3
:103BD300088B098A828B83A3A3A3A3A3A3A3A3E034
:103BE300C3940F5003023D8A8A828B83A3A3A3123B
:103BF30062DB7415120B108A828B83A3A3A3A3A386
:103C0300A3A3A3E0F98A828B83125EAD1220FE7414
:103C130015120D35E0702E850882850983A3A3A3B1
:103C2300A3A3A3A3A3E0C3940B401A8E828F83A301
:103C3300A3A3A3A3A3A3A3E064027009EE240B121E
:103C43004A27F46003023D8A7417120D35E06007BA
:103C530064026003023D8A9012CDE06402601AE0C0
:103C6300640660159012511262187003023D8A12A5
:103C73003D8F6003023D8A803290125112621870A8
:103C83002A7508007808120AA37808120AA3EE24FA
:103C930010F582E43FF583125B87A3A3A31234AD2F
:103CA300125EB61221BE7402120AB28E828F831282
:103CB3005CD4E8F0A3E912432C1262297402120DBA
:103CC30035125B90124F4EC0E07404120D35D0E0F4
:103CD300F0EE240B126416740F7808120CCF7405DF
:103CE300120D35E508F07419120D35E0C0E07406C5
:103CF300120D35D0E0F0741B120D35E0C0E07407EF
:103D0300120D35D0E0F07416120D35E0C0E07409E1
:103D1300120D35D0E0F07417120D35E0C0E07408D1
:103D2300120D35D0E0F0EE2410124A27C0E0740AD9
:103D3300120D35D0E0F0741A120D35E0C0E0740BAB
:103D4300120D35D0E0F07427120D35E0C0E0740C8D
:103D5300120D35D0E0F0741C120D35A982AA8389A7
:103D6300088A09750A007808120A9B7C087D00748A
:103D730010120D35AA82AB831213727403120AB2A6
:103D8300AA18AB19121D687428024874E0C8125DA2
:103D9300AD64012274F21205C474F8120B308A0A5E
:103DA3008B0B8C0C8D0D8908908923AC18AD19747D
:103DB300081209C3C200AC0AAD0BAA18AB1912153D
:103DC3002EE97002D2009013198014AC0AAD0BEEE9
:103DD300240BFAE43FFB12152EE9701B124A0D1255
:103DE300466C601EA20040E38E828F83E0650C70F8
:103DF30004A3E0650D70E58E828F83A3A3E06508BD
:103E030070DAEEFAEFFB7408024339C082C0839084
:103E130013190253EBC082C083901319E4F0A30279
:103E2300408874F71205C49013191269C9800FEA08
:103E33002414F582E41262D8121438EEFAEFFBEA86
:103E43004B70EC901319E4F0A3F002472374F212C1
:103E530005C48A0C8B0DECFEEDFF890B8A828B83E4
:103E630012596FF0A3A882A9838A828B83123F1908
:103E73001244ACA3E0C454F0FA88828983E04A1266
:103E83004F92850C828B83A3A3123F19123F2CE020
:103E9300333354FC123F20E033333354F8123F20C2
:103EA300A3E0A2E0E4331313FA88828983E04AF0A3
:103EB300EE2403FE50010FE50C2407F508E4350D4D
:103EC300F509750A007808120A9B7C087D00EEFA52
:103ED300EFFB1213727403120AB2EE2408FE5001B0
:103EE3000FE50C240FF508E4350DF5097808120ADF
:103EF3009B7C037D00EEFAEFFB1213727403120A2C
:103F0300B2E50BC3940F400BE50C124B2F350D128A
:103F1300553AF002433CA3E08882898322FA8882DF
:103F23008983E04A123F2CA322F0850C828B83A362
:103F3300A3A3A32274F21205C4EAFEEBFF8C0C8D3B
:103F43000D8E828F83E08C828D83125570A882A997
:103F530083E0540F8C828D83124322C41253911237
:103F63004F88125399124320A2E2E4338C828D834B
:103F730012431F131313541F12539112431FA2E72B
:103F8300E4338C828D83A3A3A3A3A3A3F0EE240322
:103F9300FE50010F8E088F09750A007808120A9BDC
:103FA3007C087D00E50C2407FAE4350DFB1213723F
:103FB3007403120AB2EE2408FE50010F8E088F0913
:103FC3007808120A9B7C037D00E50C240FFAE43584
:103FD3000DFB1213727403120AB28E828F83A3A392
:103FE300A3E0C0E0126B00D0E0F002433C74F61291
:103FF30005C4EAFEEBFF8E828F83A3858208858347
:1040030009E0F9121D86850882850983E064EB6067
:104013001E8E828F83A3E064E160148E828F83A35C
:10402300E064F1600A8E828F83A3E0641A70078EC6
:10403300828F83A3E4F090154A120D1E1220B075EF
:1040430008017808120AA38E828F83A3E0F508780B
:1040530008120AA379009012CB125DBD9012C1120F
:104063005EB61221BE7402120AB2122110025775F3
:10407300C082C083E990132B7003E4800274018033
:1040830004EAF0A3EBF00253EEE0F90253EE74F608
:104093001205C490132BE0701B7C0079017A007B1E
:1040A30000122140EA4B600C8A828B8312621860F3
:1040B300031220A4025775C082C083790412213AE7
:1040C300E9F8902D3BE493C398401079FF12213A0D
:1040D300E9F8902D3AE493C398500479018002796A
:1040E300000253EE74F21205C48A0A8B0B8909C2CB
:1040F300008A828B83A3A3A3A3A3A3A3A3E0F912A0
:1041030021468A0C8B0DAE0CAF0D750801EE4F6086
:10411300030241D0850A82850B83A3A3A3A3A3A390
:10412300125DBD850A82850B83A3A3A3A3A3A3A3C7
:10413300124309125EB612212E8A0C8B0DAE0CAF00
:104143000DEE4F70030242E68E828F83A3A3A3A3D7
:10415300E4F0A3F0E50A240CFAE4350BFB8A828B26
:1041630083E0C0E01242EDD0E0F0E50A240D1243F3
:1041730013240D125CE712222AEE240F1263BDE50D
:104183000A24111243132411125CE7E50A241312C3
:104193006408C0E0124A1BD0E0F0D200EE240612FD
:1041A3004F351243001243235404600302423E90EE
:1041B300155CE0F50A750B007407780A120BEA8E9A
:1041C300828F83A3A3A3A3A3A31242F7F08E828FAC
:1041D30083A3A3A3A3A3A3E0F50AA3E0F50B7407AA
:1041E300780A120CCFE50A5407FCE509605C8E825D
:1041F3008F83A3A3A3A3A3A3A3A3A374021255759D
:104203001245E0600B9012B9124FBBA3A3125CEDF1
:10421300EC70030242B1EE2406126A69124300F005
:10422300EC24FFF50AE434FFF50B7407780A120B4C
:10423300EA8A828B831242F7F080738E828F83A384
:10424300A3A3A3A3A3E044808082EC7005750800B8
:10425300805C8E828F83A3A3A3A3A3A3E0542060D7
:104263000C12138AEA547F7900245F80198E828F9F
:1042730083A3A3A3A3A3A3E05410601A12138AEA8F
:10428300540F7900240A5001098E828F83A3A3A3BC
:10429300A3F0A3E9800D8E828F83A3A3A3A374014C
:1042A300F0A3E412432C74041245641213D2A20047
:1042B30050348E828F831234AFA3A3A3A3A3A3A3EB
:1042C300A3A3E0F9EEFAEFFB122134E960181262BE
:1042D3000F6009124702125EB6121438EEFAEFFBB2
:1042E300121438750800A908804FEE240CF582E4F7
:1042F3003FF58322E0450AF0A3E0450B22E0547F1B
:10430300F0A3E054FC22A3E0F9850A82850B832203
:10431300F582E4350BF58312622DEE22A3A3A3A34A
:104323001243272212642FE02212433022124868DC
:10433300A3A3A3227403120AB27F0602083374F400
:104343001205C474F7120B307E00122146EA4B703B
:10435300030244008A828B83A3A3A3A3A3A3A3A3DF
:10436300A3E0640660030244008A828B83A3A3A3B1
:10437300A3A3A3A3E0FF8A828B83126A91E0C0E028
:104383007408120D35D0E0124746125CD9125CED69
:10439300122158EF54086063851882851983125DD2
:1043A300BD7A007B001221288B0BEA450B704C125F
:1043B3006B0C121C2A7C007D007A007B0080288E07
:1043C300828F8312526DF47003A3E0F4602D901278
:1043D300CB1234B3125EB6121C24E9641A601C7C3F
:1043E300007D00EEFAEFFB1221288A0A8B0BAE0A3E
:1043F300AF0BEE4F70C97900121C307E01EEF9024B
:1044030035B6C082C0838A828B83E5824583700977
:1044130090133080068A828B83A3A31246146020F4
:104423008A828B83A3A3A3A3A3A3A3E0540860E579
:10443300EC4D601012461A7003A3E06D70D7800430
:104443007A007B000253EE74F21205C48A088B09CA
:10445300890AECFEEDFF7A147B00121432EA4B60FA
:104463003B8A828B83A3A3A3A3A3A3A3A3A3E41243
:10447300473BA3E50A1263EAA3A3A3EEF0A3EF125B
:1044830044B112474D1244B88A828B83126AE6EA1A
:10449300240F1244A21244ABA3F0A3F002433CF551
:1044A30082E43BF583E4F022A3126AC9A3221263D8
:1044B300FAE4F0A322A3F01262D11244A52274F508
:1044C3001205C4EAFEEBFF890A8C088D09EE4F70D2
:1044D3000302455F7401650A7012790112213AE9FA
:1044E300F8902D3CE493C398502280167404650A17
:1044F3007014790412213AE9F8902D3BE493C398A0
:10450300500A791180587402650A70508E828F8325
:10451300A3A3A3A3A3A3A3A3A3E50A125575126A96
:10452300E28E828F83A3A3E4F0A3F0901330126290
:10453300186018800312622988828983A3A3124614
:104543001488828983A3A370EC8003901330EEF068
:10455300A3EF1245641213D27900800279C1024895
:1045630077F07A207B00901318E0F922C082C08391
:10457300E9F87900901330801D8A828B83A3A3A36B
:10458300A3A3A3A3A3A3E068600574FF6870010954
:104593008A828B83A3A312461470DE0253EE74F750
:1045A3001205C4EA4B700590133080068A828B8310
:1045B300A3A3124614601F8A828B83A3A3A3A3A37E
:1045C300A3A3A3A3E06970E4EC600F8A828B831238
:1045D30045E070D880047A007B00024723126AB555
:1045E300E0540422C082C08390133080068A828BF9
:1045F30083A3A312461460128A828B83A3A3A3A36B
:10460300A3A3A3A3E06970E580047A007B000253AF
:10461300EE125EBAEA4B228A828B831252716C22AB
:1046230074F21205C48A0A8B0B8C0C8D0D7508006D
:10463300750900EA450B602A90133080068E828F3D
:1046430083A3A312466C601AAC0CAD0DEEFAEFFB1C
:10465300850A82850B8312270FE9640170DF8E08B8
:104663008F09AA08AB0902433CE0FEA3E0FFEE4F2B
:104673002274F71205C49013301262297C007D0066
:10468300800DE8FCE9FD88828983A3A3126229E8EF
:10469300496030EA687002EB6970E7901330125E8C
:1046A300B6E86A7002E96B88828983A3A370081253
:1046B300622990133080091262298C828D83A3A30F
:1046C300125CED805B74F71205C4EAFEEBFFEE4F5C
:1046D300602B122152124710125EB61214388E82CA
:1046E3008F83125EB612143812620F6009124702EA
:1046F300125EB6121438EEFAEFFB1214388021EE74
:1047030012470722240FF582E43FF583228E828F1E
:1047130083E0F8A3E0C8125DE738F58322120AB2FA
:104723007F01020833125DC18A828B8322E0F98AFA
:10473300828B83A3A3A3A32212473F221263FEA368
:10474300A3A322126AC91252712212473FA3A322C2
:1047530074F61205C49013301262DB80308E828FA0
:1047630083A3A312641C124710125EB61214388E70
:10477300828F83125EB6121438124702125EB6128B
:104783001438EEFAEFFB121438AE08AF09EE4F708F
:10479300CC901330E4F0A3F0025775C082C083EAD3
:1047A300FCEBFDEC4D6017EC24FBF582ED34FF12BE
:1047B300621670071247F8E0F46007121396790542
:1047C3008030901318E0C0E01247F8D0E0F0902D4D
:1047D30033E493F97A327B131213CCE9640170103A
:1047E3007A007B20901318E0F91213D2790080022B
:1047F30079040253EEEC24FFF582ED34FFF58322B6
:1048030074F41205C4A2AFE433F508C2AF901332B7
:1048130012466C603AEE24FBF582EF34FF12621607
:104823007A007B209013186007E0F91213D28005F9
:10483300E0F91213D8E4F50AF50B780A120A9FEE91
:10484300FCEFFD7A327B131213C67402120AB2E52F
:1048530008A2E092AFEEFAEFFB0235BB124864E028
:104863002212486822F08E828F83A3A3A3A3A3A35B
:1048730022120AB27F0302083374F21205C474FAD7
:10488300120B30EAFEEBFF7508FE7509FF122116C5
:10489300E960057911024A08124A24603B901575B4
:1048A300E0C43354E0F8E0333354FC48C0E0126012
:1048B300A7D0E0126435FAA3E0FB79FF121EDC8B6C
:1048C3000BEA450B60127508FFEE240F124A2744CA
:1048D30004F0124A24D2E0F08E828F83125EB41267
:1048E3002224E96006EE241212644CEE2413124AC9
:1048F30027700D902D31E493C0E0124A1BD0E0F0F5
:104903008E828F83E0A2E7500454038019EE2414AF
:10491300124A2770129012AAE0C0E0124A0DD0E0AA
:10492300F09012AAE004F0EE2411124A27640170F9
:1049330016901560E0600D9012B5E0700A8E828FBC
:1049430083E070031264498E828F83E064017013E5
:10495300EE240B12526764027009EE240F124A27E9
:104963004440F0AC18AD19EEFAEFFB1221828A0A2B
:104973008B0B74FE6508700374FFF470098E828FCD
:1049830083A3A312641CEA450B60768E828F83E0B7
:10499300C0E07401120D35D0E0F07404120D35EE51
:1049A300F0A3EFF0EE241E1262237402120D3512EF
:1049B3005CED7401120B00880C890D780C120A9FB0
:1049C300EE2420124A2F120AA31247021208F2EE13
:1049D300240E124A2F120AA39012BE1208F2740870
:1049E300120D35E0F9AC08AD0912217C7408120AE6
:1049F300B2E9FE74106E700BAA0AAB0B1214388066
:104A0300027E10EEF97406024339124A1122EE2493
:104A130014F582E43FF58322EE124A202212599FB5
:104A230022EE2415F582E43FF583E022F582E43F8C
:104A3300F583E0F50C780C22C082C08374D7120B87
:104A43003090812B7403120B1074261209C38A82CF
:104A53008B83A3A3A3A3126229740E120D35126ACA
:104A6300C1A3A3126229740C120D35124B43124BCE
:104A730035125698C0E0741A120D35D0E0F0126169
:104A8300241262277420120D35124B4312595E1201
:104A93005698C0E07408120D35D0E0F0EA241CF5F6
:104AA30082E43B1262277412120D35124B43241118
:104AB300F582E4125698C0E07409120D35D0E0F087
:104AC300124B2E125698C0E07407120D35D0E0F049
:104AD300EA241EF582E43B1262277424120D351278
:104AE3004B432420F582E4125698C0E07426120D3D
:104AF30035D0E0124B3B74FFF07401120D3574FF97
:104B0300F07402120D3574FFF0908A011208EE74EE
:104B130004120B107407120B08121D5C7404120AA2
:104B2300B279007429120AB20253EEEA2412F58212
:104B3300E422240DF582E422F0851882851983226C
:104B4300E8F0A3E9F0EA2274F41205C474EC120B42
:104B5300308A0A8B0B8C088D09E9FF7E107A217B42
:104B630000121432851882851983EAF0A3EB1262CE
:104B73001EE8497003024C587C217D00790085189A
:104B830082851983E0FA12137E9012CB125EB685EA
:104B93001882851983126A872409F582E43812631F
:104BA300C17420120D351262297411120D3512527F
:104BB300E41261D138F58374021252E8126A9874D0
:104BC300021252D1E508F0A3E5091252E8126A76FF
:104BD300EFF07422120D35125285F9A3E0C9126663
:104BE300D539F583E8124F83A3E0C9125DE7391283
:104BF3004C5F7423120D35125EB67406120D351216
:104C030063C37408120D35E8F07426120D35126172
:104C1300F5C082C083740C120D35AC82AD83D08392
:104C2300D08274051209C37425120D35E0C0E074F7
:104C330013120D35D0E0F07900AA18AB1912211C1C
:104C4300E9640170047E00800C8518828519831243
:104C53005EB6121438EEF974140235B8F583E50A1A
:104C6300F0A3E50BF02274F01205C474FF120B30AD
:104C7300EAFEEBFF8C088D098E828F83A37408F004
:104C8300EE2416124A2760088E828F83A37410F0D5
:104C9300EE2417124A2760098E828F83A3E024082B
:104CA300F0124A2460088E828F83A3E004F08E8280
:104CB3008F83A3A3A3A3A3A3E060198E828F83A3EF
:104CC300A3A3A3A3A3A3E0C3332402F88E828F83F9
:104CD300A3E028F0EE2411124F3E6004740E80010D
:104CE300E4F090156DE0640170168E828F83E064AA
:104CF30001600D901237E06007124F2B740180049E
:104D0300124F2BE4124F838E828F83A3E0124F4CFA
:104D130028298C828D83F0EE2411124A2760139088
:104D230012B6E0F9122074E9F8850882850983E058
:104D330029F0850882850983E0C394754009750CC1
:104D430000750D00024F22E0FA7B001214328A0C28
:104D53008B0DEA450D7003024F228E828F83E0FA9A
:104D63009012BB124F7C74027808120BEAEA4508D2
:104D7300FAAB09EE2412124F7674067808120BEA86
:104D8300A808EA48FCEBFD124A246004780180027B
:104D93007800EE2416FAE43FFBE4C8F9ED49FDEE92
:104DA3002411124A27F508880974097808120BEAB6
:104DB300ED4509FD8A828B83124F7C740B780812B0
:104DC3000BEAED4509FDEE2417124F76740C7808B3
:104DD300120BEAED4509FD8E828F83A3A3A3A3A340
:104DE300A3124F7C740A7808120BEAED4509FDEE15
:104DF3002423124F76740D7808120BEAECF8ED4574
:104E030009F9E8850C82850D83F0E9124F88850C3A
:104E130082850D83124FABF0EE2404124F35124FEF
:104E230060124FABA3A3125995124F60A3A3A3A380
:104E3300126ADC850C82850D83A3A3A3A3A3A3A37A
:104E4300F0750B088A828B83E06015EE2418125DDF
:104E5300B7E50C2408FAE4350DFB121534750B1075
:104E6300EE2417124A276019EE241A125DB7A80B15
:104E7300E50C28FAE4350DFB1215347408250BF5FF
:104E83000B8E828F83A3A3A3A3A3A3E06055EE2479
:104E930007F50EE43FF50F850E82F583E0C0E012BF
:104EA3004F53D0E0124F9BE0C0E008124F55D0E0C3
:104EB300124F9BA3126202120A9B850E82850F83F7
:104EC300E0125237A80BE50C28FAE4350DFB121358
:104ED300727403120AB2850E82850F83E0C33325F1
:104EE3000BF50B124A246008C0E0124F53D0E0F0D8
:104EF300125CC6126202120A9B124F4DFC7D0074B3
:104F030003120D35124F6EE0F8E50C28F8E4350D69
:104F1300F9E82AFAE439FB1213727403120AB2AAEB
:104F23000CAB0D74010261E4EE2423F582E43FF53A
:104F33008322F8E43FF98882898322F582E43FF5EE
:104F430083E085188285198322F8EE1268C5E02272
:104F5300A80BE50C28F582E4350DF58322124F6486
:104F630022E0850C82850D83A3A322E0FA8E828F33
:104F730083A322F582E43FF583E0F5087509002257
:104F8300126ACFF922A3124F9288828983E022F01A
:104F9300EE2402F8E43FF922F0050B8E828F83A3FF
:104FA300A3A3A3A3A3A3A322A3A312642FA3124F78
:104FB30064A32274030235B812622D8E828F83A3F9
:104FC300A32274F01205C474FD120B308518828578
:104FD30019831263C37402120D35E9F08C0C8D0D25
:104FE300750B017C267D007900AA0CAB0D12137E94
:104FF3007402120D35E0C3940850030251C1E085D9
:105003000C82850D83F0AC0CAD0D85188285198358
:1050130012526DFA8518828519831258C11255648C
:1050230012218EE96003750B00851882851983129E
:1050330061F512528FE0F9EA850C82850D83A3A3F3
:10504300A3A3A3A3A3A3A3F0A3E91252D1A3A312DF
:10505300528FA3A3E0F9EAF8E50C1261D1126B07B2
:105063001252E4125DA9C0E0E50C2411126B04D0C6
:10507300E01252E82407F582E438F583E0C0E01239
:105083006B00D0E01252BB74081252C8A3E0602038
:10509300851882851983E02408F8A3E03400F9E534
:1050A3000C2413126B04E8F0A3E91261CC2408F07A
:1050B300850C82850D83A3A3A3A3A3A3A3A3E0606D
:1050C3002A850C82850D83A385820E85830F125258
:1050D3007CF8A3E03400F9E50C12595E350D125C3F
:1050E300EB850E82850F83E02408F012523EE4F034
:1050F30012524EE4F0A31252BBA3A3A3A3E0601188
:105103001252A0850C82850D83A3A3A3A3A31252DD
:10511300D9E50C12525FE070030251AD1252A0FAAE
:1051230012523EEA1252D9F8851882851983E02873
:10513300FBA3E034008B82F583E0F8E50C241A121C
:105143006B04E81252D9E8C39AE50C505812525A2C
:10515300F8902D34E493C39850047E0C8006E50C3C
:1051630012525AFE850C82850D8312527BF508A3D9
:10517300E03400F509750A007808120A9BEE125212
:10518300377AD97B071213727403120AB212524E82
:1051930074D9F0A37407F0EEC333F8850E82850F3C
:1051A30083E028800412525FE4F0850C82850D832E
:1051B300A3E0F8850C82850D83E0C3985004790041
:1051C300806F12527BFAA3E03400FBE50C126443B8
:1051D300350D1263C1850C82850D83E0C398C0E051
:1051E300E50C2417126B04D0E01252C8E06040E5CE
:1051F3000C2417FEE4350DFF8E828F83E024F2F03A
:10520300E50C241DF8E4350DF988828983E0240E2A
:10521300FAA3E03400FB888289831263C39012B639
:10522300E0F9122074E9F88E828F83E0C398F0A925
:105233000B0261E225E0FCE433FD22E50C1252444B
:10524300222419F582E4350DF58322E50C241BF5A0
:1052530082E4350DF58322125244E0221261C635F1
:105263000DF58322F582E43FF58312527122E0F8B3
:10527300A3E0F5838882E022A31252802212528592
:105283002822E0F8851882851983E022A3A3E0FA97
:105293008518828519831261FBA3A3A322850C823F
:1052A300850D83A385820E85830F125280FAA3E0B6
:1052B30034008A82F583E0221252BF22F0850C82E9
:1052C300850D83A3221252BFA3A3A3A3A322125229
:1052D300EDF583888222F0850E82850F83E004F04A
:1052E30022E8F0A3E91252EDC822126AD3F8A3E030
:1052F3002274F41205C48A088B09EA125399A3A3F2
:10530300F0EA1313543F125391A3A3F0EAC4131307
:105313001253991253A37409780A120CCF125388AB
:10532300A3A3A3A3A3A3F0EB12538A1253A2740A59
:10533300780A120CCFE50A5401C0E0EC1261C63DB5
:10534300F583D0E01253A7740B780A120CCF1253D3
:10535300881253A0740C780A120CCF125388A3122C
:1053630053A0740D780A120CCFE50A5401C0E0EC87
:105373002424F582E43DF583D0E0F0740E7808121E
:105383000CCF0235B2E50A54018C828D8322540F6F
:105393008C828D83A32254038C828D8322A3A3A3A7
:1053A300A3A3A3A3F08A0A8B0B22C082C083790034
:1053B3008A828B83A3A3A3A3A3A3E09012B5600E59
:1053C300E070238A828B83A3A3E0701A8016E060C7
:1053D300158A828B83125EAD9012BEE06A7003A3BE
:1053E300E06B600279018003125EB6D083D0820243
:1053F3000A4774F21205C48A0A8B0B890CECFEED82
:10540300FF8A828B8312556212218E850A82850B55
:1054130083A3A3125556E0F9EA8E828F83A3A3A335
:10542300A3A3A3A3A3A3125581125556A3A3E0F9E3
:10543300EAF8125CC6E8125581A3A3E0C0E0EE24AB
:1054430011F582E43FF583D0E0125588A3A3A3E0CE
:10545300C0E0EE124B2F3FF583D0E0125570740875
:1054630012557BA3A3A3E06016E50A2408F8E435EC
:105473000BF9EE2413125975125570E02408F08EBF
:10548300828F83A3A3A3A3A3A3A3A3E060148E8209
:105493008F83A3125545EE2415125975125BA82468
:1054A30008F08E828F83A3A3A3A3A3E0601F8E8241
:1054B3008F83A3858208858309E0F8E50A28F582AE
:1054C300E4350B12553AA3A3125BA804F0EEFAEFEE
:1054D300FB122194E9F50D70598E828F83A3A3A348
:1054E30012596CA37014E0F8E50A28FAE4350BFBB3
:1054F300EE241D1263BDE50C8028125545E8240EE9
:10550300F8500109EE241D125CE79012B6E0F9127F
:105513002074E9F8850882850983E0F9E50CC399CD
:1055230024F2C398C0E0EE2417F582E43FF583D05C
:10553300E0F0A90D02433CF583E08E828F83A3A3A1
:10554300A322858208858309E0F8E50A28F8E43573
:105553000BF922E0FA850A82850B83A3A3A322E039
:10556300FAA3E0F8E4C8F9EA28E439FB22125575F6
:10557300A322F08E828F832212643AA3A322F0A384
:10558300E912558822F0850A82850B83A3A3A3A37E
:1055930022C082C0837A3E7B1379E2121BF47A3EE7
:1055A3007B130253EEC082C0839012BE0253EBC042
:1055B30082C0839012C10253EBC082C083794A1226
:1055C3001BF40253EE74F61205C4901346E0FE0476
:1055D300F0EEF91221468B09EA450970EDEE60EA17
:1055E300F902577574F21205C4EAFEEBFF8C088DBD
:1055F30009890A122290740E120D35E0F9740F1204
:105603000D35E0F8EA4B7012E8701BA90AAC08AD3F
:1056130009EEFAEFFB1222AE8071E86017E970061B
:105623008A828B83E4F07401687060E990134D7093
:1056330027E48021E97054EA2402F582E4125698A3
:10564300A80A28F8E4340013E813F0703E8A828B2A
:1056530083A3A37401F08033E004F090155DE0F8B8
:1056630090134DE0C3984023E4F09012C1E06E70B4
:1056730003A3E06F7015EEFAEFFB7901121D807A38
:10568300017B00901318E0F912150402433C7414D3
:105693002AF58274073BF583E02274F41205C48A69
:1056A300088B098C0A8D0B9089C17808120B5C70EA
:1056B3000E7A017B00901318E0F91213D280319017
:1056C300154A7808120CC012335560187808120A6C
:1056D300977A017B00901318E0F91214F8740412FE
:1056E3000AB2800C7A017B00901318E0F9121504BA
:1056F3000235BBC082C08390154E024084C082C075
:105703008390155002408474F61205C47E00750818
:10571300AA7509127808120A9F7C6E7D007A217B94
:10572300001214AA7402120AB2E9640A70027E011A
:10573300121CD2E9640A7004EED2E1FE9003FB125C
:105743006218600F1258C212270FE9640A7004EE40
:10575300D2E3FE121F00E9640A7004EED2E4FE12E3
:105763001B76E9640A7004EED2E5FEEEF9800312BB
:105773000AB27F0202083374F61205C41213367597
:1057830008AA7509127808120A9F75086E75090030
:105793007808120A9F7C007D007A217B001214B6E0
:1057A3007404120AB2121CD89003FD126218600628
:1057B3001258C212270F121F06121B8880B474F6E8
:1057C3001205C474FF120B307E007508AA75091206
:1057D3007808120A9F7C6E7D007A217B001214AA3E
:1057E3007402120AB2E960030258A67808120A9FEB
:1057F30075086E8E097808120A9F7C007D007A2155
:105803007B001214BC7404120AB2E960030258A6A6
:105813009012BEE064FE7003A3E0F470030258A686
:105823007E019012CDE064086005E06404706F852A
:105833001882851983EE1259B27942121BFA7AD56E
:105843007B127943121BFA7AD27B127947121BFA25
:105853007AC37B12794A121BFA7AC17B12794B12F3
:105863001BFA7ACB7B127950121BFA7ABE7B127920
:1058730053121BFA7AD37B127954121BFA7AC07B28
:105883001279E1121BFA9012B8E0A2E35004D2F0AD
:105893008002C2F01259A87952121BFA8005121322
:1058A300367E00121CC69003FF126218600612585F
:1058B300C212270F121F12EEF97401025772A312BC
:1058C30061FC2274F61205C4E9FEA2E050267508B5
:1058D300AA7509127808120A9F75086E750900786F
:1058E30008120A9F7C007D007A217B001214B67493
:1058F30004120AB2EEA2E35003121CCCEEA2E25051
:105903000E90040112621860061258C212270F0289
:10591300577574F71205C474ED120B30E9FE90133A
:1059230017F0AC18AD1990158BE0F97A1B7B1312A5
:1059330020FE7412120D35EE125953AA18AB191228
:1059430020F87A1B7B137945121BFA741302472044
:10595300F090158BE0F97C1B7D13222415F582E46E
:10596300221262D23509F58322A3A3A3E08E828F8C
:105973008322F582E43FF583E8F0A3E922EE126285
:10598300D23FF58312598B22E0F8A3E0F98882898C
:10599300832212599922F0EE12599F222413F58281
:1059A300E43FF58322A2F0E433851882851983F05E
:1059B300AA18AB192274F41205C48A088B097A0059
:1059C3007B04901318E0F9121504125A749012CD47
:1059D3007409F01221A08A0A8B0BAC0AAD0B123AA0
:1059E30020125EB612152EE96401706B7A0F7B00EC
:1059F3001213908A0A8B0BAE0AAF0BEE4F60588ED0
:105A0300828F837402F0E5081264433509125A5DEC
:105A1300FC88828983A3A3E0FBEC8E828F83A3A3FC
:105A23001263C48882898312596C125A65FAA3E0FF
:105A3300FB794A121BFA850882850983A3A3A3A3D2
:105A4300A3A3E070069011227405F0EEFAEFFB9029
:105A53001318E0F912139C0235BBF58312598BA37B
:105A6300E022A3F0E5082415F582E43509F583E087
:105A73002290125312622D901550E8F0A3E9F09092
:105A8300125512622D90154EE8F0A3E9F02274F43A
:105A93001205C474FD120B308A088B097401120DB0
:105AA3003574021259B21222128A0A8B0BAE0AAF54
:105AB3000BEE4F7003025B80126AA1E4125B9CE061
:105AC3006401700888828983A37420F08508828525
:105AD3000983A3A3A3A3A3E0640170098882898334
:105AE300A3E0D2E6F0850882850983A3A3A3A3A339
:105AF300A3E06401700A88828983A3E0D2E780056A
:105B0300124A1B7401125B97E06401701E850882C0
:105B1300850983A3A3126218600312645585088262
:105B2300850983A3A3126229125CE485088285098F
:105B330083A3A3A3A3A3A3A3E064017009EE240F8B
