:020000040000FA
:06000000020E3E02058223
:03002B00020BEDD8
:030033000201EED9
:030053000204B1F3
:03006300020B0984
:03007B0002035726
:100083000205130101FFFFFFFFFFFF6404010600E8
:1000930000000000000000010101010101E188EA04
:1000A30088E487CF864882B284FE866C888E85FE7C
:1000B30087EF865688BF86C682A782E5829611F0AF
:1000C300010000023D8A02318A00F0FF07000800A8
:1000D30000FFFF0000050400000003000147726FEA
:1000E300757000FF0400100020FD00020206FFFFF0
:1000F300FFFF1E3E1900000000000000000000008A
:10010300000000000000000000000044190000008F
:1001130000000000000000000000000000000000DC
:1001230000000000000000000000000000000000CC
:10013300000000000000000000000000004A190059
:1001430000000000000000000000000000000000AC
:10015300000000000000000000000000000000009C
:10016300000000000000000000000000000000008C
:1001730000000001010A040150000003848900000B
:10018300000104000032110000002C010000FFFFF9
:10019300A71101881300002C01000064006400B85B
:1001A30001A0BB0D00A0BB0D000202020704010564
:1001B3001E02051E020A0A0108080103B80B028089
:1001C3003E0102FEFFE8030A050001FFFF020A01E8
:1001D3001401E005030101FF0F972C000000006BE1
:1001E3002B00000000FF000000FF00C0E074F112CC
:1001F3000801A2AFE433FED2AF539AFD53ACFEA283
:10020300A0500302029479FA1227E4120346A2C40F
:10021300500D900382E0640770030202C4C2C4A2BB
:10022300A050E81227DEE9FA900382E0F8E4C8F967
:10023300EA28900314F0A3E9F0900314E094F4A3E4
:10024300E09401404C90030EE4F090030F801CEC0B
:10025300F4FA88828983E05AF090030FE004F0E017
:1002630064087008E4F090030EE004F0120346798A
:10027300641227E4A2A05031A2C450F8C2C4900370
:100283000EE0600D90030FE070077A047B031228E1
:1002930098439A0243AC01758B00C2E8751A00EECD
:1002A300A2E092AF7F020208601227DEE9900312F8
:1002B300F0A3E4F079641227E4A2A04008A2C4509A
:1002C300F8C2C480CC1227DEE9900314F0A3E4F053
:1002D300900312E0F8A3E0F9900314E028F8E4395E
:1002E300F9900310E8F0A3E9F0900310E024E2F89A
:1002F300A3E034FFF9C3E8943AE9940050937508F6
:100303000175090090030FE07808120DEAE508FC77
:1003130090030EE0F8740428F8E43403F99003140E
:10032300C082900312E0FAA3E0FB758303D082C37B
:10033300E09AA3E09B400302025288828983E04C47
:1003430002025BE5C9540F44A0F5C9E5C9540F4443
:1003530050F5C922C0E074F1120801A2AFE433FEE4
:10036300D2AF539AEF538DBFA29640787A587B1B36
:100373001227F01204A0A2C15003020419A296503E
:10038300F2120494900380C3E094D0A3E094074056
:100393005390037AE4F090037B801CECF4FA888298
:1003A3008983E05AF090037BE004F0E0640870086E
:1003B300E4F090037AE004F01204A07A907B011237
:1003C30027F0A2965036A2C150F8C2C190037AE03A
:1003D300601290037BE0700C7A207B009010EAE0BF
:1003E300F9121572439A10438D40758A00C2EB755A
:1003F3001A00EEA2E092AF7F020208601227EA9091
:10040300037EEAF0A3EBF07A907B011227F0A29629
:100413004008A2C150F8C2C180CA12049490037E5E
:10042300E0F8A3E0F9900380E028F8A3E039F9901D
:10043300037CE8F0A3E9F090037CE02488F8A3E0D0
:1004430034FFF9C3E894E7E99400509875080175FF
:10045300090090037BE07808120DEAE508FC90039D
:100463007AE0F8741628F8E43403F9900380C08224
:1004730090037EE0FAA3E0FB758303D082C3E09A86
:10048300A3E09B400302039E88828983E04C02031E
:10049300A71227EA900380EAF0A3EBF022E5C95400
:1004A3000F44A0F5C9E5C9540F4450F5C922C0E073
:1004B30074F1120801A2AFE433F509D2AF85A7089E
:1004C300AFA1EF5508FE74105E600612126C75A1A1
:1004D300EF74085E600812127275A1F78024EFA210
:1004E300E092F0E508A2E082F05017906198E0F8FE
:1004F30090044BE0C398A2D265D0335002E8F07564
:10050300A1FE751A00E509A2E092AF7F020208601E
:10051300C0E074F2120801A2AFE433FED2AF9061DF
:10052300A4E0F8759B00E59158540860087591F7AD
:100533001212C08023E59158541060087591EF1290
:1005430012C68014E591A2E092F0E8A2E082F05096
:1005530007E0C2E0F012141C9061A3E0F8E5E9584B
:100563005404600E1213F275E9FB906193E0A2E666
:1005730040F2751A00EEA2E092AF7F01020860C05C
:10058300E074F2120801A2AFE433FED2AF9061A58A
:10059300E0F8E5BF585404600675BFFB12143480BD
:1005A300D1C3E498F8E499F91205E58026C3E49AE7
:1005B300FAE49BFBE920E7E91205E5E498F8E499FE
:1005C300F922C3E498F8E499F91205E5E498F8E40C
:1005D30099F9C3E49AFAE49BFB22EB20E7CFE920E5
:1005E300E7E0B90010BB0008E88AF084F8AAF0221B
:1005F300E4FBC8FA22EB70227B10C833C8C933C9A5
:10060300335007C39AC3DBF280069A50012ADBEA10
:10061300C833F4C8C933F4C9FA2275F008E4C833FF
:10062300C8C933C933C99AC99B5004C92AC93BD520
:10063300F0ECFBC833F4C8E4C9FA22080808EAC09E
:10064300E0EBC0E086F0E7A4FA180986F0E7A42AF5
:10065300FA180986F0E7A42AFA180986F0E7A42A0B
:10066300FA1986F0E7A4FBE5F02AFA190886F0E701
:10067300A42BFBE5F03AFA190886F0E7A42BFBE577
:10068300F03AFA18180986F0E7A4C5F02BFBE43A10
:10069300FA1908E7C5F0C6A426F6E5F03BFBE43AF1
:1006A300FA1886F0E7A4F6E5F00826F6E43B08F628
:1006B300E43A08F6D0E0FBD0E0FA22E4CFC0E0E46D
:1006C300CEC0E0E4CDC0E0E4CCC0E075F020E62687
:1006D300F608E633F608E633F608E633F618181894
:1006E300EC33FCED33FDEE33FEEF33FFC3EC970940
:1006F300ED9709EE9709EF97191919400FFFEC973A
:10070300FC09ED97FD09EE97FE191906D5F0BFEC2C
:10071300F709EDF709EEF709EFF7191919D0E0FC1E
:10072300D0E0FDD0E0FED0E0FF222518C582C0E076
:10073300E51934FFC583C0E0E518C3958224F8109A
:10074300AF088583198582188008858319858218E7
:10075300D2AFCEF0A3E520F0A37808E608F0A3DE3D
:10076300FAEFF0A3E58124FAF8E608F0A3E608F02F
:10077300A3E608F0A30808E608F0A3E608F0A3152B
:10078300811581D0E0FED0E0F8158115811581E84F
:10079300C0E0EEC0E022120EB8B900030207EBE49A
:1007A300900301784A79128002F0A3D8FCD9FA7831
:1007B3001A9000867A01BA00028007E493A3F60830
:1007C300DAF97A4A7B14900087786879028015E415
:1007D30093A3AD82AE838A828B83F0A3AA82AB8379
:1007E3008D828E83D8E9D9E77582407583DF7405DE
:1007F300120BCF7582B67583287400120BCFC0D04D
:100803002518C582C0E0E51934FFC583C0E0E518AB
:10081300C3958224F310AF08858319858218800855
:10082300858319858218D2AFC8F0A3E9F0A3EAF053
:10083300A3EBF0A37908E709F0A3D8FAECF0A3ED52
:10084300F0A3EEF0A3EFF0A3D0E0F0A3D0E0F0A389
:10085300D0E0F0A3E520F0A3E5F0F0A3228519830F
:10086300851882E0C0E0A3E0F9A3E0FAA3E0FBA3CC
:100873007808E0F608A3DFFAE0FCA3E0FDA3E0FEBE
:10088300A3E0FFA3E0C0E0A3E0C0E0A3E0F5D0A3B2
:10089300E0F520A3E0A3F5F010AF08858319858266
:1008A300188008858319858218D2AFD082D083D06F
:1008B300E0F8D0E03275F0108E218F2285822685F4
:1008C3008325851882851983E0CEA3E0CF85268210
:1008D300852583EBC9EAC8EDCBECCAC3E833C8E985
:1008E30033C9EA33CAEB33CBC3EA9EF524EB9FF556
:1008F30023B35004AB23AA24EC33CCED33CDD5F092
:10090300DAAE21AF2222D083D082ECC0E0EDC0E08A
:10091300E493A3FCE493A3FDED4C600D1209E1EC19
:1009230024FFFCED34FFFD80EFE493A3FCE493A3E9
:10093300FDED4C600D120AB4EC24FFFCED34FFFD19
:1009430080EFD0E0FDD0E0FCE493A3C0E0E493C0EB
:10095300E022D083D082E9C0E0E493A3C386F0C54C
:10096300F095F0F908E493A386F0C5F095F0700BC9
:10097300E493A3C3994005E9048002A3E475F0025C
:10098300A42582F582E5F03583F583D0E0F9E4937D
:10099300A3C0E0E493C0E022851983851882E0A315
:1009A300FEE0A3F5207808E0A3F608DFFAE0A3FF52
:1009B300E0A3C0E0E0A3C0E0E0A3C0E0E0A3C0E0A8
:1009C300E0A3C0E010AF08858218858319800885ED
:1009D3008218858319D2AFD083D082020BD5C0E0B1
:1009E300C3E49396087401939618400FE4936670DA
:1009F3000808740193661870007019A3A3C3E493E5
:100A030096087401939618A3A3400DD0E0D0E0D0CC
:100A1300E0020945A3A3A3A3A3A3D0E022D083D0DC
:100A230082C5F0E493A3C5F0C395F0F5F0E493A376
:100A3300C395F04005E5F0048001E475F002A425B8
:100A430082F582E5F03583F583E493A3C0E0E49374
:100A5300C0E0227404800474028000CCC0E0EDC0C6
:100A6300E0E518C39CCCAD1950011D10AF068C18DE
:100A73008D1980068C188D19D2AF120B51D0E0FD61
:100A8300D0E0FC2274028000CCC0E0EDC0E0E518A9
:100A9300C39CCCAD1950011D10AF068C188D198065
:100AA300068C188D19D2AF120B2FD0E0FDD0E0FCCD
:100AB30022C0E0C0F088F0E49366700808740193E4
:100AC30066187000A8F0A3A3700BD0F0D0E0D0E0BC
:100AD300D0E0020945A3A3D0F0D0E022D083D08296
:100AE300CCC0E0E493A36006120B911470FAE49374
:100AF300A36006120CBE1470FAD0E0FCE493A3C00A
:100B0300E0E493C0E022C0E0C0D0E8C0E0C082C00F
:100B130083A8A8D2AF900382E004F0E8A2E792AFE3
:100B2300D083D082D0E0F8D0D0D0E032CAC0E0E4A5
:100B330093A3C582CCC582C583CDC583F0A3C582EB
:100B4300CCC582C583CDC583DAE5D0E0CA22CAC04D
:100B5300E0E0A3C582CCC582C583CDC583F0A3C520
:100B630082CCC582C583CDC583DAE6D0E0CA2270C4
:100B730009080808226016181818C6C333C608C621
:100B830033C608C633C608C633C6D5E0EA22C0E07A
:100B9300E493A3D39C5010E493A3C39C400AD0E0F6
:100BA300D0E0D0E0020AFCA3A3A3D0E022C008C394
:100BB300E096F50808A3E096420808A3E0964208E9
:100BC30008A3E09645087001D3D00822C09FF59F83
:100BD300E473D09F22D083D082C09FE493C0E0749B
:100BE3000193C0E0740293F59F22C0E0C0D0E8C037
:100BF300E0A8A8D2AFC2C7751A00E8A2E792AFD0A7
:100C0300E0F8D0D0D0E0327404800A740380067414
:100C13000280027401C0E0F404120C40D0E0120E12
:100C23007B2200C0D0251810AF08F518500C051909
:100C33008008F51850020519D2AFD0D0222518F537
:100C43008210AF08F518400C15198008F5184002FA
:100C53001519D2AF85198322BB0102E722C082C0D6
:100C63008389828A83BB0003E08002E493D083D02C
:100C730082226016080808C6C313C618C613C6180E
:100C8300C613C618C613C6D5E0EA222518F8E435FC
:100C930019F9222518FAE43519FB222518FCE43545
:100CA30019FD22C3E0C696F608A3E0C696F608A38C
:100CB300E0C696F608A3E0C696F622C0E0E493A346
:100CC3006C7009D0E0D0E0D0E0020AFCA3A3D0E02E
:100CD30022251810AF08F518400C15198008F518CF
:100CE30040021519D2AF22C3E09608A3E09608A3E9
:100CF300E09608A3E096A2D265D03322E066701096
:100D030008A3E066700A08A3E066700408A3E0661F
:100D130022E76670100809E766700A0809E766703B
:100D2300040809E76622C3E096F008A3E096F008FA
:100D3300A3E096F008A3E096F022C3E697F608092D
:100D4300E697F60809E697F60809E697F622C3E45C
:100D53009396087401939608740293960874039308
:100D63009622E056F008A3E056F008A3E056F008F8
:100D7300A3E056F022E647F60809E647F60809E637
:100D830047F60809E647F622E026F008A3E036F026
:100D930008A3E036F008A3E036F022E026F608A325
:100DA300E036F608A3E036F608A3E036F622E65767
:100DB300F60809E657F60809E657F60809E657F66E
:100DC30022E627F60809E637F60809E637F60809A2
:100DD300E637F622E056F608A3E056F608A3E056F7
:100DE300F608A3E056F622700422600D18C6C3333A
:100DF300C608C633C6D5E0F41822E4C396F608E461
:100E030096F608E496F608E496F622C6F4C608C6F3
:100E1300F4C608C6F4C608C6F4C622C3E796080992
:100E2300E7960809E7960809E79622C3E09608A320
:100E3300E09608A3E09608A3E0962275D00075819A
:100E43003F75180175190300020799E6F008A3E638
:100E5300F008A3E6F008A3E6F022600C08C6C3136B
:100E6300C618C613C6D5E0F422E0F608A3E0F608D8
:100E7300A3E0F608A3E0F622CAC0E0E6F0A308DA8E
:100E8300FAD0E0FA22E8F0A3E9F0A3EAF0A3EBF04A
:100E930022E0F8A3E0F9A3E0FAA3E0FB22EAF0A33F
:100EA300EBF0A3ECF0A3EDF022E0FAA3E0FBA3E068
:100EB300FCA3E0FD22E5C754F84401F5C7790122FC
:100EC3002518F582E43519F58322C2AF75D69F0242
:100ED300000022120BD854D805120BD802ED0512CC
:100EE3000BD819ED05120BD896C305120BD812C4F3
:100EF30005120BD8E6C505120BD828C705120BD867
:100F03007FC705120BD858E602120BD884E60212EB
:100F13000BD8C8E602120BD849E702120BD83EE9F8
:100F230002120BD862E902120BD86DE902120BD838
:100F330080E902120BD8C2E902120BD816EA021298
:100F43000BD871EA02120BD897EA02120BD8EBED19
:100F530002120BD8F7ED02120BD8FCED02120BD8DC
:100F6300B2EE02120BD815EF02120BD83EF00212AA
:100F73000BD89BF002120BD8F0F002120BD855F1EC
:100F830002120BD81CF202120BD85DF202120BD81C
:100F9300CAF202120BD82FF302120BD83FF502123A
:100FA3000BD840F802120BD8E6F802120BD825F939
:100FB30002120BD83BF902120BD811FA02120BD80A
:100FC30053FA02120BD8FFFB02120BD86CFC02126D
:100FD3000BD876FC02120BD83AF504120BD8B2F5F3
:100FE30004120BD867F604120BD80CF904120BD8B1
:100FF300DBF904120BD8C5FA04120BD863FB0412F5
:101003000BD877FB04120BD8E1FB04120BD8EBFBD4
:1010130004120BD888FC04120BD846FD04120BD81B
:10102300D4FE04120BD8EEFE04120BD826FF0412D2
:101033000BD8008004120BD82B8004120BD84080ED
:1010430004120BD8738004120BD8928004120BD8AD
:10105300D38004120BD8668104120BD825820412A4
:101063000BD89C8404120BD8428504120BD86F85CD
:1010730004120BD8C08504120BD86C8604120BD84B
:10108300CF8604120BD8138704120BD8C08704121F
:101093000BD82D8804120BD8608804120BD86E89E4
:1010A30004120BD8928904120BD8F68904120BD8B8
:1010B300CE8A04120BD8D38C04120BD8758D04126C
:1010C3000BD8FF8F04120BD8839004120BD8129302
:1010D30004120BD86D9304120BD8779304120BD818
:1010E300BD9304120BD8AD6D00120BD8296E0012FC
:1010F3000BD85C6E00120BD88A6E00120BD8CD7021
:1011030000120BD8EC7000120BD8317100120BD8FF
:10111300C77100120BD8137200120BD8A5720012FC
:101123000BD87D7300120BD8CE7300120BD8337417
:1011330000120BD8B07400120BD8E67400120BD84F
:10114300317500120BD8577500120BD8E7750012D2
:101153000BD87E7600120BD8CA7600120BD8FB761A
:1011630000120BD8327700120BD8BA7800120BD8C2
:10117300847900120BD85E7A00120BD893ED051216
:101183000BD8A4ED05120BD8BCED05120BD8FCFF50
:1011930001120BD8EBFF04120BD89BE905120BD8F5
:1011A300ABE905120BD8BAE905120BD84BEA0512C5
:1011B3000BD8A6E705120BD829E805120BD88FE840
:1011C30005120BD8F47F00120BD84FEE05120BD883
:1011D30052EE05120BD8F87F00120BD83FDD051233
:1011E3000BD877DD05120BD8B9DE05120BD83DDF1E
:1011F30005120BD8FAFF01120BD8A67F00120BD8E9
:101203003FB505120BD86BB505120BD8DCB7051229
:101213000BD81CB805120BD85CB805120BD870B8E4
:1012230005120BD889B805120BD87AB905120BD859
:101233001FBA05120BD833BA05120BD8AAE205124E
:101243000BD8CEE205120BD8E7E205120BD819E34F
:1012530005120BD849E305120BD876E305120BD818
:1012630080E305120BD8E2E305120BD8F1E3051274
:101273000BD8FBE305120BD808E405120BD89CD35B
:1012830005120BD8BCD305120BD8FBD305120BD810
:1012930016D405120BD835D405120BD89BD40512DE
:1012A3000BD8A4D405120BD801D505120BD810D531
:1012B30005120BD834D505120BD8F5D505120BD86A
:1012C30002D605120BD813D605120BD84CED051216
:1012D3000BD864ED05120BD890ED05120BD889BA23
:1012E30005120BD8E3BB05120BD8F1BB05120BD8C3
:1012F30004BC05120BD819BC05120BD82EBC051261
:101303000BD841BC05120BD8B5BC05120BD81ABDBE
:1013130005120BD8A2BD05120BD81EBE05120BD8A1
:10132300E2BE05120BD8F2BE05120BD801BF05129F
:101333000BD8ABEB05120BD8CFEB05120BD8F7EBA1
:1013430005120BD81FEC05120BD8B8D805120BD811
:10135300DFD805120BD8FDD805120BD870D90512AA
:101363000BD8C9D005120BD8E2D005120BD8EED09A
:1013730005120BD802D105120BD820D105120BD8B8
:101383002AD105120BD834D105120BD847D1051237
:101393000BD8CDD105120BD842D205120BD871D27E
:1013A30005120BD8BFD205120BD80ED305120BD8DA
:1013B30029D305120BD833D305120BD844D3051206
:1013C3000BD887D305120BD84CEC05120BD897EC2E
:1013D30005120BD8008005120BD82A8005120BD8F2
:1013E300478005120BD85A8005120BD8708005125E
:1013F3000BD8CE8005120BD8068105120BD8FA84C0
:1014030005120BD83F8605120BD8728605120BD82E
:10141300D58605120BD8358805120BD85D880512C1
:101423000BD8728805120BD8828805120BD8C68890
:1014330005120BD8218905120BD8318905120BD857
:101443006BE505120BD885E505120BD8ADE5051242
:101453000BD8C6E505120BD8EAE505120BD808E64A
:1014630005120BD81FE605120BD84DE605120BD853
:1014730068E605120BD851EA05120BD895EA051256
:101483000BD882C705120BD892C705120BD897C881
:1014930005120BD8C9C805120BD8F9C805120BD809
:1014A3001CC905120BD833C905120BD86DC9051217
:1014B3000BD8D2C905120BD814CA05120BD853CABC
:1014C30005120BD884CA05120BD8AFCA05120BD864
:1014D30012E405120BD827E405120BD83BE50512DD
:1014E3000BD83EE505120BD89BE605120BD8D1E6C7
:1014F30005120BD8E7E605120BD829E705120BD81E
:1015030040E705120BD884E705120BD88EE70512C6
:101513000BD8A1A105120BD8DBA105120BD844A24D
:1015230005120BD861A205120BD803A305120BD821
:101533000CA305120BD851A305120BD87AA30512DD
:101543000BD887A305120BD8F8A305120BD883A4D5
:1015530005120BD8D1A405120BD80FA505120BD871
:1015630074A505120BD897A505120BD80EA6051264
:101573000BD865A605120BD8A0A605120BD8D5A6C5
:1015830005120BD8E7A605120BD8F9A605120BD83E
:1015930018A705120BD831A705120BD8F1A705120E
:1015A3000BD83DA805120BD87BA805120BD8A3ECCA
:1015B30005120BD85DFD01120BD89DFE01120BD84D
:1015C300BDFE01120BD809DB05120BD83FDB051258
:1015D3000BD887DB05120BD8E0DC05120BD814AB54
:1015E30004120BD838AC04120BD872AC04120BD80B
:1015F3001CAE04120BD846AE04120BD8BBB00412B7
:101603000BD8FBB004120BD891B204120BD82EB333
:1016130004120BD880B304120BD823B404120BD8D2
:101623005BB404120BD89DB404120BD80CB604128D
:101633000BD85AB704120BD88BB904120BD8B9B90B
:1016430004120BD8E0B904120BD8E9B904120BD871
:1016530040BA04120BD8D2BA04120BD8FFBD04123D
:101663000BD882BE04120BD803EB05120BD81BEB6D
:1016730005120BD825EB05120BD879EB05120BD805
:10168300377B00120BD84D7B00120BD8EE7B001278
:101693000BD82D7C00120BD84A7C00120BD87B7C14
:1016A30000120BD8C87C00120BD8FB7C00120BD89D
:1016B300367D00120BD8317F00120BD8997F0012B0
:1016C3000BD8FFFE03120BD85EFF03120BD89CFF4F
:1016D30003120BD8DDFF03120BD8109A05120BD897
:1016E300269A05120BD8BB9A05120BD8EB9B051251
:1016F3000BD8B19C05120BD84E9D05120BD8B39D88
:1017030005120BD8C39D05120BD8EA9D05120BD801
:101713003D9E05120BD8AE9F05120BD8B39F051241
:101723000BD8D39F05120BD8008002120BD80C8064
:1017330002120BD8758002120BD87F8002120BD8CD
:101743000C8102120BD8488102120BD82B82021291
:101753000BD8898202120BD8D68202120BD853837C
:1017630002120BD8A98302120BD8268402120BD8BB
:10177300058602120BD8D08702120BD8C188021239
:101783000BD8168B02120BD8708C02120BD8078D54
:1017930002120BD8468E02120BD8448F02120BD8BA
:1017A300A89002120BD87B9502120BD863960212F3
:1017B3000BD8F69602120BD81B9702120BD8409740
:1017C30002120BD8DA9702120BD8F09702120BD839
:1017D300129802120BD8839802120BD8A298021205
:1017E3000BD8CB9802120BD8CB9902120BD8CF9AF5
:1017F30002120BD8639C02120BD8849C02120BD8E2
:101803002A9D02120BD8729D02120BD8D69D02128A
:101813000BD8639E02120BD8C79E02120BD8319FBE
:1018230002120BD8CF9F02120BD83BA002120BD887
:101833006EA002120BD8D6A002120BD82FA202124E
:101843000BD8C1A302120BD868A402120BD8C7A6E7
:1018530002120BD814A702120BD824A702120BD81A
:1018630073A702120BD8E5A702120BD815A8021210
:101873000BD883A802120BD82EA902120BD820ABC7
:1018830002120BD8AEAD02120BD8B4AE02120BD8B3
:10189300BAB202120BD87FB302120BD8A1B4021250
:1018A3000BD83EB602120BD8D2E501120BD860E674
:1018B30001120BD80BE701120BD889EA01120BD8DE
:1018C3004CEB01120BD8FCEB01120BD877EC011295
:1018D3000BD8FCEC01120BD80AEE01120BD8ECEE7C
:1018E30001120BD867EF01120BD800F101120BD8CC
:1018F30057F201120BD830F301120BD843F4011243
:101903000BD873F501120BD889F601120BD810F717
:1019130001120BD83DF801120BD827FA01120BD88C
:10192300CEFA01120BD8DBFB01120BD8E8CD05125E
:101933000BD8A2CE05120BD8EECE05120BD85ED073
:1019430005120BD867D005120BD8BCD005120BD8E3
:10195300C0FF02120BD845C703120BD8D4C703121A
:101963000BD84AC803120BD829C903120BD824CAAF
:1019730003120BD8A1CA03120BD8DFCB03120BD867
:101983007ACC03120BD851CE03120BD840CF0312DB
:101993000BD88CCF03120BD86ED003120BD8B1D156
:1019A30003120BD853D203120BD885D503120BD8CD
:1019B30081D703120BD80BD803120BD863D80312A9
:1019C3000BD8B1D803120BD82CD903120BD8B0D92A
:1019D30003120BD8ECD903120BD86AE003120BD80D
:1019E300BBE203120BD892E303120BD892950412B5
:1019F3000BD8C19504120BD8399604120BD83C9717
:101A030004120BD8989704120BD8199904120BD807
:101A1300359904120BD8879904120BD8C499041270
:101A23000BD8D79904120BD8299A04120BD8D09A41
:101A330004120BD83D9B04120BD8679B04120BD8DE
:101A43009F9B04120BD87F9D04120BD8589E04123F
:101A53000BD8A19F04120BD8CD9F04120BD8A0A0C2
:101A630004120BD828A104120BD869A104120BD8B5
:101A730083A104120BD8CAA104120BD8EAA1041241
:101A83000BD884A204120BD813A304120BD86DA392
:101A930004120BD8BEA304120BD83AA604120BD817
:101AA30061A704120BD89DA704120BD88FA80412A8
:101AB3000BD8B7A804120BD8BAA804120BD8C4A821
:101AC30004120BD8D7A804120BD860A904120BD8A0
:101AD30096A904120BD8A9A904120BD8D5A90412EC
:101AE3000BD8FCA904120BD820AA04120BD8BDAA48
:101AF30004120BD8CBAA04120BD8FEAA04120BD8DB
:101B03006CFF04120BD857E105120BD8B6FF041271
:101B13000BD8FBFF02120BD8A7A805120BD8F6A807
:101B230005120BD896AA05120BD851AC05120BD887
:101B330093AC05120BD87CAD05120BD886AE0512FB
:101B43000BD8A8AE05120BD8F2AE05120BD873AFA3
:101B530005120BD82AA703120BD84DA703120BD8D3
:101B6300ACA803120BD818D805120BD84FA903122F
:101B73000BD8A9A903120BD84DAB03120BD899AB01
:101B830003120BD813AC03120BD899AC03120BD866
:101B93009CAC03120BD828AD03120BD86BAD031208
:101BA3000BD89EB103120BD83BB303120BD888B3E7
:101BB30003120BD8E0B603120BD864B703120BD889
:101BC30032B803120BD860B903120BD8EFBA031261
:101BD3000BD87ABB03120BD874BC03120BD8C9BD44
:101BE30003120BD8C0BE03120BD812BF03120BD8BB
:101BF300A1BF03120BD8E6BF03120BD804C1031213
:101C03000BD866C203120BD844C303120BD8C5C446
:101C130003120BD828C603120BD89DC603120BD888
:101C2300CFBE04120BD880BF04120BD8EEBF041230
:101C33000BD807C004120BD88CC004120BD8E1C018
:101C430004120BD825C104120BD884C104120BD87B
:101C5300EFC204120BD826C404120BD89FC404127B
:101C63000BD8A4C604120BD84CC704120BD8F6C762
:101C730004120BD882C804120BD8F9C904120BD86A
:101C8300EDCB04120BD85CCD04120BD87BCE04121F
:101C93000BD81BCF04120BD84AD004120BD887E4FD
:101CA30003120BD8FBE403120BD843E503120BD842
:101CB30081E503120BD8CAE503120BD814E603120D
:101CC3000BD84CE603120BD8CAE603120BD824E751
:101CD30003120BD880E803120BD811E903120BD8B7
:101CE3006FE903120BD889E903120BD8AAE903128F
:101CF3000BD802EA03120BD873EC03120BD892EC45
:101D030003120BD871ED03120BD889EE03120BD813
:101D130006EF03120BD873EF03120BD8DCEF031299
:101D23000BD896F003120BD854F203120BD855F3C9
:101D330003120BD8DAF403120BD8C5F603120BD82F
:101D430028F903120BD8CEFA03120BD89CFB03120B
:101D53000BD802FC03120BD819FC03120BD809FD94
:101D630003120BD8F5FD03120BD862FE03120BD836
:101D730007CB05120BD853CC05120BD810CD051287
:101D83000BD874CD05120BD8A6FC02120BD8C1FCDC
:101D930002120BD805FD02120BD82BFD02120BD831
:101DA30051FD02120BD869FD02120BD8CCFD0212B1
:101DB3000BD8E1FD02120BD8F5FE02120BD810FF6F
:101DC30002120BD819FF02120BD822FF02120BD8F2
:101DD3002BFF02120BD83AFF02120BD83ABF05129F
:101DE3000BD828C305120BD82DC305120BD82FC34C
:101DF30005120BD8C7DF05120BD8FCED05120BD863
:101E0300008003120BD8338003120BD89A8003127D
:101E13000BD8268103120BD8CB8103120BD8138264
:101E230003120BD8388203120BD8518203120BD83A
:101E3300778203120BD8998203120BD8D78203122D
:101E43000BD8268303120BD84F8303120BD8AE8310
:101E530003120BD8878403120BD83D8503120BD8CA
:101E63009B8503120BD8628603120BD8B986031223
:101E73000BD8248703120BD8628703120BD8B887B9
:101E830003120BD8308803120BD8878803120BD8A0
:101E93008A8803120BD80B8903120BD8AA89031261
:101EA3000BD8128A03120BD8018B03120BD8238B86
:101EB30003120BD8868C03120BD8938C03120BD806
:101EC300978D03120BD8A48D03120BD8AD8D03127B
:101ED3000BD8A88F03120BD8C29003120BD83691DC
:101EE30003120BD8A39103120BD8CF9103120BD873
:101EF300619203120BD89D9203120BD880940312A4
:101F03000BD8579803120BD86B9803120BD87B98F6
:101F130003120BD8859803120BD88E9803120BD893
:101F2300979803120BD8A19803120BD8D0980312D9
:101F33000BD8F89803120BD84D9903120BD8589964
:101F430003120BD87C9903120BD8A09903120BD858
:101F5300FD9903120BD8439A03120BD85F9A03120D
:101F63000BD8D29A03120BD8099B03120BD8489BA8
:101F730003120BD8959B03120BD81B9C03120BD88F
:101F8300F79D03120BD8939E03120BD8789F03126D
:101F93000BD8EDA103120BD840A203120BD868A2F1
:101FA30003120BD892A303120BD8C8A303120BD8A6
:101FB3001AA403120BD8CFA403120BD87FA50312C4
:101FC3000BD8B4A503120BD84AA603120BD8CEA67E
:101FD30003120BD8AE8A01120BD8E08A01120BD878
:101FE300108B01120BD8E48C01120BD8C58D011292
:101FF3000BD81D8E01120BD8608F01120BD8AC8F3A
:1020030001120BD8E09201120BD8F69501120BD8EE
:10201300409701120BD8D69701120BD8E297011201
:102023000BD8229801120BD8AC9901120BD8A09AA5
:1020330001120BD8CA9A01120BD8319B01120BD88B
:102043008A9B01120BD8019C01120BD8489E0112E6
:102053000BD8DF9F01120BD8B3A001120BD8F2A14A
:1020630001120BD837A401120BD808A701120BD801
:1020730017A701120BD89BA701120BD842A8011274
:102083000BD885A801120BD8CEA801120BD822A910
:1020930001120BD887A901120BD8EAA901120BD898
:1020A30006AA01120BD838AA01120BD877AA01127B
:1020B3000BD85CAB01120BD80BAC01120BD88FAE53
:1020C30001120BD8D1AF01120BD8B0B001120BD84B
:1020D30030B101120BD852B501120BD890B50112D1
:1020E3000BD8EBB501120BD81EB601120BD89AB65A
:1020F30001120BD8B6B601120BD851B701120BD887
:102103009FB701120BD872B801120BD837B901125D
:102113000BD8D5B901120BD8DEBC01120BD8F2BD16
:1021230001120BD88FC101120BD897C201120BD821
:102133009AC201120BD8C9C201120BD8C8C401122A
:102143000BD8A1C501120BD8E8C501120BD835C7AE
:1021530001120BD86FC701120BD81CC801120BD880
:1021630050C801120BD802C901120BD811CB0112AE
:102173000BD87CCB01120BD8C4CB01120BD861CC8A
:1021830001120BD890CD01120BD857CE01120BD8E8
:102193004DD001120BD861D001120BD875D00112AA
:1021A3000BD8ABD001120BD8DBD001120BD869D2FC
:1021B30001120BD84AD301120BD8BAD301120BD890
:1021C3006AD401120BD89AD401120BD864D5011228
:1021D3000BD821D601120BD82AD801120BD869D8F3
:1021E30001120BD8D6D801120BD81BDA01120BD867
:1021F300CEDA01120BD802DB01120BD81ADB011263
:102203000BD8BDDB01120BD8ABDE01120BD876E085
:1022130001120BD89AE001120BD8B8E001120BD8C7
:102223008CE101120BD8B4E501120BD8ED2E00128C
:102233000BD81F2F00120BD81E3300120BD86A3392
:1022430000120BD8B03300120BD8583400120BD83D
:10225300C23400120BD80A3500120BD868360012AC
:102263000BD86D3700120BD85F3B00120BD8F03B35
:1022730000120BD8183D00120BD8753D00120BD875
:10228300443F00120BD8BB3F00120BD8C53F0012CE
:102293000BD8D23F00120BD8FD3F00120BD8E440FD
:1022A30000120BD89D4100120BD8204200120BD80C
:1022B3003E4200120BD8674200120BD89442001220
:1022C3000BD8EE4400120BD8B24500120BD8F745D9
:1022D30000120BD86E4600120BD81C4700120BD805
:1022E3004E4700120BD8944700120BD8D047001268
:1022F3000BD8214800120BD8754800120BD800499F
:1023030000120BD84B4900120BD8B04900120BD85E
:10231300294A00120BD8E84B00120BD8F74C0012D5
:102323000BD8164E00120BD8725100120BD8A154C1
:1023330000120BD85A5500120BD8A25500120BD815
:10234300415700120BD8555700120BD85F57001294
:102353000BD8695700120BD8755700120BD8945736
:1023630000120BD84A5800120BD8A35800120BD8EE
:10237300AD5800120BD8B75800120BD827590012CA
:102383000BD86E5900120BD8735A00120BD8C25ACD
:1023930000120BD8655B00120BD83E5C00120BD801
:1023A3005E5D00120BD8A05E00120BD89A5F00127C
:1023B3000BD8B25F00120BD8E65F00120BD8F05FA8
:1023C30000120BD80E6000120BD86D6000120BD8F0
:1023D300946000120BD82F6100120BD8EE6100122B
:1023E3000BD85E6200120BD8D66200120BD8E063E2
:1023F30000120BD8AD6400120BD8056500120BD880
:10240300096600120BD84E6600120BD8A96600129B
:102413000BD8106700120BD83E6700120BD8626707
:1024230000120BD8976700120BD8C46700120BD8A1
:102433000A6800120BD82E6800120BD89768001296
:102443000BD87F6900120BD8CA6900120BD8F36945
:1024530000120BD88B6A00120BD8036B00120BD837
:10246300276B00120BD8846B00120BD8A46B0012DD
:102473000BD8A76B00120BD8D36B00120BD8C86C08
:1024830000120BD8B7DE04120BD8EFDE04120BD800
:1024930010DF04120BD854DF04120BD8B8DF041278
:1024A3000BD8C2DF04120BD8D2DF04120BD809E019
:1024B30004120BD801E404120BD80FE604120BD854
:1024C300FCE704120BD893E804120BD835E9041285
:1024D3000BD86FB902120BD8DFB902120BD83FBA6F
:1024E30002120BD88ABA02120BD8A5BA02120BD861
:1024F300CCBA02120BD8E9BA02120BD8F5BA0212FF
:102503000BD8A0BC02120BD8B9BC02120BD842BD27
:1025130002120BD855BD02120BD874BD02120BD890
:102523000FBE02120BD87FBF02120BD826C10212B4
:102533000BD8B5C102120BD8B8C102120BD828C2EE
:1025430002120BD846C202120BD8EBC202120BD8EE
:1025530027C302120BD82AC302120BD8F0C30212EC
:102563000BD853C402120BD88CC402120BD801C56A
:1025730002120BD81FC502120BD86DC502120BD85D
:1025830042C602120BD890C602120BD8D8C602124A
:102593000BD865C702120BD89AC702120BD8CFC744
:1025A30002120BD8DDC702120BD83CC802120BD89B
:1025B300B4C802120BD8F5C802120BD845C90212CF
:1025C3000BD870C902120BD88AC902120BD8A4C93E
:1025D30002120BD87FCA02120BD889CA02120BD877
:1025E300C4CA02120BD8D4CA02120BD8DDCA021213
:1025F3000BD835CB02120BD849CB02120BD87FCCA8
:1026030002120BD892CC02120BD8A9CC02120BD80F
:10261300BECC02120BD84CCD02120BD8B4CD021291
:102623000BD867CE02120BD872CE02120BD8BFCFD3
:1026330002120BD8DBCF02120BD827D002120BD811
:1026430096D002120BD8CFD002120BD8E9D00212C7
:102653000BD82BD102120BD8EDD302120BD8A3D473
:1026630002120BD833D502120BD87BD702120BD828
:1026730093D702120BD896D702120BD8A2D7021205
:102683000BD8B6D702120BD8BED702120BD8F1D78C
:1026930002120BD8E4D802120BD86FD902120BD84E
:1026A30002DA02120BD87BDA02120BD83FDB0212DA
:1026B3000BD861DB02120BD8FADB02120BD857DC02
:1026C30002120BD85ADC02120BD887DC02120BD889
:1026D3009CDC02120BD816DD02120BD862DE02124A
:1026E3000BD86DDF02120BD8F8DF02120BD8FDE016
:1026F30002120BD8BDE102120BD8EEE102120BD885
:1027030014E202120BD81DE202120BD84BE20212A2
:102713000BD8E3E202120BD898E302120BD809E4B8
:1027230002120BD8B0E402120BD837E502120BD811
:1027330076E502120BD8B9E502120BD8F3E50212C3
:102743000BD83AE105120BD8F9B405120BD8CAB469
:1027530005120BD83BB205120BD8DCB005120BD80F
:10276300FAAF05120BD8B3AF05120BD8FC8F0512C5
:102773000BD8138C05120BD8C98A05120BD8218AE2
:1027830005120BD89C8905120BD88B8905120BD81F
:10279300618905120BD8FF9805120BD8D098051242
:1027A3000BD8429705120BD8B69505120BD89894FF
:1027B30005120BD81B9405120BD85D9305120BD889
:1027C300B29205120BD8349205120BD8E19105127F
:1027D3000BD8A5D705120BD841D605120BD8F1EDAE
:1027E30005120BD8CBED05120BD83FEE05120BD813
:1027F30028EE05120BD8D9E805120BD8BE910512A5
:102803000BD8D2DC04120BD8B0DB04120BD8C5E80A
:1028130005120BD8BDD904120BD80FD804120BD84C
:1028230045D704120BD835D604120BD8A8E80512E5
:102833000BD809D604120BD8F5A803120BD89DD5D3
:1028430004120BD816D204120BD889D104120BD858
:10285300EFF404120BD896F404120BD858F40412B4
:102863000BD82BF404120BD8F7F304120BD896F3FE
:1028730004120BD87EF304120BD85AF304120BD8AC
:10288300E1EF04120BD8B4ED04120BD8BBEB041226
:102893000BD841EB04120BD86BE105120BD8F0EA0D
:1028A30004120BD8AAEA04120BD80EEA04120BD8AE
:1028B30078FF0400000080FBE4738F00010095158E
:1028C300870001009315350004005D152500020003
:1028D3006115260002006315270002006515280014
:1028E30001006F15290001007015840004003212E5
:1028F300860001009C142A00010071152B000100C1
:1029030072152C00010076152D0008003E122E00D2
:10291300010077152F0001007815300001007915AB
:10292300310001007A153200010046123300010024
:102933004712340001007B153600010048123800AD
:1029430001007C1539000100751583000200911503
:102953006300010054126400010073156500010057
:1029630074156D00010055127100080036126600DF
:1029730001009015430001008115440002008215F7
:102983004500010084154600020085154700080034
:102993004C124800010087154B0001008815040004
:1029A30001009415A1000100981537000100971547
:1029B3008800010096153C00010049123D0001000A
:1029C3007D154900020089156700010056124D006C
:1029D30002008B154E0001008D154F0002008E156D
:1029E3003E0001008015510001004A12520001000F
:1029F3007E15530001007F15540001004B120000A7
:102A0300000000000001363601010001020100014F
:102A1300030100010401060605020000070100345A
:102A23000801000F090401010D0100FF0E08000059
:102A330017020000190100FF1A0100011B0100FE2B
:102A43001C0100081D0200001F01000120010001FC
:102A5300210200002301000F2402000026010001CF
:102A630027010008280200FF2A0100072B0102406A
:102A73002C0100002D0100012E0100012F0100FF98
:102A830030010B1D310800003A0100083B01000F23
:102A93003C0100013D0100FF3E0400004204000030
:102AA300460400004A0400004E04000052040000E3
:102AB300560400005A040000000000002001AB8A05
:102AC300000001002001AD8A000002002001A98A54
:102AD3000000030042018B88000004004201958836
:102AE3000000050042019F87000006004201C688DE
:102AF300000007003001AA8A000000404201498714
:102B03000000FDFF21419F8A030000002103EB1019
:102B13000300FDFF21419F8A010100003005ED10F4
:102B2300010101003001EE1001010200100139150D
:102B3300010132001001EF100101330010013A15B9
:102B4300010141001901F010010142001901F210C5
:102B5300010143001901F410010144001901F610A9
:102B63000101FDFF21419F8A010371030103010359
:102B73000103010301032203020301031003000302
:102B830000030003000300030003000342030003E8
:102B93002403060300030003040312032503230392
:102BA3002503230304030403000300030003440376
:102BB300000300032303000365032100350381039E
:102BC300000305030003000300030003250323039D
:102BD300030271023001600211027002010202025B
:102BE30002028002100261023A0041006302730292
:102BF3007202620243020002130238000002000262
:102C03000402120200020002000200020402040293
:102C1300370037003C024402000239000002000280
:102C2300650200023502810200020502820283026C
:102C330000020101710101010101110101013101D1
:102C4300010101018001100161013B0014006301D6
:102C530073017201620143010001130106013D0189
:102C6300350004011201000100010001000104010B
:102C73000401330133013C014401320136000001F8
:102C83000001650100013500810100010501820198
:102C93008301000103007100300160001100700026
:102CA3003102200350048000100061000000140072
:102CB300630073007200620043000000130006000B
:102CC30000000000040012000000000000000000EB
:102CD30004000400370037003C02440000000000F9
:102CE30000000000650000003500810000000500C1
:102CF30000008300000036000100060000000F0002
:102D030000000000000000000000000003FFFF00BF
:102D1300000403FFFF0000FFFF0FF4010005C404DC
:102D23000320000100000B0000000000000000036E
:102D3300010F000000000000000000000000000080
:102D43000000000000000000000000000000000080
:102D53000000000030187818361846173C187E1803
:102D63003C188A18421846173C187E18481846170C
:102D7300000000004E18461700000000000000008D
:102D8300541846175A189018601846170000000088
:102D930000000000000000006618A2186C18461717
:102DA3006618A2186C1846175A1890187218461706
:102DB30000004A1C01004A1C0200781B0280721B9F
:102DC30003007E1B0400841B04808A1B0500901BE8
:102DD30006009C1B3000B41B308026283100AE1B3C
:102DE3003300C01B3400C61BFFFF000007ECFDFDD2
:102DF300FDECDCDCCCBCACAC9C9C8C7C7C6C6C5C5F
:102E03005C5C4C4C3C3C2C2C1C1C03EAF5E5D5D5F6
:102E1300C5B5A5959585857575656555554545353F
:102E23003525251515050AA422026E22057A2207E7
:102E330074220C56220D6222FF000000160F0000C0
:102E43000B150B020002220F3300000E0FD0D1D25C
:102E5300D3D4D5D6D7D8D9DADBDCDDDEDF5A696740
:102E6300426565416C6C69616E63653039000000D1
:102E73000403000004030001043030171819213043
:102E83001B1D1F3000034D4C4651181A2505020027
:102E930001191618161618230300303016181920B6
:102EA300231A1C1E30003C40423A3F3F392F473023
:102EB3000C0E020B040B0A0708000F0204020101A7
:102EC3000101090200BE040AE80300000100030037
:102ED300E8030E001E04030916030A1E030A0C046A
:102EE30004080F020C05081504FF74F712072DE9F7
:102EF30090132BF09012E0E4F01214D0901343E4FB
:102F0300F0A3F090132CF0A3F01224001214D69027
:102F13001264E4F0A3F0121DBE0248D074F012074D
:102F23002D74D3120CD485188285198312657054BD
:102F330080606890132BE0F91215488A088B09AE5C
:102F430008AF09EE4F604C7C0080010CEC75F00378
:102F5300A4F8A9F0742928F582742E39F583E49333
:102F6300F46029E493F88E828F83E06870DDEC755A
:102F7300F003A4F8742A28F582742E39F583E493B8
:102F8300C0E0740193F583D0821228BBEEFAEFFB05
:102F9300121536126B70648002330485188285190A
:102FA30083A3E05420602112230A8A088B09AE0808
:102FB300AF09EE4F600A122262EEFAEFFB121536EA
:102FC300126B706420023304851882851983E0A292
:102FD300E050259012E5E0640F7011790012223859
:102FE300E9600990155D120EAC1222508518828596
:102FF3001983E064010232E3542070030232E87A59
:10300300207B0090132BE0F91216AAEA4B4C4D706B
:103013001A90133F120E94E8494A4B700E7508013B
:10302300750900750A00750B00806A750C00750D33
:1030330000750E00750F001216BC8A088B098C0AE6
:103043008D0B90133F120E94E8494A4B6031901355
:103053003F7808120BB0400E750CFF750DFF750E0F
:10306300FF750F7F801985080C85090D8C0E8D0F58
:1030730090133F780C120CA67401780C120C758512
:103083000C08850D09850E0A850F0BE5081235031B
:1030930070030232237C0079047A007B001222E061
:1030A3008A0C8B0DAE0CAF0D0231647402120EC389
:1030B30074FFF07403120EC374FFF07404120EC392
:1030C30074FF1268907407120C9E125F8112606382
:1030D300122328E96401706B1250FA4480F8A3E0CC
:1030E300F97428120EC3E8F0A3E91267BFE0C0E049
:1030F300742A120EC3D0E0124A0C540860167428C6
:10310300120EC3A3E04401123317C0E0742C120E55
:10311300C3D0E0F01263BC60121248AF126474E0D3
:10312300F87416120EC3E8F0A3E4F0908A01120AB1
:10313300567406120C9E740B120C96121EFC740429
:10314300120C258E828F83A3A3A3A3A3A3A3A3A35C
:103153007406123317F91222C27405120EC31264D5
:1031630088EE4F70030232237C007904EEFAEFFB02
:103173001222E07405120EC3EAF0A3EB125728E003
:10318300F50CA3E0F50DE4F50EF50F7808790C12B4
:103193000E1E4023EE2404F8E43FF985080C85094C
:1031A3000D88828983C3E0950CF0A3E0950D126C22
:1031B300A5E84970A4800C8E828F83A3A3A3A3E404
:1031C300F0A3F08E828F83A3A3A3A3A3A3A3A3A39C
:1031D300A3E064018E828F83A3A3A3A3A3A370237D
:1031E300E0540460030230AE8E828F83A3A3A3A3B3
:1031F300A3A3A3A3A37406F07AB712344612224AF8
:1032030002315CA3A3A3A3E060030230AE8E828FDE
:1032130083A3A3A3A3A3A3A3A3A37401F002315C79
:103223001222B07C0079017A007B001222E08B0D20
:10323300EA450D600C7A207B0090132BE0F9121500
:10324300727C0079047A007B001222E0EA4B70134F
:10325300804D8A828B83A3A3A3A31265BEEE98EF4E
:1032630099400B8A828B83A3A3A3A31264887C0057
:1032730079041222E08B0BA90BEA4970D5C3E50848
:103283009EE5099F500DC3EE9508FEEF9509FFEEED
:103293004F70167A207B0090132BE0F91215729071
:1032A300133F123310A3F0802EEE2EFEEF33FF8E6A
:1032B300088F09E4F50AF50B7808120C0A7A207BCB
:1032C3000090132BE0F91216987404120C251216B1
:1032D300BC90133F120EA0851882851983E06420E9
:1032E300FAA3E0801CA3E054046019125C21120FBE
:1032F3003679019012DE126063121F0E126B706436
:1033030004FB80047A007B00742D026391E4F0A334
:10331300F0A3F022124A11A3A3E022C082C0837457
:10332300EA120CD47C167D007900AA18AB19121589
:103333001E7408120EC37402F09012D4125E81122E
:10334300335E7409120EC3125E9A7413120EC3E431
:10335300125B5F121DAC7416024CD5E8F0A3E9F0C2
:103363009012DE1263DA2274F712072D74DA120C4C
:10337300D4EAFEEBFFEE4F602DAC18AD19122328F3
:103383007406120EC3E0601E7417120EC3E0FD74C0
:1033930001120EC3E0FCEEFAEFFB790012220EE9F4
:1033A300600479A48002790074260248CD74F71270
:1033B300072DEAFEEBFF8E828F83A3A3A3A3A3A310
:1033C300E05440601712639E1260631223C4E960E5
:1033D300067AFF7BFF801512639E80039012D4123E
:1033E300606374FE6A700374FF6B604712639E121E
:1033F30065701223C4E98E828F83600E126C3412BF
:103403004CE238F583E4F0A38003126C59F07C3E60
:103413007D228E828F83126063121DB2E9F50870DC
:1034230015EE4F60097901EEFAEFFB1222BCA908F1
:103433000248D07508CDAA0812344612224AE96020
:10344300E080EB8E828F83126C38240CF582E43893
:10345300F583E0F92274F612072DE9FEEAFF7A0FED
:103463007B00121530EA4B601F8A828B83740CF049
:10347300EEA3A3F0EF8A828B8312466590132BE0B1
:10348300F912153C79008034EEF91222E68A088B92
:1034930009A808A909E849602188828983A3A3A30D
:1034A300A3A3A3A3A3A374061265D1A3A3A3A3A356
:1034B300E0F9121FA4EEF91222C279100259227404
:1034C300F412072D8A088B098C0A8D0B9012E5E004
:1034D300640F702812350260239012E0E0640860E4
:1034E30005E0640470167808120C0A7A017B0090D8
:1034F300132BE0F91216987404120C25023768EAAC
:103503004509450A450B2274F412072D74FC120C6D
:10351300D4EAFEEBFF8E828F83A3A3E0F91222E6A7
:103523008A088B09EA450970030236498E828F8324
:10353300A3A882A983E0C0E0EA125B11D0E01244A1
:10354300D064F160288E828F83A3E064CD601E8EE9
:10355300828F83A3E0641A60148E828F83A3E06456
:10356300E9600A8E828F83A3E064E17030790012F0
:1035730022BCE96028E5082404F50AE43509F50BC3
:1035830085088285098312365A1244B61260631283
:1035930014E2850A82850B8312657080788E828F90
:1035A30083A3E0C0E07402120EC3D0E0124CE81211
:1035B3006C93EE240B124BD4C0E07403120EC3D0F1
:1035C300E0F0E508126882123BD4E0AA18AB197048
:1035D30005121EF680031223A67402120EC3E064C2
:1035E300E97032850882850983123D6D750A017879
:1035F3000A120C16750AE9780A120C1612449A126A
:1036030048DDA3A3A3A3A31248D512606312235ECC
:103613007402120C25850882850983A3A3A3A3A39F
:10362300A3A3A3A3E064027012850882850983A380
:10363300A3A3A3A3A3A3A3A37406F08E828F83A340
:10364300A3E0F91222C21222B0901563123B381282
:1036530022507404023765A3A3A3A3A3A3125F6E2E
:103663008E828F832274F412072DEAFEEBFF750816
:10367300008E828F83A3A3A3A3A3E0603B750808F6
:1036830012605679FF12207C8B0BEA450B60107594
:10369300082C8E828F83A3A3A3A3A3E0D2E0F08E92
:1036A300828F83A3A3A3A3A3E05403640160030253
:1036B300375F43081102375FEE2418124BD460368C
:1036C300EE241A124BD46003F47012126576700361
:1036D300A3E069600302375F750822807FEE241B35
:1036E300125F64EE241A124BD4FAEE2419124BD44F
:1036F300F9121F9280661260561223C4E9640270A5
:10370300037508011265767003A3E0697006E50886
:10371300D2E1F508E50860158E828F83A3A3E070DC
:1037230006E508D2E58004E508D2E6F508126056FE
:103733001223C4E964017006E508D2E0F5088E821D
:103743008F83A3A3E06015EE241D125414F91223F2
:10375300ACE964016006E508C2E0F508A908800544
:103763007409120C257F0402099B74F012072D744F
:10377300D7120CD4EAFEEBFF8E828F83A3A3A3A3FD
:10378300E060119015611263C56009901561123BE9
:10379300381222507403120C9E8E828F83A3A3A32C
:1037A300125D33126061122328E970030239037832
:1037B300017405120EC3E0C394024002780074073B
:1037C300120EC3E0C3940240027800740C120EC3BD
:1037D300E064F87003A3E0F47003023903740C127D
:1037E3000EC3E064F97003A3E0F4700302390374B9
:1037F3000C120EC3E064FA7003A3E0F47003023901
:1038030003740C120EC3E064FB7003A3E0F47003B3
:103813000239037406120EC3E0F99012CEE0696018
:1038230003023903E8A2E040030239037427120EAE
:10383300C3E06003023903EE24131263D07422122F
:103843000EC3125D3D241C1263D07410120EC312FA
:103853005E9A7409120EC3E0601D741A120EC3E05F
:10386300FD7404120EC3E0FC8E828F8312606179B3
:103873000112220EE9703D7403120C9612225CE9C8
:10388300F50C7409120EC3E0702E9012C8E0602884
:103893007422550C642260207442550C64427014E7
:1038A3007420120EC3123B44600E7420120EC31216
:1038B3003B3160047ACF804AE9A2E6504D7420126E
:1038C3000EC312541A24FD600F14600C24FD60080B
:1038D30024FD600424FE70287420120EC3123B2AB8
:1038E300700E7420120EC3125A6EA3E0640D601A98
:1038F3007403120C961223DCE96401700D023B255C
:103903007AD37B00121B12023B25EE242DF582E4B1
:103913003FF583123D647003A3E0697022750800CC
:103923007808120C167808120C16EE242F124BD4BA
:10393300F9123B4A12606312235E7402120C25745F
:1039430009120EC3E070030239E7123B4A126063A7
:103953001224308A0E8B0FEA450F7003023A7E74ED
:1039630004120EC3E0F88E828F83A3A3E028F8A38A
:10397300E03400F9E8124CE239F583E0F88A828BEF
:1039830083A3A3A3E068600EE88A828B83A3A3A327
:1039930012465E1233117904E9120EC312511BA3AE
:1039A300E02AF8A3E034008882F583A3AA82AB83DC
:1039B3001215248A088B098C0A8D0B850E82850FBC
:1039C30083A3A3A3A37808120BB04003023B259063
:1039D30089C17808120D9E850E82850F83126C8F24
:1039E300A3124E0E9012E0E064046008E0640960E4
:1039F30003023B25E50CA2E54003023AB8EE242F6F
:103A03001250EBF0EE2430124BD4C0E07401120ECE
:103A1300C3D0E0F0EE2431124BD4C0E07402120E96
:103A2300C3D0E0F07414120EC3E06401702C740E62
:103A3300120EC31244C72413124BD4687003A3E0BD
:103A4300697017740C120EC31260631223C4E96405
:103A53000270077414120EC3E4F0EE2425F582E419
:103A63003FF583120A567404120C9E7407120C96C7
:103A7300121EFC7404120C25023B25901325E064EE
:103A83000160030239E77420120EC3123B4470092C
:103A9300E50CA2E650030239E77410120EC3E0F4FA
:103AA3007003A3E0F4607BEEFCEFFD7403120C964D
:103AB300122268806DA2E650697420120EC3125F51
:103AC3007B7016741A120EC3E064027055740312ED
:103AD3000C9679001223A080497420120EC3123B66
:103AE300317014741A120EC3E06404703574031237
:103AF3000C96122394802B7420120EC3123B2A704F
:103B03000C79007403120C961223E88015742012AA
:103B13000EC3125A6EE0640C70087403120C9612F2
:103B230023F474290263911263A8E06403221263ED
:103B3300A8E0640722E0F508A3E0AA08FBE4FCFD83
:103B43002212541E640622EE242BF582E43F123B1C
:103B530058124BCD22F583125F6EEE2274F41207D6
:103B63002DEAFEEBFF8C088D09901246E0600F12E0
:103B730065767003A3E0697005121F8080497900A0
:103B8300126056121FB08A828B83E5824583602FB1
:103B9300A3A3A3A3A3A3E054186024E508241C1241
:103BA3003BD1120A5A123BCD120A5AEE2418124B79
:103BB300D4F9123BD9121FC27404120C2580087960
:103BC30000123BD9121F86023768E5082413F582D9
:103BD300E43509F583228E828F83A3A3A3A3A3A332
:103BE300A3A3A3123B5A125E781260672274F712E2
:103BF300072D74F7120CD4EAFEEBFF9012E0E06499
:103C030003600DE064016008E064096003023D0B9A
:103C13008E828F83A3E06003023CCE7C007D007A1A
:103C2300027B001214DC123D108A828B831263D64E
:103C33009012D1125E9A7953121D9A9012E0E064A9
:103C43000960099012DE12606312242A85188285A6
:103C530019837401125B5F7942121D9A9012E0740A
:103C630004F07401120C96794A121D947401120C1B
:103C73009E7AD67B121216D4901135E0640B700530
:103C83007406F0800B79009012DE126063121F0E2F
:103C93009012D1125F6A7A037B001214DC9012D463
:103CA300125F6A7A047B001214DC9012CBE0A2E369
:103CB3005004D2F08002C2F0125B557952121D9A61
:103CC30090155D120EAC122250803AFC7D007A03EF
:103CD3007B101214DC901135E0640B7003740AF04E
:103CE30090124AE4F0FA7B4090132BE0F91216A4E9
:103CF3008E828F83A3E0F99012DE126063121F0E8F
:103D03009012E0E4F012229274090248CDEE2402EC
:103D1300FAE43FFB22C082C0839012641263C57031
:103D2300179012E0E024FB6005146007800A9012EC
:103D33006A802090126C801BE8496008901265121B
:103D43003F3C700C8A828B83A3E0F9121F02800E22
:103D530090135A1263C56006125A6F1228BB02559C
:103D63009B1263DA9012DEE068221263DAE8FAE962
:103D7300FB2274F512072D74D8120CD48A088B0910
:103D83008A828B83A3A3A3A3A3A3A3A3E0C3940FB8
:103D93005003023F378A828B83A3A3A312648874E0
:103DA30015120C9E8A828B83A3A3A3A3A3A3A3A30D
:103DB300E0F98A828B8312605A12229E7415120EC6
:103DC300C3E0702E850882850983A3A3A3A3A3A3BD
:103DD300A3A3E0C3940B401A8E828F83A3A3A3A350
:103DE300A3A3A3A3E064027009EE240B124BD4F443
:103DF3006003023F377417120EC3E060076402606A
:103E030003023F379012E0E06402601AE064066048
:103E1300159012641263C57003023F37123F3C6072
:103E230003023F3780329012641263C5702A75080B
:103E3300007808120C167808120C16EE2410F5827E
:103E4300E43FF583125D34A3A3A312365A126063D1
:103E530012235E7402120C258E828F83125E81E818
:103E6300F0A3E91244D91263D67402120EC3125D91
:103E73003D1250FBC0E07404120EC3D0E0F0EE24F8
:103E83000B1265C3740F7808120E5D7405120EC30E
:103E9300E508F07419120EC3E0C0E07406120EC3F5
:103EA300D0E0F0741B120EC3E0C0E07407120EC31F
:103EB300D0E0F07416120EC3E0C0E07409120EC312
:103EC300D0E0F07417120EC3E0C0E07408120EC302
:103ED300D0E0F0EE2410124BD4C0E0740A120EC3EB
:103EE300D0E0F0741A120EC3E0C0E0740B120EC3DC
:103EF300D0E0F07427120EC3E0C0E0740C120EC3BE
:103F0300D0E0F0741C120EC3A982AA8389088A091F
:103F1300750A007808120C0E7C087D007410120ECE
:103F2300C3AA82AB831215127403120C25AA18AB11
:103F330019121F087428024A21E0C8125F5A64014B
:103F43002274F212072D74F8120CD48A0A8B0B8C8C
:103F53000C8D0D8908908923AC18AD197408120BC8
:103F630051C200AC0AAD0BAA18AB191216CEE970F8
:103F730002D20090132C8014AC0AAD0BEE240BFA82
:103F8300E43FFB1216CEE9701B124BBA12481960BC
:103F93001EA20040E38E828F83E0650C7004A3E0D1
:103FA300650D70E58E828F83A3A3E0650870DAEE5A
:103FB300FAEFFB74080244E6C082C08390132C021C
:103FC3005598C082C08390132CE4F0A30242357449
:103FD300F712072D90132C126B76800FEA2414F539
:103FE30082E41264851215D8EEFAEFFBEA4B70EC0B
:103FF30090132CE4F0A3F00248D074F212072D8A38
:104003000C8B0DECFEEDFF890B8A828B83125B1CFC
:10401300F0A3A882A9838A828B831240C6124659D1
:10402300A3E0C454F0FA88828983E04A12513F85A1
:104033000C828B83A3A31240C61240D9E0333354BE
:10404300FC1240CDE033333354F81240CDA3E0A249
:10405300E0E4331313FA88828983E04AF0EE240301
:10406300FE50010FE50C2407F508E4350DF509753D
:104073000A007808120C0E7C087D00EEFAEFFB12A2
:1040830015127403120C25EE2408FE50010FE50CE3
:10409300240FF508E4350DF5097808120C0E7C039E
:1040A3007D00EEFAEFFB1215127403120C25E50BDB
:1040B300C3940F400BE50C124CDC350D1256E7F0A0
:1040C3000244E9A3E08882898322FA88828983E013
:1040D3004A1240D9A322F0850C828B83A3A3A3A306
:1040E3002274F212072DEAFEEBFF8C0C8D0D8E82EB
:1040F3008F83E08C828D8312571DA882A983E0549D
:104103000F8C828D831244CFC412553E1251351247
:1041130055461244CDA2E2E4338C828D831244CC03
:10412300131313541F12553E1244CCA2E7E4338CED
:10413300828D83A3A3A3A3A3A3F0EE2403FE5001C4
:104143000F8E088F09750A007808120C0E7C087D03
:1041530000E50C2407FAE4350DFB12151274031263
:104163000C25EE2408FE50010F8E088F09780812E3
:104173000C0E7C037D00E50C240FFAE4350DFB12D5
:1041830015127403120C258E828F83A3A3A3E0C0A0
:10419300E0126CADD0E0F00244E974F612072DEAA8
:1041A300FEEBFF8E828F83A3858208858309E0F966
:1041B300121F26850882850983E064EB601E8E82C8
:1041C3008F83A3E064E160148E828F83A3E064F1A4
:1041D300600A8E828F83A3E0641A70078E828F83B6
:1041E300A3E4F090155D120EAC122250750801780D
:1041F30008120C168E828F83A3E0F5087808120C40
:104203001679009012DE125F6A9012D41260631264
:10421300235E7402120C251222B0025922C082C0FE
:1042230083E990133E7003E4800274018004EAF092
:10423300A3EBF002559BE0F902559B74F612072D90
:1042430090133EE0701B7C0079017A007B00122200
:10425300E0EA4B600C8A828B831263C560031222EF
:1042630044025922C082C08379041222DAE9F89009
:104273002EE8E493C398401079FF1222DAE9F8900C
:104283002EE7E493C3985004790180027900025524
:104293009B74F212072D8A0A8B0B8909C2008A824A
:1042A3008B83A3A3A3A3A3A3A3A3E0F91222E68A68
:1042B3000C8B0DAE0CAF0D750801EE4F600302437E
:1042C3007D850A82850B83A3A3A3A3A3A3125F6A9D
:1042D300850A82850B83A3A3A3A3A3A3A31244B636
:1042E3001260631222CE8A0C8B0DAE0CAF0DEE4F13
:1042F30070030244938E828F83A3A3A3A3E4F0A34A
:10430300F0E50A240CFAE4350BFB8A828B83E0C0C8
:10431300E012449AD0E0F0E50A240D1244C0240DC3
:10432300125E941223CAEE240F12656AE50A241161
:104333001244C02411125E94E50A24131265B5C019
:10434300E0124BC8D0E0F0D200EE24061250E21285
:1043530044AD1244D0540460030243EB90156FE064
:10436300F50A750B007407780A120DEA8E828F83A3
:10437300A3A3A3A3A3A31244A4F08E828F83A3A316
:10438300A3A3A3A3E0F50AA3E0F50B7407780A122D
:104393000E5DE50A5407FCE509605C8E828F83A3FA
:1043A300A3A3A3A3A3A3A3A3740212572212478D0B
:1043B300600B9012CC125168A3A3125E9AEC7003A7
:1043C30002445EEE2406126C161244ADF0EC24FF98
:1043D300F50AE434FFF50B7407780A120DEA8A82B2
:1043E3008B831244A4F080738E828F83A3A3A3A331
:1043F300A3A3E044808082EC7005750800805C8E86
:10440300828F83A3A3A3A3A3A3E05420600C12155C
:104413002AEA547F7900245F80198E828F83A3A3B5
:10442300A3A3A3A3E05410601A12152AEA540F7928
:1044330000240A5001098E828F83A3A3A3A3F0A3B0
:10444300E9800D8E828F83A3A3A3A37401F0A3E459
:104453001244D97404124711121572A20050348EFB
:10446300828F8312365CA3A3A3A3A3A3A3A3A3E076
:10447300F9EEFAEFFB1222D4E960181263BC60096B
:104483001248AF1260631215D8EEFAEFFB1215D87B
:10449300750800A908804FEE240CF582E43FF583EC
:1044A30022E0450AF0A3E0450B22E0547FF0A3E0AD
:1044B30054FC22A3E0F9850A82850B8322F582E46A
:1044C300350BF5831263DAEE22A3A3A3A31244D41C
:1044D300221265DCE0221244DD22124A15A3A3A3B3
:1044E300227403120C257F0602099B74F412072D14
:1044F30074F7120CD47E001222E6EA4B70030245D5
:10450300AD8A828B83A3A3A3A3A3A3A3A3A3E064E2
:104513000660030245AD8A828B83A3A3A3A3A3A34F
:10452300A3E0FF8A828B83126C3EE0C0E074081222
:104533000EC3D0E01248F3125E86125E9A1222F87E
:10454300EF54086063851882851983125F6A7A00C5
:104553007B001222C88B0BEA450B704C126CB9120C
:104563001DCA7C007D007A007B0080288E828F83A9
:1045730012541AF47003A3E0F4602D9012DE123685
:1045830060126063121DC4E9641A601C7C007D0024
:10459300EEFAEFFB1222C88A0A8B0BAE0AAF0BEEC0
:1045A3004F70C97900121DD07E01EEF9023763C046
:1045B30082C0838A828B83E582458370099013438B
:1045C30080068A828B83A3A31247C160208A828BD1
:1045D30083A3A3A3A3A3A3A3E0540860E5EC4D60C6
:1045E300101247C77003A3E06D70D780047A007B75
:1045F3000002559B74F212072D8A088B09890AEC75
:10460300FEEDFF7A147B001215D2EA4B603B8A82DF
:104613008B83A3A3A3A3A3A3A3A3A3E41248E8A305
:10462300E50A126597A3A3A3EEF0A3EF12465E1269
:1046330048FA1246658A828B83126C93EA240F121E
:10464300464F124658A3F0A3F00244E9F582E43B37
:10465300F583E4F022A3126C76A3221265A7E4F09B
:10466300A322A3F012647E1246522274F512072D80
:10467300EAFEEBFF890A8C088D09EE4F70030247AF
:104683000C7401650A701279011222DAE9F8902E8E
:10469300E9E493C398502280167404650A70147970
:1046A300041222DAE9F8902EE8E493C398500A79C9
:1046B3001180587402650A70508E828F83A3A3A35E
:1046C300A3A3A3A3A3A3E50A125722126C8F8E827E
:1046D3008F83A3A3E4F0A3F09013431263C5601880
:1046E30080031263D688828983A3A31247C1888279
:1046F3008983A3A370EC8003901343EEF0A3EF121E
:1047030047111215727900800279C1024A24F07AA6
:10471300207B0090132BE0F922C082C083E9F87953
:1047230000901343801D8A828B83A3A3A3A3A3A317
:10473300A3A3A3E068600574FF687001098A828BF4
:1047430083A3A31247C170DE02559B74F712072D92
:10475300EA4B700590134380068A828B83A3A312CE
:1047630047C1601F8A828B83A3A3A3A3A3A3A3A38D
:10477300A3E06970E4EC600F8A828B8312478D702B
:10478300D880047A007B000248D0126C62E05404A3
:1047930022C082C08390134380068A828B83A3A3A3
:1047A3001247C160128A828B83A3A3A3A3A3A3A3EB
:1047B300A3E06970E580047A007B0002559B1260D8
:1047C30067EA4B228A828B8312541E6C2274F21284
:1047D300072D8A0A8B0B8C0C8D0D7508007509004B
:1047E300EA450B602A90134380068E828F83A3A32E
:1047F300124819601AAC0CAD0DEEFAEFFB850A8274
:10480300850B831228BBE9640170DF8E088F09AA28
:1048130008AB090244E9E0FEA3E0FFEE4F2274F780
:1048230012072D9013431263D67C007D00800DE8A0
:10483300FCE9FD88828983A3A31263D6E84960302B
:10484300EA687002EB6970E7901343126063E86AE9
:104853007002E96B88828983A3A370081263D690E0
:10486300134380091263D68C828D83A3A3125E9AAD
:10487300805B74F712072DEAFEEBFFEE4F602B12FD
:1048830022F21248BD1260631215D88E828F8312F2
:1048930060631215D81263BC60091248AF126063DB
:1048A3001215D8EEFAEFFB1215D88021EE1248B498
:1048B30022240FF582E43FF583228E828F83E0F872
:1048C300A3E0C8125F9438F58322120C257F0102FE
:1048D300099B125F6E8A828B8322E0F98A828B8323
:1048E300A3A3A3A3221248EC221265ABA3A3A32282
:1048F300126C7612541E221248ECA3A32274F612F1
:10490300072D90134312648880308E828F83A3A374
:104913001265C91248BD1260631215D88E828F8347
:104923001260631215D81248AF1260631215D8EEE5
:10493300FAEFFB1215D8AE08AF09EE4F70CC901307
:1049430043E4F0A3F0025922C082C083EAFCEBFDEA
:10495300EC4D6017EC24FBF582ED34FF1263C3705A
:10496300071249A5E0F460071215367905803090E7
:10497300132BE0C0E01249A5D0E0F0902EE0E493C1
:10498300F97A457B1312156CE9640170107A007B88
:104993002090132BE0F9121572790080027904023A
:1049A300559BEC24FFF582ED34FFF5832274F4125A
:1049B300072DA2AFE433F508C2AF9013451248198F
:1049C300603AEE24FBF582EF34FF1263C37A007B77
:1049D3002090132B6007E0F91215728005E0F9129D
:1049E3001578E4F50AF50B780A120C12EEFCEFFDCC
:1049F3007A457B131215667402120C25E508A2E0B2
:104A030092AFEEFAEFFB023768124A11E022124A24
:104A13001522F08E828F83A3A3A3A3A3A322120C38
:104A2300257F0302099B74F212072D74FA120CD42A
:104A3300EAFEEBFF7508FE7509FF1222B6E9600571
:104A43007911024BB5124BD1603B901588E0C4330A
:104A530054E0F8E0333354FC48C0E0126254D0E031
:104A63001265E2FAA3E0FB79FF12207C8B0BEA4587
:104A73000B60127508FFEE240F124BD44404F0129E
:104A83004BD1D2E0F08E828F831260611223C4E98E
:104A93006006EE24121265F9EE2413124BD4700D46
:104AA300902EDEE493C0E0124BC8D0E0F08E828FEC
:104AB30083E0A2E7500454038019EE2414124BD46C
:104AC30070129012BDE0C0E0124BBAD0E0F0901229
:104AD300BDE004F0EE2411124BD46401701690155E
:104AE30073E0600D9012C8E0700A8E828F83E070CD
:104AF300031265F68E828F83E064017013EE240B3C
:104B030012541464027009EE240F124BD44440F083
:104B1300AC18AD19EEFAEFFB1223228A0A8B0B7441
:104B2300FE6508700374FFF470098E828F83A3A35C
:104B33001265C9EA450B60768E828F83E0C0E0740C
:104B430001120EC3D0E0F07404120EC3EEF0A3EF13
:104B5300F0EE241E1263D07402120EC3125E9A7416
:104B630001120C8E880C890D780C120C12EE242085
:104B7300124BDC120C161248AF120A5AEE240E1214
:104B83004BDC120C169012D1120A5A7408120EC37F
:104B9300E0F9AC08AD0912231C7408120C25E9FED8
:104BA30074106E700BAA0AAB0B1215D880027E101C
:104BB300EEF974060244E6124BBE22EE2414F5828B
:104BC300E43FF58322EE124BCD22125B4C22EE24FE
:104BD30015F582E43FF583E022F582E43FF583E0B7
:104BE300F50C780C22C082C08374D7120CD4908148
:104BF3002B7403120C9E7426120B518A828B83A38F
:104C0300A3A3A31263D6740E120EC3126C6EA3A3D6
:104C13001263D6740C120EC3124CF0124CE21258EB
:104C230045C0E0741A120EC3D0E0F01262D11263D1
:104C3300D47420120EC3124CF0125B0B125845C0F1
:104C4300E07408120EC3D0E0F0EA241CF582E43BC2
:104C53001263D47412120EC3124CF02411F582E4C1
:104C6300125845C0E07409120EC3D0E0F0124CDBB9
:104C7300125845C0E07407120EC3D0E0F0EA241EB8
:104C8300F582E43B1263D47424120EC3124CF02455
:104C930020F582E4125845C0E07426120EC3D0E01A
:104CA300124CE874FFF07401120EC374FFF0740227
:104CB300120EC374FFF0908A01120A567404120C88
:104CC3009E7407120C96121EFC7404120C257900B4
:104CD3007429120C2502559BEA2412F582E422243E
:104CE3000DF582E422F085188285198322E8F0A36A
:104CF300E9F0EA2274F412072D74EC120CD48A0A38
:104D03008B0B8C088D09E9FF7E107A217B0012152D
:104D1300D2851882851983EAF0A3EB1263CBE849A5
:104D23007003024E057C217D007900851882851968
:104D330083E0FA12151E9012DE12606385188285D5
:104D43001983126C342409F582E43812656E7420D9
:104D5300120EC31263D67411120EC312549112634E
:104D63007E38F5837402125495126C457402125402
:104D73007EE508F0A3E509125495126C23EFF07455
:104D830022120EC3125432F9A3E0C912688239F514
:104D930083E8125130A3E0C9125F9439124E0C74A8
:104DA30023120EC31260637406120EC3126570746D
:104DB30008120EC3E8F07426120EC31263A2C08257
:104DC300C083740C120EC3AC82AD83D083D08274C3
:104DD30005120B517425120EC3E0C0E07413120EBA
:104DE300C3D0E0F07900AA18AB191222BCE9640120
:104DF30070047E00800C851882851983126063120B
:104E030015D8EEF97414023765F583E50AF0A3E5C6
:104E13000BF02274F012072D74FF120CD4EAFEEB90
:104E2300FF8C088D098E828F83A37408F0EE2416FD
:104E3300124BD460088E828F83A37410F0EE241774
:104E4300124BD460098E828F83A3E02408F0124BA7
:104E5300D160088E828F83A3E004F08E828F83A3B8
:104E6300A3A3A3A3A3E060198E828F83A3A3A3A309
:104E7300A3A3A3E0C3332402F88E828F83A3E02885
:104E8300F0EE24111250EB6004740E8001E4F090F4
:104E93001580E0640170168E828F83E06401600DDB
:104EA30090124AE060071250D8740180041250D85F
:104EB300E41251308E828F83A3E01250F928298C9B
:104EC300828D83F0EE2411124BD460139012C9E04B
:104ED300F9122214E9F8850882850983E029F0850F
:104EE3000882850983E0C394754009750C00750D2C
:104EF300000250CFE0FA7B001215D28A0C8B0DEA28
:104F0300450D70030250CF8E828F83E0FA9012CE4C
:104F130012512974027808120DEAEA4508FAAB091E
:104F2300EE241212512374067808120DEAA808EA37
:104F330048FCEBFD124BD16004780180027800EE4F
:104F43002416FAE43FFBE4C8F9ED49FDEE241112FF
:104F53004BD4F508880974097808120DEAED450960
:104F6300FD8A828B83125129740B7808120DEAEDA6
:104F73004509FDEE2417125123740C7808120DEA2B
:104F8300ED4509FD8E828F83A3A3A3A3A3A312518F
:104F930029740A7808120DEAED4509FDEE2423125F
:104FA3005123740D7808120DEAECF8ED4509F9E880
:104FB300850C82850D83F0E9125135850C82850DB0
:104FC30083125158F0EE24041250E212510D125183
:104FD30058A3A3125B4212510DA3A3A3A3126C897E
:104FE300850C82850D83A3A3A3A3A3A3A3F0750BB1
:104FF300088A828B83E06015EE2418125F64E50C47
:105003002408FAE4350DFB1216D4750B10EE2417A1
:10501300124BD46019EE241A125F64A80BE50C2816
:10502300FAE4350DFB1216D47408250BF50B8E82AA
:105033008F83A3A3A3A3A3A3E06055EE2407F50ED8
:10504300E43FF50F850E82F583E0C0E0125100D0F6
:10505300E0125148E0C0E008125102D0E01251487A
:10506300A31263AF120C0E850E82850F83E01253D9
:10507300E4A80BE50C28FAE4350DFB1215127403B2
:10508300120C25850E82850F83E0C333250BF50BA8
:10509300124BD16008C0E0125100D0E0F0125E73F1
:1050A3001263AF120C0E1250FAFC7D007403120E41
:1050B300C312511BE0F8E50C28F8E4350DF9E82A92
:1050C300FAE439FB1215127403120C25AA0CAB0D6A
:1050D3007401026391EE2423F582E43FF58322F801
:1050E300E43FF98882898322F582E43FF583E085F2
:1050F300188285198322F8EE126A72E022A80BE562
:105103000C28F582E4350DF5832212511122E08536
:105113000C82850D83A3A322E0FA8E828F83A322C0
:10512300F582E43FF583E0F50875090022126C7CF3
:10513300F922A312513F88828983E022F0EE2402F0
:10514300F8E43FF922F0050B8E828F83A3A3A3A378
:10515300A3A3A3A322A3A31265DCA3125111A32229
:1051630074030237651263DA8E828F83A3A32274DA
:10517300F012072D74FD120CD48518828519831241
:1051830065707402120EC3E9F08C0C8D0D750B0162
:105193007C267D007900AA0CAB0D12151E74021239
:1051A3000EC3E0C39408500302536EE0850C82855E
:1051B3000D83F0AC0CAD0D85188285198312541A3A
:1051C300FA851882851983125A6E12571112232EEB
:1051D300E96003750B008518828519831263A21297
:1051E300543CE0F9EA850C82850D83A3A3A3A3A312
:1051F300A3A3A3A3F0A3E912547EA3A312543CA335
:10520300A3E0F9EAF8E50C12637E126CB412549130
:10521300125F56C0E0E50C2411126CB1D0E01254B9
:10522300952407F582E438F583E0C0E0126CADD035
:10523300E01254687408125475A3E0602085188244
:10524300851983E02408F8A3E03400F9E50C24135E
:10525300126CB1E8F0A3E91263792408F0850C829B
:10526300850D83A3A3A3A3A3A3A3A3E0602A850C13
:1052730082850D83A385820E85830F125429F8A39B
:10528300E03400F9E50C125B0B350D125E98850EC8
:1052930082850F83E02408F01253EBE4F01253FBF2
:1052A300E4F0A3125468A3A3A3A3E0601112544D26
:1052B300850C82850D83A3A3A3A3A3125486E50CB7
:1052C30012540CE0700302535A12544DFA1253EB6A
:1052D300EA125486F8851882851983E028FBA3E037
:1052E30034008B82F583E0F8E50C241A126CB1E8E4
:1052F300125486E8C39AE50C5058125407F8902EBE
:10530300E1E493C39850047E0C8006E50C12540725
:10531300FE850C82850D83125428F508A3E0340022
:10532300F509750A007808120C0EEE1253E47AECB4
:105333007B071215127403120C251253FB74ECF045
:10534300A37407F0EEC333F8850E82850F83E0283C
:10535300800412540CE4F0850C82850D83A3E0F8DD
:10536300850C82850D83E0C39850047900806F1209
:105373005428FAA3E03400FBE50C1265F0350D1256
:10538300656E850C82850D83E0C398C0E0E50C242F
:1053930017126CB1D0E0125475E06040E50C24178D
:1053A300FEE4350DFF8E828F83E024F2F0E50C24BA
:1053B3001DF8E4350DF988828983E0240EFAA3E011
:1053C3003400FB888289831265709012C9E0F91258
:1053D3002214E9F88E828F83E0C398F0A90B02634D
:1053E3008F25E0FCE433FD22E50C1253F12224194E
:1053F300F582E4350DF58322E50C241BF582E435B3
:105403000DF583221253F1E022126373350DF583F8
:1054130022F582E43FF58312541E22E0F8A3E0F55F
:10542300838882E022A312542D221254322822E0D0
:10543300F8851882851983E022A3A3E0FA851882F0
:105443008519831263A8A3A3A322850C82850D83E8
:10545300A385820E85830F12542DFAA3E034008AAC
:1054630082F583E02212546C22F0850C82850D8331
:10547300A32212546CA3A3A3A3A32212549AF583C9
:10548300888222F0850E82850F83E004F022E8F003
:10549300A3E912549AC822126C80F8A3E02274F490
:1054A30012072D8A088B09EA125546A3A3F0EA13C3
:1054B30013543F12553EA3A3F0EAC41313125546E7
:1054C3001255507409780A120E5D125535A3A3A321
:1054D300A3A3A3F0EB12553712554F740A780A129F
:1054E3000E5DE50A5401C0E0EC1263733DF583D011
:1054F300E0125554740B780A120E5D12553512558D
:105503004D740C780A120E5D125535A312554D7465
:105513000D780A120E5DE50A5401C0E0EC2424F56F
:1055230082E43DF583D0E0F0740E7808120E5D023C
:10553300375FE50A54018C828D8322540F8C828D50
:1055430083A32254038C828D8322A3A3A3A3A3A3A7
:10555300A3F08A0A8B0B22C082C08379008A828BD4
:1055630083A3A3A3A3A3A3E09012C8600EE07023B8
:105573008A828B83A3A3E0701A8016E060158A8267
:105583008B8312605A9012D1E06A7003A3E06B60C0
:105593000279018003126063D083D082020BD57439
:1055A300F212072D8A0A8B0B890CECFEEDFF8A821F
:1055B3008B8312570F12232E850A82850B83A3A395
:1055C300125703E0F9EA8E828F83A3A3A3A3A3A3B5
:1055D300A3A3A312572E125703A3A3E0F9EAF812C9
:1055E3005E73E812572EA3A3E0C0E0EE2411F58208
:1055F300E43FF583D0E0125735A3A3A3E0C0E0EE68
:10560300124CDC3FF583D0E012571D740812572863
:10561300A3A3A3E06016E50A2408F8E4350BF9EE2A
:105623002413125B2212571DE02408F08E828F830D
:10563300A3A3A3A3A3A3A3A3E060148E828F83A336
:105643001256F2EE2415125B22125D552408F08ED9
:10565300828F83A3A3A3A3A3E0601F8E828F83A360
:10566300858208858309E0F8E50A28F582E4350B8D
:105673001256E7A3A3125D5504F0EEFAEFFB1223D3
:1056830034E9F50D70598E828F83A3A3A3125B199E
:10569300A37014E0F8E50A28FAE4350BFBEE241DA9
:1056A30012656AE50C80281256F2E8240EF85001C0
:1056B30009EE241D125E949012C9E0F9122214E936
:1056C300F8850882850983E0F9E50CC39924F2C3C0
:1056D30098C0E0EE2417F582E43FF583D0E0F0A90B
:1056E3000D0244E9F583E08E828F83A3A3A3228571
:1056F3008208858309E0F8E50A28F8E4350BF922E6
:10570300E0FA850A82850B83A3A3A322E0FAA3E030
:10571300F8E4C8F9EA28E439FB22125722A322F05D
:105723008E828F83221265E7A3A322F0A3E9125787
:105733003522F0850A82850B83A3A3A3A322C0820B
:10574300C0837A517B1379E2121D947A517B130241
:10575300559BC082C0839012D1025598C082C083EA
:105763009012D4025598C082C083794A121D9402C4
:10577300559B74F612072D901359E0FE04F0EEF9D1
:105783001222E68B09EA450970EDEE60EAF9025947
:105793002274F212072DEAFEEBFF8C088D09890AA9
:1057A300122430740E120EC3E0F9740F120EC3E00C
:1057B300F8EA4B7012E8701BA90AAC08AD09EEFABF
:1057C300EFFB12244E8071E86017E970068A828B22
:1057D30083E4F07401687060E99013607027E480DB
:1057E30021E97054EA2402F582E4125845A80A28F4
:1057F300F8E4340013E813F0703E8A828B83A3A38A
:105803007401F08033E004F0901570E0F8901360B9
:10581300E0C3984023E4F09012D4E06E7003A3E059
:105823006F7015EEFAEFFB7901121F207A017B00EE
:1058330090132BE0F91216A40244E974272AF58287
:1058430074073BF583E02274F412072D8A088B0951
:105853008C0A8D0B9089C17808120CFF700E7A01A7
:105863007B0090132BE0F9121572803190155D784F
:1058730008120E4E12350260187808120C0A7A01CB
:105883007B0090132BE0F91216987404120C2580F8
:105893000C7A017B0090132BE0F91216A4023768EF
:1058A300C082C083901561024231C082C0839015CB
:1058B3006302423174F612072D7E007508BD750927
:1058C300127808120C127C6E7D007A217B0012166E
:1058D3004A7402120C25E9640A70027E01121E72D8
:1058E300E9640A7004EED2E1FE90040E1263C5600F
:1058F3000F125A6F1228BBE9640A7004EED2E3FE5A
:105903001220A0E9640A7004EED2E4FE121D16E927
:10591300640A7004EED2E5FEEEF98003120C257FD3
:105923000202099B74F612072D1214D67508BD7571
:1059330009127808120C1275086E7509007808129E
:105943000C127C007D007A217B001216567404121F
:105953000C25121E789004101263C56006125A6F4C
:105963001228BB1220A6121D2880B474F612072D2C
:1059730074FF120CD47E007508BD750912780812E5
:105983000C127C6E7D007A217B0012164A7402127F
:105993000C25E96003025A537808120C1275086E3D
:1059A3008E097808120C127C007D007A217B00128C
:1059B300165C7404120C25E96003025A539012D149
:1059C300E064FE7003A3E0F47003025A537E019077
:1059D30012E0E064086005E06404706F8518828556
:1059E3001983EE125B5F7942121D9A7AE87B127972
:1059F30043121D9A7AE57B127947121D9A7AD67B58
:105A030012794A121D9A7AD47B12794B121D9A7A13
:105A1300DE7B127950121D9A7AD17B127953121DB3
:105A23009A7AE67B127954121D9A7AD37B1279E122
:105A3300121D9A9012CBE0A2E35004D2F08002C26E
:105A4300F0125B557952121D9A80051214D67E000E
:105A5300121E669004121263C56006125A6F122852
:105A6300BB1220B2EEF9740102591FA31263A922DB
:105A730074F612072DE9FEA2E050267508BD7509DC
:105A8300127808120C1275086E7509007808120C4A
:105A9300127C007D007A217B001216567404120CCE
:105AA30025EEA2E35003121E6CEEA2E2500E900408
:105AB300141263C56006125A6F1228BB025922746E
:105AC300F712072D74ED120CD4E9FE90132AF0ACF3
:105AD30018AD1990159EE0F97A2E7B1312229E744D
:105AE30012120EC3EE125B00AA18AB191222987A97
:105AF3002E7B137945121D9A74130248CDF090152D
:105B03009EE0F97C2E7D13222415F582E422126493
:105B13007F3509F58322A3A3A3E08E828F8322F529
:105B230082E43FF583E8F0A3E922EE12647F3FF5B8
