:020000040000FA
:06000000020E2602056756
:03002B00020BD5F0
:030033000203487D
:030053000204960E
:03006300020AF19D
:03007B000201EE91
:100083000204F80101FFFFFFFFFFFF640401060004
:1000930000000000000000010101010101E188EA04
:1000A30088E487CF864882B284FE866C888E85FE7C
:1000B30087EF865688BF86C682A782E5829611F0AF
:1000C300010000023D8A02318A00F0FF07000800A8
:1000D30000FFFF0000050400000003000147726FEA
:1000E300757000FF0400100020FD00020206FFFFF0
:1000F300FFFF1E20190000000000000000000000A8
:1001030000000000000000000000002619000000AD
:1001130000000000000000000000000000000000DC
:1001230000000000000000000000000000000000CC
:10013300000000000000000000000000002C190077
:1001430000000000000000000000000000000000AC
:10015300000000000000000000000000000000009C
:10016300000000000000000000000000000000008C
:1001730000000001010A040150000003848900000B
:1001830000010400008C110000002C010000FFFF9F
:10019300011201881300002C01000064006400B800
:1001A30001A0BB0D00A0BB0D000202020704010564
:1001B3001E02051E020A0A0108080103B80B028089
:1001C3003E0102FEFFE8030A050001FFFF020A01E8
:1001D3001401E005030101FF0F772C000000004B21
:1001E3002B00000000FF000000FF00C0E074F112CC
:1001F30007E6A2AFE433FED2AF539AEF538DBFA20B
:100203009640787A587B1B1227D8120337A2C15025
:10021300030202B0A29650F212032B9003DAC3E05A
:1002230094D0A3E0940740539003D4E4F09003D513
:10023300801CECF4FA88828983E05AF09003D5E0BD
:1002430004F0E064087008E4F09003D4E004F012D2
:1002530003377A907B011227D8A2965036A2C15059
:10026300F8C2C19003D4E060129003D5E0700C7A19
:10027300207B00901144E0F9121554439A10438DEA
:1002830040758A00C2EB751A00EEA2E092AF7F02BE
:100293000208451227D29003D8EAF0A3EBF07A9034
:1002A3007B011227D8A2964008A2C150F8C2C18090
:1002B300CA12032B9003D8E0F8A3E0F99003DAE025
:1002C30028F8A3E039F99003D6E8F0A3E9F0900306
:1002D300D6E02488F8A3E034FFF9C3E894E7E9946F
:1002E3000050987508017509009003D5E07808124D
:1002F3000DD2E508FC9003D4E0F8747028F8E434D8
:1003030003F99003DAC0829003D8E0FAA3E0FB7507
:100313008303D082C3E09AA3E09B400302023588A3
:10032300828983E04C02023E1227D29003DAEAF07C
:10033300A3EBF022E5C9540F44A0F5C9E5C9540F56
:100343004450F5C922C0E074F11207E6A2AFE433CA
:10035300FED2AF539AFD53ACFEA2A0407579FA12B8
:1003630027CC120485A2C4500A9003DCE064076022
:100373005FC2C4A2A050EB1227C6E9FA9003DCE0E7
:10038300F8E4C8F9EA2890036EF0A3E9F090036E4D
:10039300E094F4A3E094014039900368E4F09003FF
:1003A30069801CECF4FA88828983E05AF09003692F
:1003B300E004F0E064087008E4F0900368E004F0FF
:1003C30012048579641227CCA2A0501EA2C450F84F
:1003D300C2C4439A0243AC01758B00C2E8751A008C
:1003E300EEA2E092AF7F020208451227C6E990030E
:1003F3006CF0A3E4F079641227CCA2A04006A2C457
:1004030050F880CC1227C6E990036EF0A3E4F09075
:10041300036CE0F8A3E0F990036EE028F8E439F9FF
:1004230090036AE8F0A3E9F090036AE024E2F8A3FA
:10043300E034FFF9C3E8943AE99400509575080154
:10044300750900900369E07808120DD2E508FC9065
:100453000368E0F8740428F8E43403F990036EC0E9
:100463008290036CE0FAA3E0FB758303D082C3E0C0
:100473009AA3E09B40030203A688828983E04C028F
:1004830003AFE5C9540F44A0F5C9E5C9540F44505F
:10049300F5C922C0E074F11207E6A2AFE433F5090F
:1004A300D2AF85A708AFA1EF5508FE74105E6006B2
:1004B30012124E75A1EF74085E600812125475A1F2
:1004C300F78024EFA2E092F0E508A2E082F0501753
:1004D300906198E0F89004A5E0C398A2D265D03368
:1004E3005002E8F075A1FE751A00E509A2E092AF8B
:1004F3007F02020845C0E074F21207E6A2AFE433BC
:10050300FED2AF9061A4E0F8759B00E591585408C2
:1005130060087591F71212A28023E5915854106078
:10052300087591EF1212A88014E591A2E092F0E809
:10053300A2E082F05007E0C2E0F01213FE9061A344
:10054300E0F8E5E9585404600E1213D475E9FB9002
:100553006193E0A2E640F2751A00EEA2E092AF7F4B
:1005630001020845C0E074F21207E6A2AFE433FECD
:10057300D2AF9061A5E0F8E5BF585404600675BF9B
:10058300FB12141680D1C3E498F8E499F91205CA52
:100593008026C3E49AFAE49BFBE920E7E91205CA43
:1005A300E498F8E499F922C3E498F8E499F9120578
:1005B300CAE498F8E499F9C3E49AFAE49BFB22EBC2
:1005C30020E7CFE920E7E0B90010BB0008E88AF094
:1005D30084F8AAF022E4FBC8FA22EB70227B10C84D
:1005E30033C8C933C9335007C39AC3DBF280069AB1
:1005F30050012ADBEAC833F4C8C933F4C9FA2275B7
:10060300F008E4C833C8C933C933C99AC99B500435
:10061300C92AC93BD5F0ECFBC833F4C8E4C9FA22B4
:10062300080808EAC0E0EBC0E086F0E7A4FA18097E
:1006330086F0E7A42AFA180986F0E7A42AFA18092B
:1006430086F0E7A42AFA1986F0E7A4FBE5F02AFA74
:10065300190886F0E7A42BFBE5F03AFA190886F0AF
:10066300E7A42BFBE5F03AFA18180986F0E7A4C5CE
:10067300F02BFBE43AFA1908E7C5F0C6A426F6E521
:10068300F03BFBE43AFA1886F0E7A4F6E5F0082617
:10069300F6E43B08F6E43A08F6D0E0FBD0E0FA22B1
:1006A300E4CFC0E0E4CEC0E0E4CDC0E0E4CCC0E001
:1006B30075F020E626F608E633F608E633F608E694
:1006C30033F6181818EC33FCED33FDEE33FEEF333D
:1006D300FFC3EC9709ED9709EE9709EF97191919DD
:1006E300400FFFEC97FC09ED97FD09EE97FE1919F2
:1006F30006D5F0BFECF709EDF709EEF709EFF719A7
:100703001919D0E0FCD0E0FDD0E0FED0E0FF2225B7
:1007130018C582C0E0E51934FFC583C0E0E518C3FE
:10072300958224F810AF088583198582188008857F
:100733008319858218D2AFCEF0A3E520F0A3780801
:10074300E608F0A3DEFAEFF0A3E58124FAF8E60861
:10075300F0A3E608F0A3E608F0A30808E608F0A370
:10076300E608F0A315811581D0E0FED0E0F81581ED
:1007730015811581E8C0E0EEC0E022120EA0B90099
:10078300030207D0E490030178A479128002F0A356
:10079300D8FCD9FA781A9000867A01BA0002800749
:1007A300E493A3F608DAF97AA47B149000877868B7
:1007B30079028015E493A3AD82AE838A828B83F0A2
:1007C300A3AA82AB838D828E83D8E9D9E775824051
:1007D3007583DF7405120BB77582987583287400CF
:1007E300120BB7C0D02518C582C0E0E51934FFC588
:1007F30083C0E0E518C3958224F310AF08858319FD
:100803008582188008858319858218D2AFC8F0A322
:10081300E9F0A3EAF0A3EBF0A37908E709F0A3D882
:10082300FAECF0A3EDF0A3EEF0A3EFF0A3D0E0F029
:10083300A3D0E0F0A3D0E0F0A3E520F0A3E5F0F02F
:10084300A322851983851882E0C0E0A3E0F9A3E021
:10085300FAA3E0FBA37808E0F608A3DFFAE0FCA321
:10086300E0FDA3E0FEA3E0FFA3E0C0E0A3E0C0E05F
:10087300A3E0F5D0A3E0F520A3E0A3F5F010AF08C3
:100883008583198582188008858319858218D2AFDC
:10089300D082D083D0E0F8D0E032E4731E75F0103C
:1008A3008E218F228582268583258518828519834B
:1008B300E0CEA3E0CF852682852583EBC9EAC8ED88
:1008C300CBECCAC3E833C8E933C9EA33CAEB33CB49
:1008D300C3EA9EF524EB9FF523B35004AB23AA246C
:1008E300EC33CCED33CDD5F0DAAE21AF2222D08379
:1008F300D082ECC0E0EDC0E0E493A3FCE493A3FD5D
:10090300ED4C600D1209C9EC24FFFCED34FFFD80B2
:10091300EFE493A3FCE493A3FDED4C600D120A9C5A
:10092300EC24FFFCED34FFFD80EFD0E0FDD0E0FCD4
:10093300E493A3C0E0E493C0E022D083D082E9C073
:10094300E0E493A3C386F0C5F095F0F908E493A31C
:1009530086F0C5F095F0700BE493A3C3994005E9C5
:10096300048002A3E475F002A42582F582E5F03544
:1009730083F583D0E0F9E493A3C0E0E493C0E022DD
:10098300851983851882E0A3FEE0A3F5207808E0AB
:10099300A3F608DFFAE0A3FFE0A3C0E0E0A3C0E012
:1009A300E0A3C0E0E0A3C0E0E0A3C0E010AF08858F
:1009B30082188583198008858218858319D2AFD060
:1009C30083D082020BBDC0E0C3E493960874019305
:1009D3009618400FE49366700808740193661870C4
:1009E300007019A3A3C3E49396087401939618A304
:1009F300A3400DD0E0D0E0D0E002092DA3A3A3A330
:100A0300A3A3D0E022D083D082C5F0E493A3C5F0A2
:100A1300C395F0F5F0E493A3C395F04005E5F00426
:100A23008001E475F002A42582F582E5F03583F5B3
:100A330083E493A3C0E0E493C0E0227404800474CD
:100A4300028000CCC0E0EDC0E0E518C39CCCAD193A
:100A530050011D10AF068C188D1980068C188D1946
:100A6300D2AF120B39D0E0FDD0E0FC22740280003B
:100A7300CCC0E0EDC0E0E518C39CCCAD1950011D1E
:100A830010AF068C188D1980068C188D19D2AF12F1
:100A93000B17D0E0FDD0E0FC22C0E0C0F088F0E40A
:100AA300936670080874019366187000A8F0A3A3F6
:100AB300700BD0F0D0E0D0E0D0E002092DA3A3D09A
:100AC300F0D0E022D083D082CCC0E0E493A36006D0
:100AD300120B791470FAE493A36006120CA6147037
:100AE300FAD0E0FCE493A3C0E0E493C0E022C0E0CA
:100AF300C0D0E8C0E0C082C083A8A8D2AF9003DC16
:100B0300E004F0E8A2E792AFD083D082D0E0F8D03F
:100B1300D0D0E032CAC0E0E493A3C582CCC582C57D
:100B230083CDC583F0A3C582CCC582C583CDC583E0
:100B3300DAE5D0E0CA22CAC0E0E0A3C582CCC58210
:100B4300C583CDC583F0A3C582CCC582C583CDC57E
:100B530083DAE6D0E0CA2270090808082260161872
:100B63001818C6C333C608C633C608C633C608C674
:100B730033C6D5E0EA22C0E0E493A3D39C5010E44B
:100B830093A3C39C400AD0E0D0E0D0E0020AE4A3E0
:100B9300A3A3D0E022C008C3E096F50808A3E0961B
:100BA300420808A3E096420808A3E09645087001AE
:100BB300D3D00822C09FF59FE473D09F22D083D067
:100BC30082C09FE493C0E0740193C0E0740293F584
:100BD3009F22C0E0C0D0E8C0E0A8A8D2AFC2C775CA
:100BE3001A00E8A2E792AFD0E0F8D0D0D0E0327498
:100BF30004800A74038006740280027401C0E0F466
:100C030004120C28D0E0120E632200C0D025181065
:100C1300AF08F518500C05198008F518500205198E
:100C2300D2AFD0D0222518F58210AF08F518400CAA
:100C330015198008F51840021519D2AF85198322BA
:100C4300BB0102E722C082C08389828A83BB00037F
:100C5300E08002E493D083D082226016080808C69D
:100C6300C313C618C613C618C613C618C613C6D5EB
:100C7300E0EA222518F8E43519F9222518FAE435B3
:100C830019FB222518FCE43519FD22C3E0C696F6AC
:100C930008A3E0C696F608A3E0C696F608A3E0C646
:100CA30096F622C0E0E493A36C7009D0E0D0E0D0C4
:100CB300E0020AE4A3A3D0E022251810AF08F51838
:100CC300400C15198008F51840021519D2AF22C33C
:100CD300E09608A3E09608A3E09608A3E096A2D2C4
:100CE30065D03322E066701008A3E066700A08A39B
:100CF300E066700408A3E06622E76670100809E75F
:100D030066700A0809E76670040809E76622C3E00B
:100D130096F008A3E096F008A3E096F008A3E09607
:100D2300F022C3E697F60809E697F60809E697F670
:100D33000809E697F622C3E493960874019396088C
:100D430074029396087403939622E056F008A3E086
:100D530056F008A3E056F008A3E056F022E647F663
:100D63000809E647F60809E647F60809E647F622C2
:100D7300E026F008A3E036F008A3E036F008A3E08D
:100D830036F022E026F608A3E036F608A3E036F6AE
:100D930008A3E036F622E657F60809E657F60809EF
:100DA300E657F60809E657F622E627F60809E63776
:100DB300F60809E637F60809E637F622E056F6089C
:100DC300A3E056F608A3E056F608A3E056F6227011
:100DD3000422600D18C6C333C608C633C6D5E0F473
:100DE3001822E4C396F608E496F608E496F608E4B7
:100DF30096F622C6F4C608C6F4C608C6F4C608C6E4
:100E0300F4C622C3E7960809E7960809E796080996
:100E1300E79622C3E09608A3E09608A3E09608A30A
:100E2300E0962275D00075813F751801751903008E
:100E330002077EE6F008A3E6F008A3E6F008A3E6BF
:100E4300F022600C08C6C313C618C613C6D5E0F457
:100E530022E0F608A3E0F608A3E0F608A3E0F622F2
:100E6300CAC0E0E6F0A308DAFAD0E0FA22E8F0A379
:100E7300E9F0A3EAF0A3EBF022E0F8A3E0F9A3E0A2
:100E8300FAA3E0FB22EAF0A3EBF0A3ECF0A3EDF06E
:100E930022E0FAA3E0FBA3E0FCA3E0FD22E5C754B4
:100EA300F84401F5C77901222518F582E43519F5CF
:100EB3008322C2AF75D69F02000022120BC081EBC2
:100EC30005120BC098EB05120BC096C305120BC09D
:100ED30012C405120BC0E6C505120BC028C70512C4
:100EE3000BC07FC705120BC058E602120BC084E685
:100EF30002120BC0C8E602120BC049E702120BC074
:100F03003EE902120BC062E902120BC06DE9021244
:100F13000BC080E902120BC0C2E902120BC016EA31
:100F230002120BC071EA02120BC097EA02120BC045
:100F3300EBED02120BC0F7ED02120BC0FCED021237
:100F43000BC0B2EE02120BC015EF02120BC03EF043
:100F530002120BC09BF002120BC0F0F002120BC086
:100F630055F102120BC01CF202120BC05DF2021209
:100F73000BC0CAF202120BC02FF302120BC03FF5D3
:100F830002120BC040F802120BC0E6F802120BC0AB
:100F930025F902120BC03BF902120BC011FA02121F
:100FA3000BC053FA02120BC0FFFB02120BC06CFC06
:100FB30002120BC076FC02120BC03AF504120BC0EE
:100FC300B2F504120BC067F604120BC00CF904123D
:100FD3000BC0DBF904120BC0C5FA04120BC063FB90
:100FE30004120BC077FB04120BC0E1FB04120BC00D
:100FF300EBFB04120BC088FC04120BC046FD041269
:101003000BC0D4FE04120BC0EEFE04120BC026FF6D
:1010130004120BC0008004120BC02B8004120BC0FF
:10102300408004120BC0738004120BC09280041220
:101033000BC0D38004120BC0668104120BC025823F
:1010430004120BC09C8404120BC0428504120BC013
:101053006F8504120BC0C08504120BC06C8604128A
:101063000BC0CF8604120BC0138704120BC0C087BA
:1010730004120BC02D8804120BC0608804120BC02D
:101083006E8904120BC0928904120BC0F6890412F4
:101093000BC0CE8A04120BC0D38C04120BC0758D07
:1010A30004120BC0FF8F04120BC0839004120BC0F9
:1010B300129304120BC06D9304120BC077930412A6
:1010C3000BC0BD9304120BC08C6D00120BC0086ED5
:1010D30000120BC03B6E00120BC0696E00120BC0F6
:1010E300AC7000120BC0CB7000120BC01071001259
:1010F3000BC0A67100120BC0F27100120BC08472F8
:1011030000120BC05C7300120BC0AD7300120BC056
:10111300127400120BC08F7400120BC0C57400123E
:101123000BC0107500120BC0367500120BC0C675CC
:1011330000120BC05D7600120BC0A97600120BC023
:10114300DA7600120BC0117700120BC099780012E7
:101153000BC0637900120BC03D7A00120BC012EC76
:1011630005120BC023EC05120BC03BEC05120BC0A0
:10117300F1FF04120BC0E47F00120BC02BE8051231
:101183000BC03BE805120BC04AE805120BC0DBE8B5
:1011930005120BC036E605120BC0B9E605120BC0EB
:1011A3001FE705120BC0FCFF01120BC0EBFF04127B
:1011B3000BC0EEFF04120BC0F87F00120BC03FDD23
:1011C30005120BC077DD05120BC0B9DE05120BC08B
:1011D3003DDF05120BC0FAFF01120BC033EB051202
:1011E3000BC03FB505120BC06BB505120BC0DCB7C6
:1011F30005120BC01CB805120BC05CB805120BC05E
:1012030070B805120BC089B805120BC07AB9051264
:101213000BC01FBA05120BC033BA05120BC03AE15B
:1012230005120BC05EE105120BC077E105120BC07E
:10123300A9E105120BC0D9E105120BC006E20512A4
:101243000BC010E205120BC072E205120BC081E263
:1012530005120BC08BE205120BC098E205120BC0FE
:101263009CD305120BC0BCD305120BC0FBD30512D4
:101273000BC016D405120BC035D405120BC09BD47A
:1012830005120BC0A4D405120BC001D505120BC067
:1012930010D505120BC034D505120BC0F5D50512B8
:1012A3000BC002D605120BC013D605120BC0CBEB35
:1012B30005120BC0E3EB05120BC00FEC05120BC0BC
:1012C30089BA05120BC0E3BB05120BC0F1BB0512B3
:1012D3000BC004BC05120BC019BC05120BC02EBCFD
:1012E30005120BC041BC05120BC0B5BC05120BC0E7
:1012F3001ABD05120BC0A2BD05120BC01EBE0512FE
:101303000BC0E2BE05120BC0F2BE05120BC001BF3B
:1013130005120BC03BEA05120BC05FEA05120BC0B6
:1013230087EA05120BC0AFEA05120BC0B8D8051245
:101333000BC0DFD805120BC0FDD805120BC070D946
:1013430005120BC0C9D005120BC0E2D005120BC0A9
:10135300EED005120BC002D105120BC020D105122D
:101363000BC02AD105120BC034D105120BC047D1D3
:1013730005120BC0CDD105120BC042D205120BC012
:1013830071D205120BC0BFD205120BC00ED30512CA
:101393000BC029D305120BC033D305120BC044D3A2
:1013A30005120BC087D305120BC08D7F00120BC033
:1013B300D87F00120BC0008005120BC02A800512D3
:1013C3000BC0478005120BC05A8005120BC07080FA
:1013D30005120BC0CE8005120BC0068105120BC08F
:1013E300FA8405120BC03F8605120BC072860512E4
:1013F3000BC0D58605120BC0358805120BC05D885E
:1014030005120BC0728805120BC0828805120BC02F
:10141300C68805120BC0218905120BC0318905123C
:101423000BC0FBE305120BC015E405120BC03DE432
:1014330005120BC056E405120BC07AE405120BC06B
:1014430098E405120BC0AFE405120BC0DDE40512EE
:101453000BC0F8E405120BC0E1E805120BC025E947
:1014630005120BC082C705120BC092C705120BC031
:1014730097C805120BC0C9C805120BC0F9C80512DD
:101483000BC01CC905120BC033C905120BC06DC9B3
:1014930005120BC0D2C905120BC014CA05120BC02A
:1014A30053CA05120BC084CA05120BC0AFCA05127A
:1014B3000BC0A2E205120BC0B7E205120BC0CBE3CF
:1014C30005120BC0CEE305120BC02BE505120BC0B2
:1014D30061E505120BC077E505120BC0B9E50512EE
:1014E3000BC0D0E505120BC014E605120BC01EE6B7
:1014F30005120BC0A1A105120BC0DBA105120BC085
:1015030044A205120BC061A205120BC003A305126E
:101513000BC00CA305120BC051A305120BC07AA379
:1015230005120BC087A305120BC0F8A305120BC04D
:1015330083A405120BC0D1A405120BC00FA505127D
:101543000BC074A505120BC097A505120BC00EA600
:1015530005120BC065A605120BC0A0A605120BC091
:10156300D5A605120BC0E7A605120BC0F9A60512F6
:101573000BC018A705120BC031A705120BC0F1A7AA
:1015830005120BC03DA805120BC07BA805120BC0AA
:10159300D4EA05120BC05DFD01120BC09DFE0112C2
:1015A3000BC0BDFE01120BC009DB05120BC03FDBF4
:1015B30005120BC087DB05120BC0E0DC05120BC064
:1015C30014AB04120BC038AC04120BC072AC04127F
:1015D3000BC01CAE04120BC046AE04120BC0BBB052
:1015E30004120BC0FBB004120BC091B204120BC067
:1015F3002EB304120BC080B304120BC023B4041225
:101603000BC05BB404120BC09DB404120BC00CB628
:1016130004120BC05AB704120BC08BB904120BC0CF
:10162300B9B904120BC0E0B904120BC0E9B9041232
:101633000BC040BA04120BC0D2BA04120BC0FFBDD8
:1016430004120BC082BE04120BC093E905120BC037
:10165300ABE905120BC0B5E905120BC009EA051287
:101663000BC0167B00120BC02C7B00120BC0CD7B72
:1016730000120BC00C7C00120BC0297C00120BC0A3
:101683005A7C00120BC0A77C00120BC0DA7C00123C
:101693000BC0157D00120BC0107F00120BC0787FAA
:1016A30000120BC0FFFE03120BC05EFF03120BC040
:1016B3009CFF03120BC0DDFF03120BC0109A05122F
:1016C3000BC0269A05120BC0BB9A05120BC0EB9BED
:1016D30005120BC0B19C05120BC04E9D05120BC029
:1016E300B39D05120BC0C39D05120BC0EA9D0512E5
:1016F3000BC03D9E05120BC0AE9F05120BC0B39FDE
:1017030005120BC0D39F05120BC0008002120BC041
:101713000C8002120BC0758002120BC07F80021274
:101723000BC00C8102120BC0488102120BC02B822A
:1017330002120BC0898202120BC0D68202120BC0A6
:10174300538302120BC0A98302120BC02684021218
:101753000BC0058602120BC0D08702120BC0C188D2
:1017630002120BC0168B02120BC0708C02120BC03C
:10177300078D02120BC0468E02120BC0448F021259
:101783000BC0A89002120BC07B9502120BC063968C
:1017930002120BC0F69602120BC01B9702120BC06B
:1017A300409702120BC0DA9702120BC0F097021295
:1017B3000BC0129802120BC0839802120BC0A2989E
:1017C30002120BC0CB9802120BC0CB9902120BC0B2
:1017D300CF9A02120BC0639C02120BC0849C0212AC
:1017E3000BC02A9D02120BC0729D02120BC0D69D24
:1017F30002120BC0639E02120BC0C79E02120BC0E3
:10180300319F02120BC0CF9F02120BC03BA00212EA
:101813000BC06EA002120BC0D6A002120BC02FA2E7
:1018230002120BC0C1A302120BC068A402120BC0A8
:10183300C7A602120BC014A702120BC024A70212E0
:101843000BC073A702120BC0E5A702120BC015A8A9
:1018530002120BC083A802120BC02EA902120BC0E6
:1018630020AB02120BC0AEAD02120BC0B4AE02121B
:101873000BC0BAB202120BC07FB302120BC0A1B4E9
:1018830002120BC03EB602120BC0D2E501120BC00E
:1018930060E601120BC00BE701120BC089EA0112CB
:1018A3000BC04CEB01120BC0FCEB01120BC077EC2D
:1018B30001120BC0FCEC01120BC00AEE01120BC0AB
:1018C300ECEE01120BC067EF01120BC000F1011225
:1018D3000BC057F201120BC030F301120BC043F4DB
:1018E30001120BC073F501120BC089F601120BC074
:1018F30010F701120BC03DF801120BC027FA0112B9
:101903000BC0CEFA01120BC0DBFB01120BC0E8CDFA
:1019130005120BC0A2CE05120BC0EECE05120BC0F2
:101923005ED005120BC067D005120BC0BCD00512E8
:101933000BC0C0FF02120BC045C703120BC0D4C7B4
:1019430003120BC04AC803120BC029C903120BC0F0
:1019530024CA03120BC0A1CA03120BC0DFCB0312AC
:101963000BC07ACC03120BC051CE03120BC040CF75
:1019730003120BC08CCF03120BC06ED003120BC02B
:10198300B1D103120BC053D203120BC085D503127E
:101993000BC081D703120BC00BD803120BC063D843
:1019A30003120BC0B1D803120BC02CD903120BC006
:1019B300B0D903120BC0ECD903120BC06AE00312B7
:1019C3000BC0BBE203120BC092E303120BC0929550
:1019D30004120BC0C19504120BC0399604120BC03C
:1019E3003C9704120BC0989704120BC01999041268
:1019F3000BC0359904120BC0879904120BC0C4990C
:101A030004120BC0D79904120BC0299A04120BC0FD
:101A1300D09A04120BC03D9B04120BC0679B0412A7
:101A23000BC09F9B04120BC07F9D04120BC0589EDA
:101A330004120BC0A19F04120BC0CD9F04120BC054
:101A4300A0A004120BC028A104120BC069A10412A8
:101A53000BC083A104120BC0CAA104120BC0EAA1DC
:101A630004120BC084A204120BC013A304120BC0F4
:101A73006DA304120BC0BEA304120BC03AA604123A
:101A83000BC061A704120BC09DA704120BC08FA843
:101A930004120BC0B7A804120BC0BAA804120BC0DF
:101AA300C4A804120BC0D7A804120BC060A9041267
:101AB3000BC096A904120BC0A9A904120BC0D5A987
:101AC30004120BC0FCA904120BC020AA04120BC001
:101AD300BDAA04120BC0CBAA04120BC0FEAA0412A7
:101AE3000BC06CFF04120BC098EC05120BC0B6FFC1
:101AF30004120BC0FBFF02120BC0A7A805120BC0F8
:101B0300F6A805120BC096AA05120BC051AC05121C
:101B13000BC093AC05120BC07CAD05120BC086AE97
:101B230005120BC0A8AE05120BC0F2AE05120BC016
:101B330073AF05120BC02AA703120BC04DA70312E4
:101B43000BC0ACA803120BC0F5A803120BC054D8EA
:101B530005120BC0A9A903120BC04DAB03120BC096
:101B630099AB03120BC013AC03120BC099AC031255
:101B73000BC09CAC03120BC028AD03120BC06BADA2
:101B830003120BC09EB103120BC03BB303120BC075
:101B930088B303120BC0E0B603120BC064B7031281
:101BA3000BC032B803120BC060B903120BC0EFBAFB
:101BB30003120BC07ABB03120BC074BC03120BC01D
:101BC300C9BD03120BC0C0BE03120BC012BF031268
:101BD3000BC0A1BF03120BC0E6BF03120BC004C1AD
:101BE30003120BC066C203120BC044C303120BC023
:101BF300C5C403120BC028C603120BC09DC6031233
:101C03000BC0CFBE04120BC080BF04120BC0EEBFCB
:101C130004120BC007C004120BC08CC004120BC00B
:101C2300E1C004120BC025C104120BC084C104120D
:101C33000BC0EFC204120BC026C404120BC09FC416
:101C430004120BC0A4C604120BC04CC704120BC071
:101C5300F6C704120BC082C804120BC0F9C90412E0
:101C63000BC0EDCB04120BC05CCD04120BC07BCEBA
:101C730004120BC01BCF04120BC04AD004120BC0BA
:101C830087E403120BC0FBE403120BC043E503120A
:101C93000BC081E503120BC0CAE503120BC014E6A7
:101CA30003120BC04CE603120BC0CAE603120BC0AF
:101CB30024E703120BC080E803120BC011E90312DF
:101CC3000BC06FE903120BC089E903120BC0AAE929
:101CD30003120BC002EA03120BC073EC03120BC016
:101CE30092EC03120BC071ED03120BC089EE0312C9
:101CF3000BC006EF03120BC073EF03120BC0DCEF34
:101D030003120BC096F003120BC054F203120BC064
:101D130055F303120BC0DAF403120BC0C5F603121A
:101D23000BC028F903120BC0CEFA03120BC09CFBA5
:101D330003120BC002FC03120BC019FC03120BC0ED
:101D430009FD03120BC0F5FD03120BC062FE031263
:101D53000BC007CB05120BC053CC05120BC010CD23
:101D630005120BC074CD05120BC0A6FC02120BC0EA
:101D7300C1FC02120BC005FD02120BC02BFD0212A7
:101D83000BC051FD02120BC069FD02120BC0CCFD4A
:101D930002120BC0E1FD02120BC0F5FE02120BC0D2
:101DA30010FF02120BC019FF02120BC022FF021216
:101DB3000BC02BFF02120BC03AFF02120BC03ABF3B
:101DC30005120BC028C305120BC02DC305120BC08F
:101DD3002FC305120BC0C7DF05120BC0ACEC0512F5
:101DE3000BC0008003120BC0338003120BC09A8018
:101DF30003120BC0268103120BC0CB8103120BC04D
:101E0300138203120BC0388203120BC051820312D8
:101E13000BC0778203120BC0998203120BC0D782C7
:101E230003120BC0268303120BC04F8303120BC094
:101E3300AE8303120BC0878403120BC03D850312CC
:101E43000BC09B8503120BC0628603120BC0B986BD
:101E530003120BC0248703120BC0628703120BC04B
:101E6300B88703120BC0308803120BC08788031294
:101E73000BC08A8803120BC00B8903120BC0AA89FB
:101E830003120BC0128A03120BC0018B03120BC087
:101E9300238B03120BC0868C03120BC0938C03128B
:101EA3000BC0978D03120BC0A48D03120BC0AD8D15
:101EB30003120BC0A88F03120BC0C29003120BC0F6
:101EC300369103120BC0A39103120BC0CF910312DF
:101ED3000BC0619203120BC09D9203120BC080943E
:101EE30003120BC0579803120BC06B9803120BC05D
:101EF3007B9803120BC0859803120BC08E980312B4
:101F03000BC0979803120BC0A19803120BC0D09873
:101F130003120BC0F89803120BC04D9903120BC0A8
:101F2300589903120BC07C9903120BC0A09903129A
:101F33000BC0FD9903120BC0439A03120BC05F9AA7
:101F430003120BC0D29A03120BC0099B03120BC0DE
:101F5300489B03120BC0959B03120BC01B9C0312DF
:101F63000BC0F79D03120BC0939E03120BC0789F07
:101F730003120BC0EDA103120BC040A203120BC04E
:101F830068A203120BC092A303120BC0C8A30312CF
:101F93000BC01AA403120BC0CFA403120BC07FA55E
:101FA30003120BC0B4A503120BC04AA603120BC045
:101FB300CEA603120BC0AE8A01120BC0E08A011237
:101FC3000BC0108B01120BC0E48C01120BC0C58D2A
:101FD30001120BC01D8E01120BC0608F01120BC0CA
:101FE300AC8F01120BC0E09201120BC0F6950112E7
:101FF3000BC0409701120BC0D69701120BC0E2979A
:1020030001120BC0229801120BC0AC9901120BC034
:10201300A09A01120BC0CA9A01120BC0319B011284
:102023000BC08A9B01120BC0019C01120BC0489E7E
:1020330001120BC0DF9F01120BC0B3A001120BC032
:10204300F2A101120BC037A401120BC008A70112A1
:102053000BC017A701120BC09BA701120BC042A80C
:1020630001120BC085A801120BC0CEA801120BC030
:1020730022A901120BC087A901120BC0EAA9011200
:102083000BC006AA01120BC038AA01120BC077AA13
:1020930001120BC05CAB01120BC00BAC01120BC0E5
:1020A3008FAE01120BC0D1AF01120BC0B0B0011241
:1020B3000BC030B101120BC052B501120BC090B569
:1020C30001120BC0EBB501120BC01EB601120BC0FF
:1020D3009AB601120BC0B6B601120BC051B701126A
:1020E3000BC09FB701120BC072B801120BC037B9F6
:1020F30001120BC0D5B901120BC0DEBC01120BC01B
:10210300F2BD01120BC08FC101120BC097C20112A5
:102113000BC09AC201120BC0C9C201120BC0C8C4C2
:1021230001120BC0A1C501120BC0E8C501120BC0FF
:1021330035C701120BC06FC701120BC01CC80112B7
:102143000BC050C801120BC002C901120BC011CB46
:1021530001120BC07CCB01120BC0C4CB01120BC00C
:1021630061CC01120BC090CD01120BC057CE0112EE
:102173000BC04DD001120BC061D001120BC075D042
:1021830001120BC0ABD001120BC0DBD001120BC08C
:1021930069D201120BC04AD301120BC0BAD3011288
:1021A3000BC06AD401120BC09AD401120BC064D5C0
:1021B30001120BC021D601120BC02AD801120BC089
:1021C30069D801120BC0D6D801120BC01BDA011259
:1021D3000BC0CEDA01120BC002DB01120BC01ADBFB
:1021E30001120BC0BDDB01120BC0ABDE01120BC031
:1021F30076E001120BC09AE001120BC0B8E00112A5
:102203000BC08CE101120BC0B4E501120BC0CC2E44
:1022130000120BC0FE2E00120BC0FD3200120BC0C9
:10222300493300120BC08F3300120BC03734001236
:102233000BC0A13400120BC0E93400120BC04736A7
:1022430000120BC04C3700120BC03E3B00120BC0F8
:10225300CF3B00120BC0F73C00120BC0543D0012E1
:102263000BC0233F00120BC09A3F00120BC0A43FC8
:1022730000120BC0B13F00120BC0DC3F00120BC0B9
:10228300C34000120BC07C4100120BC0FF4100127F
:102293000BC01D4200120BC0464200120BC073421A
:1022A30000120BC0CD4400120BC0914500120BC0AD
:1022B300D64500120BC04D4600120BC0FB46001260
:1022C3000BC02D4700120BC0734700120BC0AF4762
:1022D30000120BC0004800120BC0544800120BC080
:1022E300DF4800120BC02A4900120BC08F490012AD
:1022F3000BC0084A00120BC0C74B00120BC0D64CD0
:1023030000120BC0F54D00120BC0515100120BC04F
:10231300805400120BC0395500120BC081550012B6
:102323000BC0205700120BC0345700120BC03E578E
:1023330000120BC0485700120BC0545700120BC0B9
:10234300735700120BC0295800120BC08258001299
:102353000BC08C5800120BC0965800120BC00659C4
:1023630000120BC04D5900120BC0525A00120BC081
:10237300A15A00120BC0445B00120BC01D5C00127B
:102383000BC03D5D00120BC07F5E00120BC0795F76
:1023930000120BC0915F00120BC0C55F00120BC08F
:1023A300CF5F00120BC0ED5F00120BC04C60001238
:1023B3000BC0736000120BC00E6100120BC0CD6125
:1023C30000120BC03D6200120BC0B56200120BC0BD
:1023D300BF6300120BC08C6400120BC0E4640012D4
:1023E3000BC0E86500120BC02D6600120BC0886697
:1023F30000120BC0EF6600120BC01D6700120BC06A
:10240300416700120BC0766700120BC0A36700126E
:102413000BC0E96700120BC00D6800120BC0766891
:1024230000120BC05E6900120BC0A96900120BC039
:10243300D26900120BC06A6A00120BC0E26A001272
:102443000BC0066B00120BC0636B00120BC0836BD7
:1024530000120BC0866B00120BC0B26B00120BC0D4
:10246300A76C00120BC0B7DE04120BC0EFDE041220
:102473000BC010DF04120BC054DF04120BC0B8DF13
:1024830004120BC0C2DF04120BC0D2DF04120BC054
:1024930009E004120BC001E404120BC00FE604129E
:1024A3000BC0FCE704120BC093E804120BC035E920
:1024B30004120BC06FB902120BC0DFB902120BC0BA
:1024C3003FBA02120BC08ABA02120BC0A5BA02129B
:1024D3000BC0CCBA02120BC0E9BA02120BC0F5BA98
:1024E30002120BC0A0BC02120BC0B9BC02120BC07B
:1024F30042BD02120BC055BD02120BC074BD0212C5
:102503000BC00FBE02120BC07FBF02120BC026C14D
:1025130002120BC0B5C102120BC0B8C102120BC02C
:1025230028C202120BC046C202120BC0EBC2021237
:102533000BC027C302120BC02AC302120BC0F0C385
:1025430002120BC053C402120BC08CC402120BC084
:1025530001C502120BC01FC502120BC06DC50212CA
:102563000BC042C602120BC090C602120BC0D8C6E3
:1025730002120BC065C702120BC09AC702120BC02E
:10258300CFC702120BC0DDC702120BC03CC8021238
:102593000BC0B4C802120BC0F5C802120BC045C968
:1025A30002120BC070C902120BC08AC902120BC0FF
:1025B300A4C902120BC07FCA02120BC089CA02123D
:1025C3000BC0C4CA02120BC0D4CA02120BC0DDCAAC
:1025D30002120BC035CB02120BC049CB02120BC047
:1025E3007FCC02120BC092CC02120BC0A9CC0212F8
:1025F3000BC0BECC02120BC04CCD02120BC0B4CD2B
:1026030002120BC067CE02120BC072CE02120BC0B5
:10261300BFCF02120BC0DBCF02120BC027D00212B6
:102623000BC096D002120BC0CFD002120BC0E9D060
:1026330002120BC02BD102120BC0EDD302120BC03E
:10264300A3D402120BC033D502120BC07BD70212E4
:102653000BC093D702120BC096D702120BC0A2D79E
:1026630002120BC0B6D702120BC0BED702120BC0A8
:10267300F1D702120BC0E4D802120BC06FD90212B9
:102683000BC002DA02120BC07BDA02120BC03FDB73
:1026930002120BC061DB02120BC0FADB02120BC089
:1026A30057DC02120BC05ADC02120BC087DC021289
:1026B3000BC09CDC02120BC016DD02120BC062DEE3
:1026C30002120BC06DDF02120BC0F8DF02120BC047
:1026D300FDE002120BC0BDE102120BC0EEE10212DB
:1026E3000BC014E202120BC01DE202120BC04BE23C
:1026F30002120BC0E3E202120BC098E302120BC0FA
:1027030009E402120BC0B0E402120BC037E5021257
:102713000BC076E502120BC0B9E502120BC0F3E55C
:1027230002120BC07BEC05120BC0F9B405120BC0EF
:10273300CAB405120BC03BB205120BC0DCB00512C4
:102743000BC0FAAF05120BC0B3AF05120BC0FC8F61
:1027530005120BC0138C05120BC0C98A05120BC0DE
:10276300218A05120BC09C8905120BC08B890512A7
:102773000BC0618905120BC0FF9805120BC0D098DE
:1027830005120BC0429705120BC0B69505120BC07C
:10279300989405120BC01B9405120BC05D93051290
:1027A3000BC0B29205120BC0349205120BC0E1911B
:1027B30005120BC018D805120BC0A5D705120BC004
:1027C30041D605120BC070EC05120BC04AEC051282
:1027D3000BC0EFEC05120BC0D8EC05120BC0BE9179
:1027E30005120BC0D2DC04120BC0B0DB04120BC009
:1027F30069E705120BC0BDD904120BC00FD8041230
:102803000BC045D704120BC035D604120BC055E7D5
:1028130005120BC009D604120BC04FA903120BC03B
:102823009DD504120BC016D204120BC089D1041219
:102833000BC0EFF404120BC096F404120BC058F44F
:1028430004120BC02BF404120BC0F7F304120BC0D9
:1028530096F304120BC07EF304120BC05AF3041256
:102863000BC0E1EF04120BC0B4ED04120BC0BBEBC1
:1028730004120BC041EB04120BC038E705120BC066
:10288300F0EA04120BC0AAEA04120BC00EEA041207
:102893000BC078FF0400000080FB8F000100EF15E0
:1028A30087000100ED1535000400B715250002006F
:1028B300BB1526000200BD1527000200BF15280026
:1028C3000100C91529000100CA15840004008C12F7
:1028D30086000100F6142A000100CB152B0001002D
:1028E300CC152C000100D0152D00080098122E00E5
:1028F3000100D1152F000100D21530000100D315BE
:1029030031000100D41532000100A0123300010090
:10291300A11234000100D51536000100A2123800BF
:102923000100D61539000100CF1583000200EB1515
:1029330063000100AE1264000100CD1565000100C3
:10294300CE156D000100AF127100080090126600F1
:102953000100EA1543000100DB1544000200DC1509
:1029630045000100DE1546000200DF1547000800A0
:10297300A61248000100E1154B000100E215040016
:102983000100EE15A1000100F21537000100F11559
:1029930088000100F0153C000100A3123D00010076
:1029A300D71549000200E31567000100B0124D007E
:1029B3000200E5154E000100E7154F000200E8157F
:1029C3003E000100DA1551000100A412520001007B
:1029D300D81553000100D91554000100A5120000B9
:1029E3000000000000013636010100010201000170
:1029F300030100010401060605020000070100347B
:102A03000801000F090401010D0100FF0E08000079
:102A130017020000190100FF1A0100011B0100FE4B
:102A23001C0100081D0200001F010001200100011C
:102A3300210200002301000F2402000026010001EF
:102A430027010008280200FF2A0100072B0102408A
:102A53002C0100002D0100012E0100012F0100FFB8
:102A630030010B1D310800003A0100083B01000F43
:102A73003C0100013D0100FF3E0400004204000050
:102A8300460400004A0400004E0400005204000003
:102A9300560400005A040000000000002001AB8A25
:102AA300000001002001AD8A000002002001A98A74
:102AB3000000030042018B88000004004201958856
:102AC3000000050042019F87000006004201C688FE
:102AD300000007003001AA8A000000404201498734
:102AE3000000FDFF21419F8A0300000021034511DF
:102AF3000300FDFF21419F8A0101000030054711BA
:102B03000101010030014811010102001001931578
:102B13000101320010014911010133001001941524
:102B23000101410019014A110101420019014C112F
:102B33000101430019014E11010144001901501113
:102B43000101FDFF21419F8A010371030103010379
:102B53000103010301032203020301031003000322
:102B63000003000300030003000300034203000308
:102B730024030603000300030403120325032303B2
:102B83002503230304030403000300030003440396
:102B930000030003230300036503210035038103BE
:102BA30000030503000300030003000325032303BD
:102BB300030271023001600211027002010202027B
:102BC30002028002100261023A00410063027302B2
:102BD3007202620243020002130238000002000282
:102BE30004021202000200020002000204020402B4
:102BF300370037003C0244020002390000020002A1
:102C0300650200023502810200020502820283028C
:102C130000020101710101010101110101013101F1
:102C2300010101018001100161013B0014006301F6
:102C330073017201620143010001130106013D01A9
:102C4300350004011201000100010001000104012B
:102C53000401330133013C01440132013600000118
:102C630000016501000135008101000105018201B8
:102C73008301000103007100300160001100700046
:102C83003102200350048000100061000000140092
:102C9300630073007200620043000000130006002B
:102CA300000000000400120000000000000000000B
:102CB30004000400370037003C0244000000000019
:102CC30000000000650000003500810000000500E1
:102CD30000008300000036000100060000000F0022
:102CE30000000000000000000000000003FFFF00E0
:102CF300000403FFFF0000FFFF0FF4010005C404FD
:102D03000320000100000B0000000000000000038E
:102D1300010F0000000000000000000000000000A0
:102D230000000000000000000000000000000000A0
:102D33000000000012185A18181828171E186018D7
:102D43001E186C18241828171E1860182A1828171C
:102D530000000000301828170000000000000000E9
:102D6300361828173C18721842182817000000005C
:102D73000000000000000000481884184E182817AF
:102D8300481884184E1828173C1872185418281716
:102D930000002C1C01002C1C02005A1B0280541B37
:102DA3000300601B0400661B04806C1B0500721B80
:102DB30006007E1B3000961B308008283100901BD4
:102DC3003300A21B3400A81BFFFF000007ECFDFD2E
:102DD300FDECDCDCCCBCACAC9C9C8C7C7C6C6C5C7F
:102DE3005C5C4C4C3C3C2C2C1C1C03EAF5E5D5D517
:102DF300C5B5A59595858575756565555545453560
:102E03003525251515050A8622025022055C220761
:102E130056220C38220D4422FF000000160F00003A
:102E23000B150B020002220F3300000E0FD0D1D27C
:102E3300D3D4D5D6D7D8D9DADBDCDDDEDF5A696760
:102E4300426565416C6C69616E63653039000000F1
:102E53000403000004030001043030171819213063
:102E63001B1D1F3000034D4C4651181A2505020047
:102E730001191618161618230300303016181920D6
:102E8300231A1C1E30003C40423A3F3F392F473043
:102E93000C0E020B040B0A0708000F0204020101C7
:102EA3000101090200BE040AE80300000100030057
:102EB300E8030E0004030916030A1E030A0C0404A4
:102EC300080F020C05081504FF74F7120712E990A6
:102ED3001385F090133AE4F01214B290139DE4F0CA
:102EE300A3F0901386F0A3F01223E21214B8901209
:102EF300BEE4F0A3F0121DA00248AF74F012071253
:102F030074D3120CBC85188285198312654F5480C3
:102F13006068901385E0F912152A8A088B09AE08B8
:102F2300AF09EE4F604C7C0080010CEC75F003A4FC
:102F3300F8A9F0740928F582742E39F583E493F423
:102F43006029E493F88E828F83E06870DDEC75F07E
:102F530003A4F8740A28F582742E39F583E493C028
:102F6300E0740193F583D08212089DEEFAEFFB1211
:102F73001518126B4F64800232E38518828519831A
:102F8300A3E0542060211222EC8A088B09AE08AF1B
:102F930009EE4F600A122244EEFAEFFB12151812E3
:102FA3006B4F64200232E3851882851983E0A2E027
:102FB300502590133FE0640F7011790012221AE933
:102FC30060099015B7120E94122232851882851962
:102FD30083E064010232C2542070030232C77A20B4
:102FE3007B00901385E0F912168CEA4B4C4D701A56
:102FF300901399120E7CE8494A4B700E75080175BF
:103003000900750A00750B00806A750C00750D00C8
:10301300750E00750F0012169E8A088B098C0A8D97
:103023000B901399120E7CE8494A4B603190139927
:103033007808120B98400E750CFF750DFF750EFF87
:10304300750F7F801985080C85090D8C0E8D0F90E7
:103053001399780C120C8E7401780C120C5D850C8C
:1030630008850D09850E0A850F0BE5081234E270F9
:10307300030232027C0079047A007B001222C28AA6
:103083000C8B0DAE0CAF0D0231437402120EAB74F8
:10309300FFF07403120EAB74FFF07404120EAB74E2
:1030A300FF12686F7407120C86125F60126042127F
:1030B300230AE96401706B1250D94480F8A3E0F944
:1030C3007428120EABE8F0A3E912679EE0C0E07427
:1030D3002A120EABD0E01249EB5408601674281282
:1030E3000EABA3E044011232F6C0E0742C120EAB17
:1030F300D0E0F012639B601212488E126453E0F822
:103103007416120EABE8F0A3E4F0908A01120A3EA3
:103113007406120C86740B120C7E121EDE740412DB
:103123000C0D8E828F83A3A3A3A3A3A3A3A3A37432
:10313300061232F6F91222A47405120EAB1264675A
:10314300EE4F70030232027C007904EEFAEFFB12B9
:1031530022C27405120EABEAF0A3EB125707E0F597
:103163000CA3E0F50DE4F50EF50F7808790C120EBB
:10317300064023EE2404F8E43FF985080C85090D85
:1031830088828983C3E0950CF0A3E0950D126C84CB
:10319300E84970A4800C8E828F83A3A3A3A3E4F0D9
:1031A300A3F08E828F83A3A3A3A3A3A3A3A3A3A309
:1031B300E064018E828F83A3A3A3A3A3A37023E060
:1031C3005404600302308D8E828F83A3A3A3A3A331
:1031D300A3A3A3A37406F07AB712342512222C02F8
:1031E300313BA3A3A3A3E0600302308D8E828F83C0
:1031F300A3A3A3A3A3A3A3A3A37401F002313B122C
:1032030022927C0079017A007B001222C28B0DEAA4
:10321300450D600C7A207B00901385E0F91215545C
:103223007C0079047A007B001222C2EA4B7013807F
:103233004D8A828B83A3A3A3A312659DEE98EF9976
:10324300400B8A828B83A3A3A3A31264677C0079B8
:10325300041222C28B0BA90BEA4970D5C3E5089E61
:10326300E5099F500DC3EE9508FEEF9509FFEE4F5C
:1032730070167A207B00901385E0F9121554901391
:10328300991232EFA3F0802EEE2EFEEF33FF8E085D
:103293008F09E4F50AF50B7808120BF27A207B000C
:1032A300901385E0F912167A7404120C0D12169E0F
:1032B300901399120E88851882851983E06420FA89
:1032C300A3E0801CA3E054046019125C00120F18E1
:1032D3007901901338126042121EF0126B4F64048E
:1032E300FB80047A007B00742D026370E4F0A3F08A
:1032F300A3F0221249F0A3A3E022C082C08374EAA0
:10330300120CBC7C167D007900AA18AB19121500AB
:103313007408120EAB7402F090132E125E60123317
:103323003D7409120EAB125E797413120EABE412E4
:103333005B3E121D8E7416024CB4E8F0A3E9F090C4
:1033430013381263B92274F712071274DA120CBC21
:10335300EAFEEBFFEE4F602DAC18AD1912230A7491
:1033630006120EABE0601E7417120EABE0FD740183
:10337300120EABE0FCEEFAEFFB79001221F0E960EC
:103383000479A48002790074260248AC74F712070A
:1033930012EAFEEBFF8E828F83A3A3A3A3A3A3E072
:1033A3005440601712637D1260421223A6E960063F
:1033B3007AFF7BFF801512637D800390132E1260CA
:1033C3004274FE6A700374FF6B604712637D12657B
:1033D3004F1223A6E98E828F83600E126C13124C58
:1033E300C138F583E4F0A38003126C38F07C207DB0
:1033F300228E828F83126042121D94E9F5087015A4
:10340300EE4F60097901EEFAEFFB12229EA9080242
:1034130048AF7508CDAA0812342512222CE960E0C2
:1034230080EB8E828F83126C17240CF582E438F5BF
:1034330083E0F92274F6120712E9FEEAFF7A0F7BA2
:1034430000121512EA4B601F8A828B83740CF0EE14
:10345300A3A3F0EF8A828B83124644901385E0F98D
:1034630012151E79008034EEF91222C88A088B09DE
:10347300A808A909E849602188828983A3A3A3A393
:10348300A3A3A3A3A374061265B0A3A3A3A3A3E05A
:10349300F9121F86EEF91222A4791002590174F46D
:1034A3001207128A088B098C0A8D0B90133FE06474
:1034B3000F70281234E1602390133AE0640860052A
:1034C300E0640470167808120BF27A017B00901303
:1034D30085E0F912167A7404120C0D023747EA4597
:1034E30009450A450B2274F412071274FC120CBC32
:1034F300EAFEEBFF8E828F83A3A3E0F91222C88A30
:10350300088B09EA450970030236288E828F83A34C
:10351300A882A983E0C0E0EA125AF0D0E01244AFD7
:1035230064F160288E828F83A3E064CD601E8E8257
:103533008F83A3E0641A60148E828F83A3E064E90F
:10354300600A8E828F83A3E064E1703079001222D7
:103553009EE96028E5082404F50AE43509F50B859E
:103563000882850983123639124495126042121477
:10357300C4850A82850B8312654F80788E828F8380
:10358300A3E0C0E07402120EABD0E0124CC7126C81
:1035930072EE240B124BB3C0E07403120EABD0E0F7
:1035A300F0E508126861123BB3E0AA18AB19700585
:1035B300121ED880031223887402120EABE064E952
:1035C3007032850882850983123D4C750A01780A99
:1035D300120BFE750AE9780A120BFE12447912489F
:1035E300BCA3A3A3A3A31248B41260421223407442
:1035F30002120C0D850882850983A3A3A3A3A3A3A9
:10360300A3A3A3E064027012850882850983A3A3A0
:10361300A3A3A3A3A3A3A37406F08E828F83A3A360
:10362300E0F91222A41222929015BD123B17122226
:10363300327404023744A3A3A3A3A3A3125F4D8E42
:10364300828F832274F4120712EAFEEBFF750800DF
:103653008E828F83A3A3A3A3A3E0603B7508081204
:10366300603579FF12205E8B0BEA450B60107508FD
:103673002C8E828F83A3A3A3A3A3E0D2E0F08E8238
:103683008F83A3A3A3A3A3E05403640160030237BE
:103693003E43081102373EEE2418124BB36036EE58
:1036A300241A124BB36003F470121265557003A30E
:1036B300E069600302373E750822807FEE241B1207
:1036C3005F43EE241A124BB3FAEE2419124BB3F9EB
:1036D300121F7480661260351223A6E96402700318
:1036E3007508011265557003A3E0697006E508D2F9
:1036F300E1F508E50860158E828F83A3A3E07006C9
:10370300E508D2E58004E508D2E6F5081260351233
:1037130023A6E964017006E508D2E0F5088E828FDE
:1037230083A3A3E06015EE241D1253F3F912238E35
:10373300E964016006E508C2E0F508A9088005749C
:1037430009120C0D7F0402098374F012071274D757
:10375300120CBCEAFEEBFF8E828F83A3A3A3A3E02C
:1037630060119015BB1263A460099015BB123B173F
:103773001222327403120C868E828F83A3A3A312A8
:103783005D1212604012230AE970030238E27801E5
:103793007405120EABE0C394024002780074071262
:1037A3000EABE0C3940240027800740C120EABE03F
:1037B30064F87003A3E0F470030238E2740C120E91
:1037C300ABE064F97003A3E0F470030238E2740C15
:1037D300120EABE064FA7003A3E0F470030238E264
:1037E300740C120EABE064FB7003A3E0F4700302ED
:1037F30038E27406120EABE0F9901328E069600317
:103803000238E2E8A2E040030238E27427120EAB6A
:10381300E060030238E2EE24131263AF7422120E47
:10382300AB125D1C241C1263AF7410120EAB125E3C
:10383300797409120EABE0601D741A120EABE0FD31
:103843007404120EABE0FC8E828F83126040790108
:103853001221F0E9703D7403120C7E12223EE9F549
:103863000C7409120EABE0702E901322E0602874E2
:1038730022550C642260207442550C644270147407
:1038830020120EAB123B23600E7420120EAB123BC0
:103893001060047ACF804AE9A2E6504D7420120EDC
:1038A300AB1253F924FD600F14600C24FD6008244F
:1038B300FD600424FE70287420120EAB123B0970C5
:1038C3000E7420120EAB125A4DA3E0640D601A74ED
:1038D30003120C7E1223BEE96401700D023B047ACD
:1038E300D37B00121AF4023B04EE242DF582E43F4D
:1038F300F583123D437003A3E069702275080078D5
:1039030008120BFE7808120BFEEE242F124BB3F9AC
:10391300123B291260421223407402120C0D7409E7
:10392300120EABE070030239C6123B291260421239
:1039330024128A0E8B0FEA450F7003023A5D74045A
:10394300120EABE0F88E828F83A3A3E028F8A3E0E6
:103953003400F9E8124CC139F583E0F88A828B838D
:10396300A3A3A3E068600EE88A828B83A3A3A312B8
:10397300463D1232F07904E9120EAB1250FAA3E07D
:103983002AF8A3E034008882F583A3AA82AB8312CA
:1039930015068A088B098C0A8D0B850E82850F8389
:1039A300A3A3A3A37808120B984003023B049089B6
:1039B300C17808120D86850E82850F83126C6EA363
:1039C300124DED90133AE064046008E0640960036B
:1039D300023B04E50CA2E54003023A97EE242F12C2
:1039E30050CAF0EE2430124BB3C0E07401120EAB98
:1039F300D0E0F0EE2431124BB3C0E07402120EABF0
:103A0300D0E0F07414120EABE06401702C740E124B
:103A13000EAB1244A62413124BB3687003A3E069E0
:103A23007017740C120EAB1260421223A6E96402E3
:103A330070077414120EABE4F0EE2425F582E43F14
:103A4300F583120A3E7404120C867407120C7E125C
:103A53001EDE7404120C0D023B0490137FE064011C
:103A630060030239C67420120EAB123B237009E5C2
:103A73000CA2E650030239C67410120EABE0F470C8
:103A830003A3E0F4607BEEFCEFFD7403120C7E12E3
:103A9300224A806DA2E650697420120EAB125F5A5F
:103AA3007016741A120EABE0640270557403120C94
:103AB3007E790012238280497420120EAB123B10D0
:103AC3007014741A120EABE0640470357403120C94
:103AD3007E122376802B7420120EAB123B09700CDE
:103AE30079007403120C7E1223CA80157420120EFF
:103AF300AB125A4DE0640C70087403120C7E12234F
:103B0300D67429026370126387E064032212638709
:103B1300E0640722E0F508A3E0AA08FBE4FCFD2229
:103B23001253FD640622EE242BF582E43F123B3749
:103B3300124BAC22F583125F4DEE2274F41207127E
:103B4300EAFEEBFF8C088D099012A0E0600F12656E
:103B5300557003A3E0697005121F62804979001252
:103B63006035121F928A828B83E5824583602FA37F
:103B7300A3A3A3A3A3E054186024E508241C123BC9
:103B8300B0120A42123BAC120A42EE2418124BB393
:103B9300F9123BB8121FA47404120C0D80087900AB
:103BA300123BB8121F68023747E5082413F582E475
:103BB3003509F583228E828F83A3A3A3A3A3A3A393
:103BC300A3A3123B39125E571260462274F7120701
:103BD3001274F7120CBCEAFEEBFF90133AE0640395
:103BE300600DE064016008E064096003023CEA8E52
:103BF300828F83A3E06003023CAD7C007D007A02E8
:103C03007B001214BE123CEF8A828B831263B59041
:103C1300132B125E797953121D7C90133AE06409D9
:103C2300600990133812604212240C85188285199A
:103C3300837401125B3E7942121D7C90133A740423
:103C4300F07401120C7E794A121D767401120C86EF
:103C53007A307B131216B690118FE0640B700574E3
:103C630006F0800B7900901338126042121EF09018
:103C7300132B125F497A037B001214BE90132E128A
:103C83005F497A047B001214BE901325E0A2E3502F
:103C930004D2F08002C2F0125B347952121D7C9080
:103CA30015B7120E94122232803AFC7D007A037B00
:103CB300101214BE90118FE0640B7003740AF0901D
:103CC30012A4E4F0FA7B40901385E0F91216868E75
:103CD300828F83A3E0F9901338126042121EF09092
:103CE300133AE4F012227474090248ACEE2402FA87
:103CF300E43FFB22C082C0839012BE1263A47017FC
:103D030090133AE024FB6005146007800A9012C404
:103D130080209012C6801BE84960089012BF123FB2
:103D23001B700C8A828B83A3E0F9121EE4800E9031
:103D330013B41263A46006125A4E12089D02557AF8
:103D43001263B9901338E068221263B9E8FAE9FB09
:103D53002274F512071274D8120CBC8A088B098AD4
:103D6300828B83A3A3A3A3A3A3A3A3E0C3940F5012
:103D730003023F168A828B83A3A3A312646774157D
:103D8300120C868A828B83A3A3A3A3A3A3A3A3E07A
:103D9300F98A828B831260391222807415120EAB5A
:103DA300E0702E850882850983A3A3A3A3A3A3A3FD
:103DB300A3E0C3940B401A8E828F83A3A3A3A3A370
:103DC300A3A3A3E064027009EE240B124BB3F460C7
:103DD30003023F167417120EABE060076402600320
:103DE300023F1690133AE06402601AE0640660151D
:103DF3009012BE1263A47003023F16123F1B6003AE
:103E0300023F1680329012BE1263A4702A75080016
:103E13007808120BFE7808120BFEEE2410F582E4EC
:103E23003FF583125D13A3A3A31236391260421226
:103E330023407402120C0D8E828F83125E60E8F0B1
:103E4300A3E91244B81263B57402120EAB125D1CDF
:103E53001250DAC0E07404120EABD0E0F0EE240B83
:103E63001265A2740F7808120E457405120EABE5A5
:103E730008F07419120EABE0C0E07406120EABD05A
:103E8300E0F0741B120EABE0C0E07407120EABD06F
:103E9300E0F07416120EABE0C0E07409120EABD062
:103EA300E0F07417120EABE0C0E07408120EABD052
:103EB300E0F0EE2410124BB3C0E0740A120EABD044
:103EC300E0F0741A120EABE0C0E0740B120EABD02C
:103ED300E0F07427120EABE0C0E0740C120EABD00E
:103EE300E0F0741C120EABA982AA8389088A0975B3
:103EF3000A007808120BF67C087D007410120EABD2
:103F0300AA82AB831214F47403120C0DAA18AB1912
:103F1300121EEA7428024A00E0C8125F39640122C3
:103F230074F212071274F8120CBC8A0A8B0B8C0CF5
:103F33008D0D8908908923AC18AD197408120B39BB
:103F4300C200AC0AAD0BAA18AB191216B0E9700285
:103F5300D2009013868014AC0AAD0BEE240BFAE466
:103F63003FFB1216B0E9701B124B991247F8601E03
:103F7300A20040E38E828F83E0650C7004A3E065AA
:103F83000D70E58E828F83A3A3E0650870DAEEFAE5
:103F9300EFFB74080244C5C082C0839013860255A8
:103FA30077C082C083901386E4F0A302421474F7AF
:103FB300120712901386126B55800FEA2414F582B0
:103FC300E41264641215BAEEFAEFFBEA4B70EC905C
:103FD3001386E4F0A3F00248AF74F21207128A0CBE
:103FE3008B0DECFEEDFF890B8A828B83125AFBF05B
:103FF300A3A882A9838A828B831240A5124638A381
:10400300E0C454F0FA88828983E04A12511E850C79
:10401300828B83A3A31240A51240B8E0333354FC30
:104023001240ACE033333354F81240ACA3E0A2E0C7
:10403300E4331313FA88828983E04AF0EE2403FE03
:1040430050010FE50C2407F508E4350DF509750A51
:10405300007808120BF67C087D00EEFAEFFB1214D1
:10406300F47403120C0DEE2408FE50010FE50C242A
:104073000FF508E4350DF5097808120BF67C037D7E
:1040830000EEFAEFFB1214F47403120C0DE50BC3EC
:10409300940F400BE50C124CBB350D1256C6F002C3
:1040A30044C8A3E08882898322FA88828983E04A0C
:1040B3001240B8A322F0850C828B83A3A3A3A3226F
:1040C30074F2120712EAFEEBFF8C0C8D0D8E828FB9
:1040D30083E08C828D831256FCA882A983E0540F5F
:1040E3008C828D831244AEC412551D125114125585
:1040F300251244ACA2E2E4338C828D831244AB13C9
:104103001313541F12551D1244ABA2E7E4338C82E0
:104113008D83A3A3A3A3A3A3F0EE2403FE50010F57
:104123008E088F09750A007808120BF67C087D004B
:10413300E50C2407FAE4350DFB1214F47403120C96
:104143000DEE2408FE50010F8E088F097808120B1C
:10415300F67C037D00E50C240FFAE4350DFB121405
:10416300F47403120C0D8E828F83A3A3A3E0C0E02B
:10417300126C8CD0E0F00244C874F6120712EAFE07
:10418300EBFF8E828F83A3858208858309E0F91272
:104193001F08850882850983E064EB601E8E828F89
:1041A30083A3E064E160148E828F83A3E064F160F3
:1041B3000A8E828F83A3E0641A70078E828F83A393
:1041C300E4F09015B7120E941222327508017808A4
:1041D300120BFE8E828F83A3E0F5087808120BFE84
:1041E3007900901338125F4990132E126042122304
:1041F300407402120C0D122292025901C082C08334
:10420300E99013987003E4800274018004EAF0A338
:10421300EBF002557AE0F902557A74F61207129020
:104223001398E0701B7C0079017A007B001222C294
:10423300EA4B600C8A828B831263A46003122226EA
:10424300025901C082C08379041222BCE9F8902E7E
:10425300C7E493C398401079FF1222BCE9F8902E6B
:10426300C6E493C398500479018002790002557A19
:1042730074F21207128A0A8B0B8909C2008A828B95
:1042830083A3A3A3A3A3A3A3A3E0F91222C88A0C25
:104293008B0DAE0CAF0D750801EE4F600302435C4E
:1042A300850A82850B83A3A3A3A3A3A3125F4985D6
:1042B3000A82850B83A3A3A3A3A3A3A312449512EA
:1042C30060421222B08A0C8B0DAE0CAF0DEE4F7014
:1042D300030244728E828F83A3A3A3A3E4F0A3F00B
:1042E300E50A240CFAE4350BFB8A828B83E0C0E0F9
:1042F300124479D0E0F0E50A240D12449F240D12F4
:104303005E731223ACEE240F126549E50A241112E1
:10431300449F2411125E73E50A2413126594C0E0CE
:10432300124BA7D0E0F0D200EE24061250C1124483
:104333008C1244AF540460030243CA9015C9E0F5DC
:104343000A750B007407780A120DD28E828F83A32D
:10435300A3A3A3A3A3124483F08E828F83A3A3A357
:10436300A3A3A3E0F50AA3E0F50B7407780A120EE2
:1043730045E50A5407FCE509605C8E828F83A3A39D
:10438300A3A3A3A3A3A3A3740212570112476C60B0
:104393000B901326125147A3A3125E79EC7003020C
:1043A300443DEE2406126BF512448CF0EC24FFF529
:1043B3000AE434FFF50B7407780A120DD28A828B54
:1043C30083124483F080738E828F83A3A3A3A3A35A
:1043D300A3E044808082EC7005750800805C8E82C7
:1043E3008F83A3A3A3A3A3A3E05420600C12150CF3
:1043F300EA547F7900245F80198E828F83A3A3A35D
:10440300A3A3A3E05410601A12150CEA540F790009
:10441300240A5001098E828F83A3A3A3A3F0A3E9E7
:10442300800D8E828F83A3A3A3A37401F0A3E41250
:1044330044B874041246F0121554A20050348E820C
:104443008F8312363BA3A3A3A3A3A3A3A3A3E0F940
:10445300EEFAEFFB1222B6E9601812639B600912B1
:10446300488E1260421215BAEEFAEFFB1215BA75B6
:104473000800A908804FEE240CF582E43FF583225F
:10448300E0450AF0A3E0450B22E0547FF0A3E0549B
:10449300FC22A3E0F9850A82850B8322F582E435A9
:1044A3000BF5831263B9EE22A3A3A3A31244B32291
:1044B3001265BBE0221244BC221249F4A3A3A32237
:1044C3007403120C0D7F0602098374F4120712742D
:1044D300F7120CBC7E001222C8EA4B700302458C13
:1044E3008A828B83A3A3A3A3A3A3A3A3A3E06406AA
:1044F300600302458C8A828B83A3A3A3A3A3A3A3F4
:10450300E0FF8A828B83126C1DE0C0E07408120EF8
:10451300ABD0E01248D2125E65125E791222DAEF56
:1045230054086063851882851983125F497A007B7A
:10453300001222AA8B0BEA450B704C126C98121DC9
:10454300AC7C007D007A007B0080288E828F8312F2
:1045530053F9F47003A3E0F4602D90133812363F3F
:10456300126042121DA6E9641A601C7C007D00EEF5
:10457300FAEFFB1222AA8A0A8B0BAE0AAF0BEE4F9D
:1045830070C97900121DB27E01EEF9023742C08272
:10459300C0838A828B83E5824583700990139D8053
:1045A300068A828B83A3A31247A060208A828B830F
:1045B300A3A3A3A3A3A3A3E0540860E5EC4D601059
:1045C3001247A67003A3E06D70D780047A007B00C6
:1045D30002557A74F21207128A088B09890AECFED3
:1045E300EDFF7A147B001215B4EA4B603B8A828B91
:1045F30083A3A3A3A3A3A3A3A3A3E41248C7A3E5ED
:104603000A126576A3A3A3EEF0A3EF12463D124868
:10461300D91246448A828B83126C72EA240F1246A3
:104623002E124637A3F0A3F00244C8F582E43BF50B
:1046330083E4F022A3126C55A322126586E4F0A34F
:1046430022A3F012645D1246312274F5120712EAB6
:10465300FEEBFF890A8C088D09EE4F70030246EBCF
:104663007401650A701279011222BCE9F8902EC810
:10467300E493C398502280167404650A7014790475
:104683001222BCE9F8902EC7E493C398500A79111B
:1046930080587402650A70508E828F83A3A3A3A3EC
:1046A300A3A3A3A3A3E50A125701126C6E8E828FF4
:1046B30083A3A3E4F0A3F090139D1263A460188076
:1046C300031263B588828983A3A31247A0888289D2
:1046D30083A3A370EC800390139DEEF0A3EF124627
:1046E300F01215547900800279C1024A03F07A204E
:1046F3007B00901385E0F922C082C083E9F879003A
:1047030090139D801D8A828B83A3A3A3A3A3A3A33A
:10471300A3A3E068600574FF687001098A828B8334
:10472300A3A31247A070DE02557A74F7120712EAA8
:104733004B700590139D80068A828B83A3A3124737
:10474300A0601F8A828B83A3A3A3A3A3A3A3A3A372
:10475300E06970E4EC600F8A828B8312476C70D837
:1047630080047A007B000248AF126C41E0540422BB
:10477300C082C08390139D80068A828B83A3A31279
:1047830047A060128A828B83A3A3A3A3A3A3A3A39B
:10479300E06970E580047A007B0002557A12604676
:1047A300EA4B228A828B831253FD6C2274F2120726
:1047B300128A0A8B0B8C0C8D0D750800750900EAA3
:1047C300450B602A90139D80068E828F83A3A312CC
:1047D30047F8601AAC0CAD0DEEFAEFFB850A828543
:1047E3000B8312089DE9640170DF8E088F09AA0804
:1047F300AB090244C8E0FEA3E0FFEE4F2274F712B8
:10480300071290139D1263B57C007D00800DE8FCB8
:10481300E9FD88828983A3A31263B5E8496030EA7E
:10482300687002EB6970E790139D126042E86A704A
:1048330002E96B88828983A3A370081263B590137E
:104843009D80091263B58C828D83A3A3125E798048
:104853005B74F7120712EAFEEBFFEE4F602B122296
:10486300D412489C1260421215BA8E828F83126052
:10487300421215BA12639B600912488E12604212EB
:1048830015BAEEFAEFFB1215BA8021EE1248932205
:10489300240FF582E43FF583228E828F83E0F8A311
:1048A300E0C8125F7338F58322120C0D7F010209F1
:1048B30083125F4D8A828B8322E0F98A828B83A3E2
:1048C300A3A3A3221248CB2212658AA3A3A3221275
:1048D3006C551253FD221248CBA3A32274F6120780
:1048E3001290139D12646780308E828F83A3A3126C
:1048F30065A812489C1260421215BA8E828F8312E9
:1049030060421215BA12488E1260421215BAEEFABC
:10491300EFFB1215BAAE08AF09EE4F70CC90139DA2
:10492300E4F0A3F0025901C082C083EAFCEBFDEC82
:104933004D6017EC24FBF582ED34FF1263A2700780
:10494300124984E0F460071215187905803090133A
:1049530085E0C0E0124984D0E0F0902EBFE493F9E3
:104963007A9F7B1312154EE9640170107A007B2045
:10497300901385E0F91215547900800279040255E9
:104983007AEC24FFF582ED34FFF5832274F41207E9
:1049930012A2AFE433F508C2AF90139F1247F86039
:1049A3003AEE24FBF582EF34FF1263A27A007B20F8
:1049B3009013856007E0F91215548005E0F912158C
:1049C3005AE4F50AF50B780A120BFAEEFCEFFD7ABE
:1049D3009F7B131215487402120C0DE508A2E09296
:1049E300AFEEFAEFFB0237471249F0E0221249F427
:1049F30022F08E828F83A3A3A3A3A3A322120C0D61
:104A03007F0302098374F212071274FA120CBCEAD0
:104A1300FEEBFF7508FE7509FF122298E960057920
:104A230011024B94124BB0603B9015E2E0C4335437
:104A3300E0F8E0333354FC48C0E0126233D0E012B4
:104A430065C1FAA3E0FB79FF12205E8B0BEA450BED
:104A530060127508FFEE240F124BB34404F0124B9F
:104A6300B0D2E0F08E828F831260401223A6E960F9
:104A730006EE24121265D8EE2413124BB3700D9078
:104A83002EBDE493C0E0124BA7D0E0F08E828F835B
:104A9300E0A2E7500454038019EE2414124BB370C0
:104AA30012901317E0C0E0124B99D0E0F090131767
:104AB300E004F0EE2411124BB3640170169015CD8F
:104AC300E0600D901322E0700A8E828F83E0700302
:104AD3001265D58E828F83E064017013EE240B126E
:104AE30053F364027009EE240F124BB34440F0AC4D
:104AF30018AD19EEFAEFFB1223048A0A8B0B74FE2E
:104B03006508700374FFF470098E828F83A3A31268
:104B130065A8EA450B60768E828F83E0C0E074015E
:104B2300120EABD0E0F07404120EABEEF0A3EFF074
:104B3300EE241E1263AF7402120EAB125E7974017F
:104B4300120C76880C890D780C120BFAEE242012C5
:104B53004BBB120BFE12488E120A42EE240E124B6E
:104B6300BB120BFE90132B120A427408120EABE019
:104B7300F9AC08AD091222FE7408120C0DE9FE749B
:104B8300106E700BAA0AAB0B1215BA80027E10EEE0
:104B9300F974060244C5124B9D22EE2414F582E4F7
:104BA3003FF58322EE124BAC22125B2B22EE24152F
:104BB300F582E43FF583E022F582E43FF583E0F5F7
:104BC3000C780C22C082C08374D7120CBC90812B4A
:104BD3007403120C867426120B398A828B83A3A367
:104BE300A3A31263B5740E120EAB126C4DA3A312E2
:104BF30063B5740C120EAB124CCF124CC112582475
:104C0300C0E0741A120EABD0E0F01262B01263B3BC
:104C13007420120EAB124CCF125AEA125824C0E081
:104C23007408120EABD0E0F0EA241CF582E43B12C8
:104C330063B37412120EAB124CCF2411F582E4123B
:104C43005824C0E07409120EABD0E0F0124CBA1233
:104C53005824C0E07407120EABD0E0F0EA241EF52E
:104C630082E43B1263B37424120EAB124CCF2420A4
:104C7300F582E4125824C0E07426120EABD0E01281
:104C83004CC774FFF07401120EAB74FFF074021280
:104C93000EAB74FFF0908A01120A3E7404120C8664
:104CA3007407120C7E121EDE7404120C0D7900744C
:104CB30029120C0D02557AEA2412F582E422240DFE
:104CC300F582E422F085188285198322E8F0A3E9AE
:104CD300F0EA2274F412071274EC120CBC8A0A8BE9
:104CE3000B8C088D09E9FF7E107A217B001215B425
:104CF300851882851983EAF0A3EB1263AAE8497049
:104D030003024DE47C217D00790085188285198397
:104D1300E0FA121500901338126042851882851943
:104D230083126C132409F582E43812654D74201242
:104D33000EAB1263B57411120EAB12547012635D95
:104D430038F5837402125474126C24740212545D85
:104D5300E508F0A3E509125474126C02EFF0742213
:104D6300120EAB125411F9A3E0C912686139F5832D
:104D7300E812510FA3E0C9125F7339124DEB74238C
:104D8300120EAB1260427406120EAB12654F74081A
:104D9300120EABE8F07426120EAB126381C082C010
:104DA30083740C120EABAC82AD83D083D0827405B6
:104DB300120B397425120EABE0C0E07413120EAB64
:104DC300D0E0F07900AA18AB1912229EE9640170B1
:104DD300047E00800C8518828519831260421215A7
:104DE300BAEEF97414023744F583E50AF0A3E50B30
:104DF300F02274F012071274FF120CBCEAFEEBFFF0
:104E03008C088D098E828F83A37408F0EE2416120A
:104E13004BB360088E828F83A37410F0EE241712B5
:104E23004BB360098E828F83A3E02408F0124BB04A
:104E330060088E828F83A3E004F08E828F83A3A306
:104E4300A3A3A3A3E060198E828F83A3A3A3A3A329
:104E5300A3A3E0C3332402F88E828F83A3E028F058
:104E6300EE24111250CA6004740E8001E4F0901510
:104E7300DAE0640170168E828F83E06401600D9026
:104E830012A4E060071250B7740180041250B7E413
:104E930012510F8E828F83A3E01250D828298C825F
:104EA3008D83F0EE2411124BB36013901323E0F9BA
:104EB3001221F6E9F8850882850983E029F085083F
:104EC30082850983E0C394754009750C00750D0054
:104ED3000250AEE0FA7B001215B48A0C8B0DEA4542
:104EE3000D70030250AE8E828F83E0FA9013281266
:104EF300510874027808120DD2EA4508FAAB09EE9C
:104F0300241212510274067808120DD2A808EA4836
:104F1300FCEBFD124BB06004780180027800EE24B4
:104F230016FAE43FFBE4C8F9ED49FDEE2411124BF8
:104F3300B3F508880974097808120DD2ED4509FD07
:104F43008A828B83125108740B7808120DD2ED45B7
:104F530009FDEE2417125102740C7808120DD2EDDC
:104F63004509FD8E828F83A3A3A3A3A3A312510894
:104F7300740A7808120DD2ED4509FDEE242312516F
:104F830002740D7808120DD2ECF8ED4509F9E885A5
:104F93000C82850D83F0E9125114850C82850D83F3
:104FA300125137F0EE24041250C11250EC12513753
:104FB300A3A3125B211250ECA3A3A3A3126C6885D5
:104FC3000C82850D83A3A3A3A3A3A3A3F0750B084E
:104FD3008A828B83E06015EE2418125F43E50C246C
:104FE30008FAE4350DFB1216B6750B10EE241712F2
:104FF3004BB36019EE241A125F43A80BE50C28FA91
:10500300E4350DFB1216B67408250BF50B8E828F53
:1050130083A3A3A3A3A3A3E06055EE2407F50EE4A3
:105023003FF50F850E82F583E0C0E01250DFD0E03C
:10503300125127E0C0E0081250E1D0E0125127A33B
:1050430012638E120BF6850E82850F83E01253C313
:10505300A80BE50C28FAE4350DFB1214F4740312C3
:105063000C0D850E82850F83E0C333250BF50B12E0
:105073004BB06008C0E01250DFD0E0F0125E521275
:10508300638E120BF61250D9FC7D007403120EAB23
:105093001250FAE0F8E50C28F8E4350DF9E82AFA9D
:1050A300E439FB1214F47403120C0DAA0CAB0D7447
:1050B30001026370EE2423F582E43FF58322F8E4D2
:1050C3003FF98882898322F582E43FF583E08518DE
:1050D3008285198322F8EE126A51E022A80BE50CAF
:1050E30028F582E4350DF583221250F022E0850C79
:1050F30082850D83A3A322E0FA8E828F83A322F5F8
:1051030082E43FF583E0F50875090022126C5BF930
:1051130022A312511E88828983E022F0EE2402F832
:10512300E43FF922F0050B8E828F83A3A3A3A3A3ED
:10513300A3A3A322A3A31265BBA31250F0A32274BB
:10514300030237441263B98E828F83A3A32274F0C0
:1051530012071274FD120CBC85188285198312651F
:105163004F7402120EABE9F08C0C8D0D750B017CA4
:10517300267D007900AA0CAB0D1215007402120EE5
:10518300ABE0C39408500302534DE0850C82850DB8
:1051930083F0AC0CAD0D8518828519831253F9FA8F
:1051A300851882851983125A4D1256F0122310E97D
:1051B3006003750B0085188285198312638112546D
:1051C3001BE0F9EA850C82850D83A3A3A3A3A3A304
:1051D300A3A3A3F0A3E912545DA3A312541BA3A397
:1051E300E0F9EAF8E50C12635D126C931254701245
:1051F3005F35C0E0E50C2411126C90D0E0125474BA
:105203002407F582E438F583E0C0E0126C8CD0E02B
:105213001254477408125454A3E060208518828501
:105223001983E02408F8A3E03400F9E50C241312F1
:105233006C90E8F0A3E91263582408F0850C82858A
:105243000D83A3A3A3A3A3A3A3A3E0602A850C8236
:10525300850D83A385820E85830F125408F8A3E07E
:105263003400F9E50C125AEA350D125E77850E8289
:10527300850F83E02408F01253CAE4F01253DAE4F2
:10528300F0A3125447A3A3A3A3E0601112542C85E7
:105293000C82850D83A3A3A3A3A3125465E50C126B
:1052A30053EBE0700302533912542CFA1253CAEA37
:1052B300125465F8851882851983E028FBA3E0342E
:1052C300008B82F583E0F8E50C241A126C90E81247
:1052D3005465E8C39AE50C50581253E6F8902EC073
:1052E300E493C39850047E0C8006E50C1253E6FE4B
:1052F300850C82850D83125407F508A3E03400F56D
:1053030009750A007808120BF6EE1253C37A467B2E
:10531300081214F47403120C0D1253DA7446F0A33A
:105323007408F0EEC333F8850E82850F83E028807E
:10533300041253EBE4F0850C82850D83A3E0F8851A
:105343000C82850D83E0C39850047900806F12545A
:1053530007FAA3E03400FBE50C1265CF350D1265A7
:105363004D850C82850D83E0C398C0E0E50C2417BE
:10537300126C90D0E0125454E06040E50C2417FE08
:10538300E4350DFF8E828F83E024F2F0E50C241DBB
:10539300F8E4350DF988828983E0240EFAA3E0341A
:1053A30000FB8882898312654F901323E0F9122151
:1053B300F6E9F88E828F83E0C398F0A90B02636E3F
:1053C30025E0FCE433FD22E50C1253D0222419F529
:1053D30082E4350DF58322E50C241BF582E4350DBB
:1053E300F583221253D0E022126352350DF5832246
:1053F300F582E43FF5831253FD22E0F8A3E0F58341
:105403008882E022A312540C221254112822E0F8BD
:10541300851882851983E022A3A3E0FA8518828583
:105423001983126387A3A3A322850C82850D83A30B
:1054330085820E85830F12540CFAA3E034008A820E
:10544300F583E02212544B22F0850C82850D83A351
:105453002212544BA3A3A3A3A322125479F5838846
:105463008222F0850E82850F83E004F022E8F0A308
:10547300E9125479C822126C5FF8A3E02274F41283
:1054830007128A088B09EA125525A3A3F0EA13131E
:10549300543F12551DA3A3F0EAC41313125525124A
:1054A300552F7409780A120E45125514A3A3A3A30A
:1054B300A3A3F0EB12551612552E740A780A120E96
:1054C30045E50A5401C0E0EC1263523DF583D0E098
:1054D300125533740B780A120E4512551412552CBB
:1054E300740C780A120E45125514A312552C740D20
:1054F300780A120E45E50A5401C0E0EC2424F58233
:10550300E43DF583D0E0F0740E7808120E450237BF
:105513003EE50A54018C828D8322540F8C828D8345
:10552300A32254038C828D8322A3A3A3A3A3A3A3A7
:10553300F08A0A8B0B22C082C08379008A828B8314
:10554300A3A3A3A3A3A3E0901322600EE070238A76
:10555300828B83A3A3E0701A8016E060158A828B86
:105563008312603990132BE06A7003A3E06B60022F
:1055730079018003126042D083D082020BBD74F2A2
:105583001207128A0A8B0B890CECFEEDFF8A828BC1
:10559300831256EE122310850A82850B83A3A3126E
:1055A30056E2E0F9EA8E828F83A3A3A3A3A3A3A366
:1055B300A3A312570D1256E2A3A3E0F9EAF8125E71
:1055C30052E812570DA3A3E0C0E0EE2411F582E4E4
:1055D3003FF583D0E0125714A3A3A3E0C0E0EE127B
:1055E3004CBB3FF583D0E01256FC7408125707A357
:1055F300A3A3E06016E50A2408F8E4350BF9EE24CA
:1056030013125B011256FCE02408F08E828F83A3F1
:10561300A3A3A3A3A3A3A3E060148E828F83A312E7
:1056230056D1EE2415125B01125D342408F08E82EC
:105633008F83A3A3A3A3A3E0601F8E828F83A3857D
:105643008208858309E0F8E50A28F582E4350B1220
:1056530056C6A3A3125D3404F0EEFAEFFB12231631
:10566300E9F50D70598E828F83A3A3A3125AF8A371
:105673007014E0F8E50A28FAE4350BFBEE241D125A
:105683006549E50C80281256D1E8240EF85001092B
:10569300EE241D125E73901323E0F91221F6E9F84C
:1056A300850882850983E0F9E50CC39924F2C39840
:1056B300C0E0EE2417F582E43FF583D0E0F0A90DB6
:1056C3000244C8F583E08E828F83A3A3A32285823D
:1056D30008858309E0F8E50A28F8E4350BF922E0A8
:1056E300FA850A82850B83A3A3A322E0FAA3E0F839
:1056F300E4C8F9EA28E439FB22125701A322F08E09
:10570300828F83221265C6A3A322F0A3E912571442
:1057130022F0850A82850B83A3A3A3A322C082C0A0
:10572300837AAB7B1379E2121D767AAB7B13025536
:105733007AC082C08390132B025577C082C08390B6
:10574300132E025577C082C083794A121D76025503
:105753007A74F61207129013B3E0FE04F0EEF91216
:1057630022C88B09EA450970EDEE60EAF902590196
:1057730074F2120712EAFEEBFF8C088D09890A12F4
:105783002412740E120EABE0F9740F120EABE0F894
:10579300EA4B7012E8701BA90AAC08AD09EEFAEFE8
:1057A300FB1224308071E86017E970068A828B83CC
:1057B300E4F07401687060E99013BA7027E4802103
:1057C300E97054EA2402F582E4125824A80A28F85E
:1057D300E4340013E813F0703E8A828B83A3A3742E
:1057E30001F08033E004F09015CAE0F89013BAE0BA
:1057F300C3984023E4F090132EE06E7003A3E06F90
:105803007015EEFAEFFB7901121F027A017B00900B
:105813001385E0F91216860244C874812AF582744E
:10582300073BF583E02274F41207128A088B098C74
:105833000A8D0B9089C17808120CE7700E7A017BF0
:1058430000901385E0F912155480319015B778084C
:10585300120E361234E160187808120BF27A017BCB
:1058630000901385E0F912167A7404120C0D800C63
:105873007A017B00901385E0F9121686023747C040
:1058830082C0839015BB024210C082C0839015BDB5
:1058930002421074F61207127E0075081775091379
:1058A3007808120BFA7C6E7D007A217B0012162C8D
:1058B3007402120C0DE9640A70027E01121E54E98F
:1058C300640A7004EED2E1FE9004681263A4600FD0
:1058D300125A4E12089DE9640A7004EED2E3FE12D6
:1058E3002082E9640A7004EED2E4FE121CF8E96433
:1058F3000A7004EED2E5FEEEF98003120C0D7F026E
:1059030002098374F61207121214B8750817750981
:10591300137808120BFA75086E7509007808120BD4
:10592300FA7C007D007A217B001216387404120C75
:105933000D121E5A90046A1263A46006125A4E1284
:10594300089D122088121D0A80B474F6120712747F
:10595300FF120CBC7E007508177509137808120B2B
:10596300FA7C6E7D007A217B0012162C7402120CD5
:105973000DE96003025A327808120BFA75086E8E2D
:10598300097808120BFA7C007D007A217B0012163D
:105993003E7404120C0DE96003025A3290132BE09B
:1059A30064FE7003A3E0F47003025A327E01901385
:1059B3003AE064086005E06404706F851882851915
:1059C30083EE125B3E7942121D7C7A427B1379434C
:1059D300121D7C7A3F7B137947121D7C7A307B132F
:1059E300794A121D7C7A2E7B13794B121D7C7A38EF
:1059F3007B137950121D7C7A2B7B137953121D7CF8
:105A03007A407B137954121D7C7A2D7B1379E11232
:105A13001D7C901325E0A2E35004D2F08002C2F073
:105A2300125B347952121D7C80051214B87E001269
:105A33001E4890046C1263A46006125A4E12089D0D
:105A4300122094EEF974010258FEA31263882274A3
:105A5300F6120712E9FEA2E050267508177509131E
:105A63007808120BFA75086E7509007808120BFA9C
:105A73007C007D007A217B001216387404120C0D11
:105A8300EEA2E35003121E4EEEA2E2500E90046EFD
:105A93001263A46006125A4E12089D02590174F74C
:105AA30012071274ED120CBCE9FE901384F0AC18CB
:105AB300AD199015F8E0F97A887B131222807412DD
:105AC300120EABEE125ADFAA18AB1912227A7A8899
:105AD3007B137945121D7C74130248ACF09015F8C2
:105AE300E0F97C887D13222415F582E42212645E9A
:105AF3003509F58322A3A3A3E08E828F8322F58247
:105B0300E43FF583E8F0A3E922EE12645E3FF583F8
:105B1300125B1722E0F8A3E0F98882898322125BE3
:105B23002522F0EE125B2B222413F582E43FF5834A
